{
  "_format": "hh-sol-artifact-1",
  "contractName": "MedicalBillingRegistry",
  "sourceName": "contracts/MedicalBillingRegistry.sol",
  "abi": [
    {
      "inputs": [
        {
          "internalType": "address",
          "name": "_verifier",
          "type": "address"
        },
        {
          "internalType": "address",
          "name": "_paymentController",
          "type": "address"
        },
        {
          "internalType": "address",
          "name": "_fraudRegistry",
          "type": "address"
        }
      ],
      "stateMutability": "nonpayable",
      "type": "constructor"
    },
    {
      "inputs": [],
      "name": "EnforcedPause",
      "type": "error"
    },
    {
      "inputs": [],
      "name": "ExpectedPause",
      "type": "error"
    },
    {
      "inputs": [
        {
          "internalType": "address",
          "name": "owner",
          "type": "address"
        }
      ],
      "name": "OwnableInvalidOwner",
      "type": "error"
    },
    {
      "inputs": [
        {
          "internalType": "address",
          "name": "account",
          "type": "address"
        }
      ],
      "name": "OwnableUnauthorizedAccount",
      "type": "error"
    },
    {
      "inputs": [],
      "name": "ReentrancyGuardReentrantCall",
      "type": "error"
    },
    {
      "anonymous": false,
      "inputs": [
        {
          "indexed": true,
          "internalType": "bytes32",
          "name": "commitment",
          "type": "bytes32"
        },
        {
          "indexed": true,
          "internalType": "address",
          "name": "insurer",
          "type": "address"
        }
      ],
      "name": "InsurerAccessGranted",
      "type": "event"
    },
    {
      "anonymous": false,
      "inputs": [
        {
          "indexed": true,
          "internalType": "bytes32",
          "name": "commitment",
          "type": "bytes32"
        },
        {
          "indexed": true,
          "internalType": "address",
          "name": "insurer",
          "type": "address"
        }
      ],
      "name": "InvoiceDisputed",
      "type": "event"
    },
    {
      "anonymous": false,
      "inputs": [
        {
          "indexed": true,
          "internalType": "bytes32",
          "name": "commitment",
          "type": "bytes32"
        },
        {
          "indexed": true,
          "internalType": "address",
          "name": "provider",
          "type": "address"
        },
        {
          "indexed": false,
          "internalType": "string",
          "name": "ipfsCID",
          "type": "string"
        },
        {
          "indexed": false,
          "internalType": "uint256",
          "name": "coverageLimit",
          "type": "uint256"
        },
        {
          "indexed": false,
          "internalType": "uint256",
          "name": "timestamp",
          "type": "uint256"
        }
      ],
      "name": "InvoiceSubmitted",
      "type": "event"
    },
    {
      "anonymous": false,
      "inputs": [
        {
          "indexed": true,
          "internalType": "address",
          "name": "previousOwner",
          "type": "address"
        },
        {
          "indexed": true,
          "internalType": "address",
          "name": "newOwner",
          "type": "address"
        }
      ],
      "name": "OwnershipTransferred",
      "type": "event"
    },
    {
      "anonymous": false,
      "inputs": [
        {
          "indexed": false,
          "internalType": "address",
          "name": "account",
          "type": "address"
        }
      ],
      "name": "Paused",
      "type": "event"
    },
    {
      "anonymous": false,
      "inputs": [
        {
          "indexed": false,
          "internalType": "address",
          "name": "account",
          "type": "address"
        }
      ],
      "name": "Unpaused",
      "type": "event"
    },
    {
      "inputs": [
        {
          "internalType": "bytes32",
          "name": "commitment",
          "type": "bytes32"
        }
      ],
      "name": "disputeInvoice",
      "outputs": [],
      "stateMutability": "nonpayable",
      "type": "function"
    },
    {
      "inputs": [],
      "name": "fraudRegistry",
      "outputs": [
        {
          "internalType": "contract FraudRegistry",
          "name": "",
          "type": "address"
        }
      ],
      "stateMutability": "view",
      "type": "function"
    },
    {
      "inputs": [
        {
          "internalType": "address",
          "name": "provider",
          "type": "address"
        }
      ],
      "name": "getInvoiceCount",
      "outputs": [
        {
          "internalType": "uint256",
          "name": "",
          "type": "uint256"
        }
      ],
      "stateMutability": "view",
      "type": "function"
    },
    {
      "inputs": [
        {
          "internalType": "address",
          "name": "provider",
          "type": "address"
        }
      ],
      "name": "getProviderInvoices",
      "outputs": [
        {
          "internalType": "bytes32[]",
          "name": "",
          "type": "bytes32[]"
        }
      ],
      "stateMutability": "view",
      "type": "function"
    },
    {
      "inputs": [
        {
          "internalType": "bytes32",
          "name": "commitment",
          "type": "bytes32"
        },
        {
          "internalType": "address",
          "name": "insurer",
          "type": "address"
        }
      ],
      "name": "grantInsurerAccess",
      "outputs": [],
      "stateMutability": "nonpayable",
      "type": "function"
    },
    {
      "inputs": [
        {
          "internalType": "address",
          "name": "",
          "type": "address"
        },
        {
          "internalType": "bytes32",
          "name": "",
          "type": "bytes32"
        }
      ],
      "name": "insurerAccess",
      "outputs": [
        {
          "internalType": "bool",
          "name": "",
          "type": "bool"
        }
      ],
      "stateMutability": "view",
      "type": "function"
    },
    {
      "inputs": [
        {
          "internalType": "bytes32",
          "name": "",
          "type": "bytes32"
        }
      ],
      "name": "invoices",
      "outputs": [
        {
          "internalType": "bytes32",
          "name": "commitment",
          "type": "bytes32"
        },
        {
          "internalType": "uint256",
          "name": "coverageLimit",
          "type": "uint256"
        },
        {
          "internalType": "address",
          "name": "provider",
          "type": "address"
        },
        {
          "internalType": "uint256",
          "name": "submittedAt",
          "type": "uint256"
        },
        {
          "internalType": "string",
          "name": "ipfsCID",
          "type": "string"
        },
        {
          "internalType": "bool",
          "name": "disputed",
          "type": "bool"
        }
      ],
      "stateMutability": "view",
      "type": "function"
    },
    {
      "inputs": [
        {
          "internalType": "bytes32",
          "name": "commitment",
          "type": "bytes32"
        }
      ],
      "name": "isVerified",
      "outputs": [
        {
          "internalType": "bool",
          "name": "",
          "type": "bool"
        }
      ],
      "stateMutability": "view",
      "type": "function"
    },
    {
      "inputs": [],
      "name": "owner",
      "outputs": [
        {
          "internalType": "address",
          "name": "",
          "type": "address"
        }
      ],
      "stateMutability": "view",
      "type": "function"
    },
    {
      "inputs": [],
      "name": "pause",
      "outputs": [],
      "stateMutability": "nonpayable",
      "type": "function"
    },
    {
      "inputs": [],
      "name": "paused",
      "outputs": [
        {
          "internalType": "bool",
          "name": "",
          "type": "bool"
        }
      ],
      "stateMutability": "view",
      "type": "function"
    },
    {
      "inputs": [],
      "name": "paymentController",
      "outputs": [
        {
          "internalType": "contract PPTPaymentController",
          "name": "",
          "type": "address"
        }
      ],
      "stateMutability": "view",
      "type": "function"
    },
    {
      "inputs": [
        {
          "internalType": "address",
          "name": "",
          "type": "address"
        },
        {
          "internalType": "uint256",
          "name": "",
          "type": "uint256"
        }
      ],
      "name": "providerInvoices",
      "outputs": [
        {
          "internalType": "bytes32",
          "name": "",
          "type": "bytes32"
        }
      ],
      "stateMutability": "view",
      "type": "function"
    },
    {
      "inputs": [],
      "name": "renounceOwnership",
      "outputs": [],
      "stateMutability": "nonpayable",
      "type": "function"
    },
    {
      "inputs": [
        {
          "internalType": "uint256[2]",
          "name": "pA",
          "type": "uint256[2]"
        },
        {
          "internalType": "uint256[2][2]",
          "name": "pB",
          "type": "uint256[2][2]"
        },
        {
          "internalType": "uint256[2]",
          "name": "pC",
          "type": "uint256[2]"
        },
        {
          "internalType": "uint256[2]",
          "name": "pubSignals",
          "type": "uint256[2]"
        },
        {
          "internalType": "uint256",
          "name": "coverageLimit",
          "type": "uint256"
        },
        {
          "internalType": "string",
          "name": "ipfsCID",
          "type": "string"
        },
        {
          "internalType": "uint256[2]",
          "name": "fpA",
          "type": "uint256[2]"
        },
        {
          "internalType": "uint256[2][2]",
          "name": "fpB",
          "type": "uint256[2][2]"
        },
        {
          "internalType": "uint256[2]",
          "name": "fpC",
          "type": "uint256[2]"
        },
        {
          "internalType": "uint256[1]",
          "name": "fraudPubSignals",
          "type": "uint256[1]"
        }
      ],
      "name": "submitInvoice",
      "outputs": [],
      "stateMutability": "nonpayable",
      "type": "function"
    },
    {
      "inputs": [],
      "name": "totalInvoices",
      "outputs": [
        {
          "internalType": "uint256",
          "name": "",
          "type": "uint256"
        }
      ],
      "stateMutability": "view",
      "type": "function"
    },
    {
      "inputs": [
        {
          "internalType": "address",
          "name": "newOwner",
          "type": "address"
        }
      ],
      "name": "transferOwnership",
      "outputs": [],
      "stateMutability": "nonpayable",
      "type": "function"
    },
    {
      "inputs": [],
      "name": "unpause",
      "outputs": [],
      "stateMutability": "nonpayable",
      "type": "function"
    },
    {
      "inputs": [],
      "name": "verifier",
      "outputs": [
        {
          "internalType": "contract MedicalInvoiceVerifier",
          "name": "",
          "type": "address"
        }
      ],
      "stateMutability": "view",
      "type": "function"
    }
  ],
  "bytecode": "0x60e03461013b57601f6113e438819003918201601f19168301916001600160401b038311848410176101405780849260609460405283398101031261013b5761004781610156565b61005f604061005860208501610156565b9301610156565b33156101225760008054336001600160a01b0319821681178355604051956001600160a01b03958694919385939192908416907f8be0079c531659141344cd1fd0a4f28419497f9722a3daafe3b4186f6b6457e09080a360017f9b779b17422d0df92223018b32b4d1fa46e071723d6817e2486d003becc55f0055166080521660a0521660c052611279908161016b82396080518181816109260152610fe2015260a0518181816104e8015261088c015260c0518181816102fb015261084b0152f35b604051631e4fbdf760e01b815260006004820152602490fd5b600080fd5b634e487b7160e01b600052604160045260246000fd5b51906001600160a01b038216820361013b5756fe608080604052600436101561001357600080fd5b60009060e0908235821c90816302dbe779146110f85750806313e5969f146110bf57806324b90196146110115780632b7ac3f314610fcc5780633f4ba83a14610f5b5780635c975abb14610f365780635d7d538a14610f1857806362607338146106ce578063715018a6146106745780638456cb59146106135780638da5cb5b146105ec5780638f0ce6cd14610517578063a05b5961146104d2578063a4d516861461047c578063b970629c14610374578063c181b2731461032a578063f2af43cd146102e5578063f2fde38b146102555763f8a8a076146100f457600080fd5b34610251576020918260031936011261024e5760043581526001908184526040812090815494838301549260018060a01b0360028201541660038201549160048101604051978891879181549161014a83611182565b928386528983821691826000146102285750506001146101e9575b5050509161018260059260ff949c9a999c989796959803896111bc565b015416936040519889978852838801526040870152606086015260c060808601528351938460c0870152825b8581106101d357505050838301850152151560a0830152601f01601f19168101030190f35b81810183015189820189015288965082016101ae565b8952878920889350899291905b82841061020e575050508201016101828260ff610165565b849295829585835492010152019101909287928b946101f6565b60ff19168782015293151560051b86019093019350610182925084915060ff9050610165565b80fd5b5080fd5b823461024e57602036600319011261024e5761026f61113e565b6102776111de565b6001600160a01b039081169081156102cc57600054826bffffffffffffffffffffffff60a01b821617600055167f8be0079c531659141344cd1fd0a4f28419497f9722a3daafe3b4186f6b6457e0600080a380f35b604051631e4fbdf760e01b815260048101849052602490fd5b823461024e578060031936011261024e576040517f00000000000000000000000000000000000000000000000000000000000000006001600160a01b03168152602090f35b823461024e57602036600319011261024e57604060209160043581526001835220600381015415159081610364575b506040519015158152f35b60ff915060050154161582610359565b823461024e5760208060031936011261025157600435903383526003815260408320828452815260ff6040842054161561044257818352600181526003604084200154156103fe576001908284525260056040832001600160ff1982541617905533907fa0a82998ad63db9f7783440d8888dec76d623bd35951c4a82d2750053e7216818380a380f35b6064906040519062461bcd60e51b82526004820152601b60248201527f52656769737472793a20696e766f696365206e6f7420666f756e6400000000006044820152fd5b6064906040519062461bcd60e51b82526004820152601360248201527252656769737472793a206e6f2061636365737360681b6044820152fd5b823461024e57604036600319011261024e5761049661113e565b6001600160a01b031681526002602052604081208054602435929083101561024e5760206104c48484611154565b90546040519160031b1c8152f35b823461024e578060031936011261024e576040517f00000000000000000000000000000000000000000000000000000000000000006001600160a01b03168152602090f35b823461024e57604036600319011261024e576001600160a01b0360243581811691600435918390036105e757818452600160205260026040852001541633036105a25781835260036020526040832081845260205260408320600160ff198254161790557f4be917ef4556ab00631259ab945966e4403c595bd0e3891bef925c7052da95448380a380f35b60405162461bcd60e51b815260206004820152601a60248201527f52656769737472793a206e6f7420796f757220696e766f6963650000000000006044820152606490fd5b600080fd5b823461024e578060031936011261024e57546040516001600160a01b039091168152602090f35b823461024e578060031936011261024e5761062c6111de565b610634611222565b805460ff60a01b1916600160a01b1781556040513381527f62e78cea01bee320cd4e420270b5ea74000d11b0c9f74754ebdbfc544b05a25890602090a180f35b823461024e578060031936011261024e5761068d6111de565b600080546001600160a01b0319811682556001600160a01b03167f8be0079c531659141344cd1fd0a4f28419497f9722a3daafe3b4186f6b6457e08280a380f35b823461024e576102a036600319011261024e573660441161024e573660c41161024e57366101041161024e57366101441161024e5767ffffffffffffffff610164351161024e573660236101643501121561024e5767ffffffffffffffff61016435600401351161024e5736602461016435600401356101643501011161024e57366101c41161024e57366102441161024e57366102841161024e57366102a41161024e5760027f9b779b17422d0df92223018b32b4d1fa46e071723d6817e2486d003becc55f005414610f065760027f9b779b17422d0df92223018b32b4d1fa46e071723d6817e2486d003becc55f00556107c8611222565b60016101243503610ead5761010435815260016020526003604082200154610e6857610164356004013515610e235760408051630fb1631d60e31b81529061018460048301376101c482604483015b60028210610e0d57505050604061024460c483013760206102846101048301376101043561012482015260208161014481857f00000000000000000000000000000000000000000000000000000000000000006001600160a01b03165af1908115610d3a578291610dee575b5015610d8a57807f00000000000000000000000000000000000000000000000000000000000000006001600160a01b0316803b15610d87578190602460405180948193632ae0902560e21b83523360048401525af18015610d3a57610d5b575b5060408051637ae4eb4f60e11b815290600480830137604460008282015b60028210610d4557505050604060c480830137604061010480830137602081610144817f00000000000000000000000000000000000000000000000000000000000000006001600160a01b03165afa908115610d3a578291610d0b575b5015610cc65760405160c0810181811067ffffffffffffffff821117610cb0576040526101043581526101443560208201523360408201524260608201526040516109ba6020601f19601f6101643560040135011601826111bc565b610164356004810135808352906024016020830137826020610164356004013583010152608082019081528260a08301526101043583526001602052604083209082518255602083015160018301556002820160018060a01b036040850151166bffffffffffffffffffffffff60a01b825416179055606083015160038301555180519067ffffffffffffffff8211610c9c57610a5a6004840154611182565b601f8111610c57575b50602090601f8311600114610be557918060a094926005948892610bda575b50508160011b916000199060031b1c19161760048201555b01910151151560ff8019835416911617905533815260026020526040812080549068010000000000000000821015610bc65790610adc91600182018155611154565b9080549160031b600019928361010435831b921b1916179055600454908114610bb2576001016004556040516060815261016435600401356060820152610164356004013560246101643501608083013781608061016435600401358301015261014435602082015242604082015233907fcf4ac303971c2e55839b19ca7227f426c4e1caf7e50fbafb20db83ca2d63a1106101043591608081601f19601f610164356004013501168101030190a360017f9b779b17422d0df92223018b32b4d1fa46e071723d6817e2486d003becc55f005580f35b634e487b7160e01b82526011600452602482fd5b634e487b7160e01b83526041600452602483fd5b015190508780610a82565b906004840186526020862091865b601f1985168110610c3f57509260a0949260019260059583601f19811610610c26575b505050811b016004820155610a9a565b015160001960f88460031b161c19169055878080610c16565b91926020600181928685015181550194019201610bf3565b60048401865260208620601f840160051c810160208510610c95575b601f830160051c82018110610c89575050610a63565b60008155600101610c73565b5080610c73565b634e487b7160e01b85526041600452602485fd5b634e487b7160e01b600052604160045260246000fd5b60405162461bcd60e51b815260206004820152601a60248201527f52656769737472793a20696e76616c6964205a4b2070726f6f660000000000006044820152606490fd5b610d2d915060203d602011610d33575b610d2581836111bc565b81019061120a565b8261095e565b503d610d1b565b6040513d84823e3d90fd5b6040808281866001953701930191019091610901565b67ffffffffffffffff8111610d7357604052816108e3565b634e487b7160e01b82526041600452602482fd5b50fd5b60405162461bcd60e51b815260206004820152603660248201527f52656769737472793a20696e766f69636520666c6167676564206173207375736044820152751c1a58da5bdd5cc8189e48199c985d59081b5bd9195b60521b6064820152608490fd5b610e07915060203d602011610d3357610d2581836111bc565b82610883565b6040808281866001953701930191019091610817565b60405162461bcd60e51b815260206004820152601b60248201527f52656769737472793a20495046532043494420726571756972656400000000006044820152606490fd5b60405162461bcd60e51b815260206004820152601b60248201527f52656769737472793a206475706c696361746520696e766f69636500000000006044820152606490fd5b60405162461bcd60e51b815260206004820152602b60248201527f52656769737472793a20696e766f69636520636f6e73747261696e7473206e6f60448201526a1d081cd85d1a5cd99a595960aa1b6064820152608490fd5b604051633ee5aeb560e01b8152600490fd5b823461024e578060031936011261024e576020600454604051908152f35b823461024e578060031936011261024e5760ff6020915460a01c166040519015158152f35b823461024e578060031936011261024e57610f746111de565b805460ff8160a01c1615610fba5760ff60a01b191681556040513381527f5db9ee0a495bf2e6ff9c91a7834c1ba4fdd244a5e8aa4e537bd38aeae4b073aa90602090a180f35b604051638dfc202b60e01b8152600490fd5b823461024e578060031936011261024e576040517f00000000000000000000000000000000000000000000000000000000000000006001600160a01b03168152602090f35b823461024e57602080600319360112610251576001600160a01b0361103461113e565b168252600281526040822060405192838383549182815201908193835284832090835b8181106110ab575050508461106d9103856111bc565b60405193838594850191818652518092526040850193925b82811061109457505050500390f35b835185528695509381019392810192600101611085565b825484529286019260019283019201611057565b823461024e57602036600319011261024e576020906040906001600160a01b036110e761113e565b168152600283522054604051908152f35b8390346102515760403660031901126102515760209160ff906040906001600160a01b0361112461113e565b168152600385528181206024358252855220541615158152f35b600435906001600160a01b03821682036105e757565b805482101561116c5760005260206000200190600090565b634e487b7160e01b600052603260045260246000fd5b90600182811c921680156111b2575b602083101461119c57565b634e487b7160e01b600052602260045260246000fd5b91607f1691611191565b90601f8019910116810190811067ffffffffffffffff821117610cb057604052565b6000546001600160a01b031633036111f257565b60405163118cdaa760e01b8152336004820152602490fd5b908160209103126105e7575180151581036105e75790565b60ff60005460a01c1661123157565b60405163d93c066560e01b8152600490fdfea26469706673582212203e107d97e610d3da99b891bbd549a021d8b54cb32e7071416b10d5553d3e2a9464736f6c63430008140033",
  "linkReferences": {},
  "deployedLinkReferences": {}
}