{
  "_format": "hh-sol-artifact-1",
  "contractName": "ProofAnchor",
  "sourceName": "contracts/crosschain/ProofAnchor.sol",
  "abi": [
    {
      "inputs": [
        {
          "internalType": "address",
          "name": "_relayer",
          "type": "address"
        }
      ],
      "stateMutability": "nonpayable",
      "type": "constructor"
    },
    {
      "inputs": [
        {
          "internalType": "address",
          "name": "owner",
          "type": "address"
        }
      ],
      "name": "OwnableInvalidOwner",
      "type": "error"
    },
    {
      "inputs": [
        {
          "internalType": "address",
          "name": "account",
          "type": "address"
        }
      ],
      "name": "OwnableUnauthorizedAccount",
      "type": "error"
    },
    {
      "anonymous": false,
      "inputs": [
        {
          "indexed": true,
          "internalType": "address",
          "name": "previousOwner",
          "type": "address"
        },
        {
          "indexed": true,
          "internalType": "address",
          "name": "newOwner",
          "type": "address"
        }
      ],
      "name": "OwnershipTransferred",
      "type": "event"
    },
    {
      "anonymous": false,
      "inputs": [
        {
          "indexed": true,
          "internalType": "bytes32",
          "name": "commitment",
          "type": "bytes32"
        },
        {
          "indexed": true,
          "internalType": "address",
          "name": "provider",
          "type": "address"
        },
        {
          "indexed": false,
          "internalType": "string",
          "name": "ipfsCID",
          "type": "string"
        },
        {
          "indexed": false,
          "internalType": "uint256",
          "name": "fvmTimestamp",
          "type": "uint256"
        }
      ],
      "name": "ProofAnchored",
      "type": "event"
    },
    {
      "inputs": [
        {
          "internalType": "uint256",
          "name": "",
          "type": "uint256"
        }
      ],
      "name": "allCommitments",
      "outputs": [
        {
          "internalType": "bytes32",
          "name": "",
          "type": "bytes32"
        }
      ],
      "stateMutability": "view",
      "type": "function"
    },
    {
      "inputs": [
        {
          "internalType": "bytes32",
          "name": "commitment",
          "type": "bytes32"
        },
        {
          "internalType": "address",
          "name": "provider",
          "type": "address"
        },
        {
          "internalType": "string",
          "name": "ipfsCID",
          "type": "string"
        },
        {
          "internalType": "uint256",
          "name": "fvmTimestamp",
          "type": "uint256"
        }
      ],
      "name": "anchorProof",
      "outputs": [],
      "stateMutability": "nonpayable",
      "type": "function"
    },
    {
      "inputs": [
        {
          "internalType": "bytes32",
          "name": "",
          "type": "bytes32"
        }
      ],
      "name": "anchors",
      "outputs": [
        {
          "internalType": "bytes32",
          "name": "commitment",
          "type": "bytes32"
        },
        {
          "internalType": "address",
          "name": "provider",
          "type": "address"
        },
        {
          "internalType": "string",
          "name": "ipfsCID",
          "type": "string"
        },
        {
          "internalType": "uint256",
          "name": "anchoredAt",
          "type": "uint256"
        },
        {
          "internalType": "uint256",
          "name": "fvmTimestamp",
          "type": "uint256"
        }
      ],
      "stateMutability": "view",
      "type": "function"
    },
    {
      "inputs": [
        {
          "internalType": "bytes32",
          "name": "commitment",
          "type": "bytes32"
        }
      ],
      "name": "getAnchor",
      "outputs": [
        {
          "components": [
            {
              "internalType": "bytes32",
              "name": "commitment",
              "type": "bytes32"
            },
            {
              "internalType": "address",
              "name": "provider",
              "type": "address"
            },
            {
              "internalType": "string",
              "name": "ipfsCID",
              "type": "string"
            },
            {
              "internalType": "uint256",
              "name": "anchoredAt",
              "type": "uint256"
            },
            {
              "internalType": "uint256",
              "name": "fvmTimestamp",
              "type": "uint256"
            }
          ],
          "internalType": "struct ProofAnchor.AnchoredProof",
          "name": "",
          "type": "tuple"
        }
      ],
      "stateMutability": "view",
      "type": "function"
    },
    {
      "inputs": [
        {
          "internalType": "bytes32",
          "name": "commitment",
          "type": "bytes32"
        }
      ],
      "name": "isAnchored",
      "outputs": [
        {
          "internalType": "bool",
          "name": "",
          "type": "bool"
        }
      ],
      "stateMutability": "view",
      "type": "function"
    },
    {
      "inputs": [],
      "name": "owner",
      "outputs": [
        {
          "internalType": "address",
          "name": "",
          "type": "address"
        }
      ],
      "stateMutability": "view",
      "type": "function"
    },
    {
      "inputs": [],
      "name": "relayer",
      "outputs": [
        {
          "internalType": "address",
          "name": "",
          "type": "address"
        }
      ],
      "stateMutability": "view",
      "type": "function"
    },
    {
      "inputs": [],
      "name": "renounceOwnership",
      "outputs": [],
      "stateMutability": "nonpayable",
      "type": "function"
    },
    {
      "inputs": [
        {
          "internalType": "address",
          "name": "_relayer",
          "type": "address"
        }
      ],
      "name": "setRelayer",
      "outputs": [],
      "stateMutability": "nonpayable",
      "type": "function"
    },
    {
      "inputs": [],
      "name": "totalAnchored",
      "outputs": [
        {
          "internalType": "uint256",
          "name": "",
          "type": "uint256"
        }
      ],
      "stateMutability": "view",
      "type": "function"
    },
    {
      "inputs": [
        {
          "internalType": "address",
          "name": "newOwner",
          "type": "address"
        }
      ],
      "name": "transferOwnership",
      "outputs": [],
      "stateMutability": "nonpayable",
      "type": "function"
    }
  ],
  "bytecode": "0x6080346100c657601f610ac338819003918201601f19168301916001600160401b038311848410176100cb578084926020946040528339810103126100c657516001600160a01b0390818116908190036100c65733156100ad5760005460018060a01b0319903382821617600055604051933391167f8be0079c531659141344cd1fd0a4f28419497f9722a3daafe3b4186f6b6457e0600080a360015416176001556109e190816100e28239f35b604051631e4fbdf760e01b815260006004820152602490fd5b600080fd5b634e487b7160e01b600052604160045260246000fdfe608080604052600436101561001357600080fd5b60003560e01c9081634f0b580114610791575080634f2d8142146103c05780636548e9bc1461037d578063715018a6146103245780637feb51d91461024b57806380493b93146102135780638406c079146101ea5780638da5cb5b146101c1578063a212e36f146101a3578063b01b6d531461012b5763f2fde38b1461009857600080fd5b34610126576020366003190112610126576100b16107be565b6100b961097f565b6001600160a01b0390811690811561010d57600054826bffffffffffffffffffffffff60a01b821617600055167f8be0079c531659141344cd1fd0a4f28419497f9722a3daafe3b4186f6b6457e0600080a3005b604051631e4fbdf760e01b815260006004820152602490fd5b600080fd5b346101265760203660031901126101265760043560005260026020526040600020805460018060a01b0360018301541691610168600282016108d9565b61019460046003840154930154916040519586958652602086015260a0604086015260a08501906107d4565b91606084015260808301520390f35b34610126576000366003190112610126576020600354604051908152f35b34610126576000366003190112610126576000546040516001600160a01b039091168152602090f35b34610126576000366003190112610126576001546040516001600160a01b039091168152602090f35b34610126576020366003190112610126576004356003548110156101265761023c602091610814565b90549060031b1c604051908152f35b3461012657602080600319360112610126576000608060405161026d8161089b565b8281528284820152606060408201528260608201520152600435600052600281526040600020604051906102a08261089b565b8054825260018101546001600160a01b0390811684840190815290610313906102cb600285016108d9565b9060408601918252600460038601549560608801968752015493608087019485526040519788978189525190880152511660408601525160a0606086015260c08501906107d4565b915160808401525160a08301520390f35b346101265760003660031901126101265761033d61097f565b600080546001600160a01b0319811682556001600160a01b03167f8be0079c531659141344cd1fd0a4f28419497f9722a3daafe3b4186f6b6457e08280a3005b34610126576020366003190112610126576103966107be565b61039e61097f565b600180546001600160a01b0319166001600160a01b0392909216919091179055005b34610126576080366003190112610126576024356001600160a01b03811681036101265767ffffffffffffffff60443511610126573660236044350112156101265767ffffffffffffffff60443560040135116101265736602460443560040135604435010111610126576001546001600160a01b03163303610756576004356000526002602052600360406000200154610711576040516104618161089b565b600435815260018060a01b03821660208201526040516104916020601f19601f60443560040135011601826108b7565b6044356004810135808352906024016020830137600060206044356004013583010152604082015242606082015260643560808201526004356000526002602052604060002090805182556001820160018060a01b036020830151166bffffffffffffffffffffffff60a01b825416179055604081015180519067ffffffffffffffff8211610636576105276002850154610861565b601f81116106ca575b50602090601f83116001146106575791806004949260809460009261064c575b50508160011b916000199060031b1c19161760028501555b606081015160038501550151910155600354680100000000000000008110156106365780600161059b9201600355610814565b81549060031b90600435821b91600019901b19161790556040519060408252604435600401356040830152604435600401356024604435016060840137600060606044356004013584010152606435602083015260018060a01b0316907f81f284d4b62941679ac22fc1b5e8afea526a474ed188d27fbbdf35041698c95560043591606081601f19601f6044356004013501168101030190a3005b634e487b7160e01b600052604160045260246000fd5b015190508780610550565b90601f198316916002860160005260206000209260005b8181106106b257509260019285926080966004989610610699575b505050811b016002850155610568565b015160001960f88460031b161c19169055878080610689565b9293602060018192878601518155019501930161066e565b600285016000526020600020601f840160051c81016020851061070a575b601f830160051c820181106106fe575050610530565b600081556001016106e8565b50806106e8565b60405162461bcd60e51b815260206004820152601860248201527f416e63686f723a20616c726561647920616e63686f72656400000000000000006044820152606490fd5b60405162461bcd60e51b815260206004820152601360248201527220b731b437b91d103737ba103932b630bcb2b960691b6044820152606490fd5b34610126576020366003190112610126576020906004356000526002825260036040600020015415158152f35b600435906001600160a01b038216820361012657565b919082519283825260005b848110610800575050826000602080949584010152601f8019910116010190565b6020818301810151848301820152016107df565b60035481101561084b5760036000527fc2575a0e9e593c00f959f8c92f12db2869c3395a3b0502d05e2516446f71f85b0190600090565b634e487b7160e01b600052603260045260246000fd5b90600182811c92168015610891575b602083101461087b57565b634e487b7160e01b600052602260045260246000fd5b91607f1691610870565b60a0810190811067ffffffffffffffff82111761063657604052565b90601f8019910116810190811067ffffffffffffffff82111761063657604052565b90604051918260008254926108ed84610861565b90818452600194858116908160001461095c5750600114610919575b5050610917925003836108b7565b565b9093915060005260209081600020936000915b81831061094457505061091793508201013880610909565b8554888401850152948501948794509183019161092c565b91505061091794506020925060ff191682840152151560051b8201013880610909565b6000546001600160a01b0316330361099357565b60405163118cdaa760e01b8152336004820152602490fdfea264697066735822122061a1349e4df156dd11761809ed217787bc06ad4ee1811eb4b994e7ee85d05c2764736f6c63430008140033",
  "linkReferences": {},
  "deployedLinkReferences": {}
}