{"contracts/FraudRegistry.sol":{"FraudRegistry":{"abi":[{"inputs":[{"internalType":"address","name":"_verifier","type":"address"}],"stateMutability":"nonpayable","type":"constructor"},{"inputs":[{"internalType":"address","name":"owner","type":"address"}],"name":"OwnableInvalidOwner","type":"error"},{"inputs":[{"internalType":"address","name":"account","type":"address"}],"name":"OwnableUnauthorizedAccount","type":"error"},{"anonymous":false,"inputs":[{"indexed":true,"internalType":"bytes32","name":"commitment","type":"bytes32"},{"indexed":false,"internalType":"uint256","name":"score","type":"uint256"}],"name":"FraudCheckFailed","type":"event"},{"anonymous":false,"inputs":[{"indexed":true,"internalType":"bytes32","name":"commitment","type":"bytes32"},{"indexed":false,"internalType":"uint256","name":"score","type":"uint256"}],"name":"FraudCheckPassed","type":"event"},{"anonymous":false,"inputs":[{"indexed":true,"internalType":"address","name":"previousOwner","type":"address"},{"indexed":true,"internalType":"address","name":"newOwner","type":"address"}],"name":"OwnershipTransferred","type":"event"},{"inputs":[{"internalType":"uint256[2]","name":"pA","type":"uint256[2]"},{"internalType":"uint256[2][2]","name":"pB","type":"uint256[2][2]"},{"internalType":"uint256[2]","name":"pC","type":"uint256[2]"},{"internalType":"uint256[1]","name":"pubSignals","type":"uint256[1]"},{"internalType":"bytes32","name":"commitment","type":"bytes32"}],"name":"checkFraudProof","outputs":[{"internalType":"bool","name":"isSafe","type":"bool"}],"stateMutability":"nonpayable","type":"function"},{"inputs":[{"internalType":"bytes32","name":"","type":"bytes32"}],"name":"checks","outputs":[{"internalType":"uint256","name":"fraudScore","type":"uint256"},{"internalType":"bool","name":"isSafe","type":"bool"},{"internalType":"uint256","name":"checkedAt","type":"uint256"}],"stateMutability":"view","type":"function"},{"inputs":[{"internalType":"bytes32","name":"","type":"bytes32"}],"name":"flagged","outputs":[{"internalType":"bool","name":"","type":"bool"}],"stateMutability":"view","type":"function"},{"inputs":[],"name":"fraudThreshold","outputs":[{"internalType":"uint256","name":"","type":"uint256"}],"stateMutability":"view","type":"function"},{"inputs":[{"internalType":"bytes32","name":"commitment","type":"bytes32"}],"name":"getCheck","outputs":[{"components":[{"internalType":"uint256","name":"fraudScore","type":"uint256"},{"internalType":"bool","name":"isSafe","type":"bool"},{"internalType":"uint256","name":"checkedAt","type":"uint256"}],"internalType":"struct FraudRegistry.FraudCheck","name":"","type":"tuple"}],"stateMutability":"view","type":"function"},{"inputs":[{"internalType":"bytes32","name":"commitment","type":"bytes32"}],"name":"isFlagged","outputs":[{"internalType":"bool","name":"","type":"bool"}],"stateMutability":"view","type":"function"},{"inputs":[],"name":"owner","outputs":[{"internalType":"address","name":"","type":"address"}],"stateMutability":"view","type":"function"},{"inputs":[],"name":"renounceOwnership","outputs":[],"stateMutability":"nonpayable","type":"function"},{"inputs":[{"internalType":"uint256","name":"threshold","type":"uint256"}],"name":"setThreshold","outputs":[],"stateMutability":"nonpayable","type":"function"},{"inputs":[{"internalType":"address","name":"newOwner","type":"address"}],"name":"transferOwnership","outputs":[],"stateMutability":"nonpayable","type":"function"},{"inputs":[],"name":"verifier","outputs":[{"internalType":"contract FraudVerifier","name":"","type":"address"}],"stateMutability":"view","type":"function"}],"evm":{"bytecode":{"linkReferences":{},"object":"60a0346100d457601f61075738819003918201601f19168301916001600160401b038311848410176100d9578084926020946040528339810103126100d457516001600160a01b0390818116908190036100d45733156100bb576000543360018060a01b0319821617600055604051923391167f8be0079c531659141344cd1fd0a4f28419497f9722a3daafe3b4186f6b6457e0600080a3604b60015560805261066790816100f0823960805181818161028001526105280152f35b604051631e4fbdf760e01b815260006004820152602490fd5b600080fd5b634e487b7160e01b600052604160045260246000fdfe608060408181526004908136101561001657600080fd5b600092833560e01c90816318943e2014610557575080632b7ac3f314610513578063304156d41461012d578063401a2491146104d05780635f5b7990146104b1578063715018a6146104545780637d8b18e8146102065780638da5cb5b146101da578063960bfe041461015a578063bf2dde381461012d5763f2fde38b1461009d57600080fd5b34610129576020366003190112610129576001600160a01b03823581811693919290849003610125576100ce6105d3565b831561010f57505082546001600160a01b0319811683178455167f8be0079c531659141344cd1fd0a4f28419497f9722a3daafe3b4186f6b6457e08380a380f35b51631e4fbdf760e01b8152908101849052602490fd5b8480fd5b8280fd5b509034610129576020366003190112610129578160209360ff923581526003855220541690519015158152f35b509034610129576020366003190112610129578035916101786105d3565b6064831161018857505060015580f35b906020608492519162461bcd60e51b8352820152602660248201527f467261756452656769737472793a207468726573686f6c64206d757374206265604482015265020302d3130360d41b6064820152fd5b838234610202578160031936011261020257905490516001600160a01b039091168152602090f35b5080fd5b50829034610202576101403660031901126102025736604411610202573660c4116102025761010492368411610129576101249336851161045057843591835180966343753b4d60e01b8252858380840137604487878483015b60028310610435575091505060c4808401376020978891828680840137817f00000000000000000000000000000000000000000000000000000000000000006001600160a01b03165afa90811561042b5786916103c7575b50156103845750848391356001548110958351906102d5826105ff565b8282528382019188835260028682014281528884528187528784209251835560018301945115159460ff199560ff87835416911617905551910155876000146103485750507f75604f8f288ed87b3a2acebdf23eeffe8f8ecf7f33823ac4886ece884bb1f4c49251908152a25b51908152f35b7f0d11caa9a101083357ddaa925c9387cd2ae37693eea5762d1839d68825b38213946001916003865220918254161790558451908152a2610342565b835162461bcd60e51b8152908101869052601c60248201527f467261756452656769737472793a20696e76616c69642070726f6f66000000006044820152606490fd5b9050863d8811610424575b601f8101601f1916820167ffffffffffffffff811183821017610411578891839188528101031261040d5751801515810361040d57876102b8565b8580fd5b634e487b7160e01b885260418452602488fd5b503d6103d2565b85513d88823e3d90fd5b839495508082600194958193370193019101878a9493610260565b8380fd5b83346104ae57806003193601126104ae5761046d6105d3565b80546001600160a01b03198116825581906001600160a01b03167f8be0079c531659141344cd1fd0a4f28419497f9722a3daafe3b4186f6b6457e08280a380f35b80fd5b8382346102025781600319360112610202576020906001549051908152f35b509034610129576020366003190112610129576060928291358152600260205220805491600260ff60018401541692015491815193845215156020840152820152f35b838234610202578160031936011261020257517f00000000000000000000000000000000000000000000000000000000000000006001600160a01b03168152602090f35b84939150346104505760203660031901126104505792829181838661057d6060986105ff565b828152826020820152015235815260026020522090805161059d816105ff565b82549283825282600260ff6001840154169260208501931515845201549201918252825193845251151560208401525190820152f35b6000546001600160a01b031633036105e757565b60405163118cdaa760e01b8152336004820152602490fd5b6060810190811067ffffffffffffffff82111761061b57604052565b634e487b7160e01b600052604160045260246000fdfea2646970667358221220a01b6e5782eb98aca1e4cbab4ca35c420575f2d900b06487e4a0979b8ad24f1564736f6c63430008140033","opcodes":"PUSH1 0xA0 CALLVALUE PUSH2 0xD4 JUMPI PUSH1 0x1F PUSH2 0x757 CODESIZE DUP2 SWAP1 SUB SWAP2 DUP3 ADD PUSH1 0x1F NOT AND DUP4 ADD SWAP2 PUSH1 0x1 PUSH1 0x1 PUSH1 0x40 SHL SUB DUP4 GT DUP5 DUP5 LT OR PUSH2 0xD9 JUMPI DUP1 DUP5 SWAP3 PUSH1 0x20 SWAP5 PUSH1 0x40 MSTORE DUP4 CODECOPY DUP2 ADD SUB SLT PUSH2 0xD4 JUMPI MLOAD PUSH1 0x1 PUSH1 0x1 PUSH1 0xA0 SHL SUB SWAP1 DUP2 DUP2 AND SWAP1 DUP2 SWAP1 SUB PUSH2 0xD4 JUMPI CALLER ISZERO PUSH2 0xBB JUMPI PUSH1 0x0 SLOAD CALLER PUSH1 0x1 DUP1 PUSH1 0xA0 SHL SUB NOT DUP3 AND OR PUSH1 0x0 SSTORE PUSH1 0x40 MLOAD SWAP3 CALLER SWAP2 AND PUSH32 0x8BE0079C531659141344CD1FD0A4F28419497F9722A3DAAFE3B4186F6B6457E0 PUSH1 0x0 DUP1 LOG3 PUSH1 0x4B PUSH1 0x1 SSTORE PUSH1 0x80 MSTORE PUSH2 0x667 SWAP1 DUP2 PUSH2 0xF0 DUP3 CODECOPY PUSH1 0x80 MLOAD DUP2 DUP2 DUP2 PUSH2 0x280 ADD MSTORE PUSH2 0x528 ADD MSTORE RETURN JUMPDEST PUSH1 0x40 MLOAD PUSH4 0x1E4FBDF7 PUSH1 0xE0 SHL DUP2 MSTORE PUSH1 0x0 PUSH1 0x4 DUP3 ADD MSTORE PUSH1 0x24 SWAP1 REVERT JUMPDEST PUSH1 0x0 DUP1 REVERT JUMPDEST PUSH4 0x4E487B71 PUSH1 0xE0 SHL PUSH1 0x0 MSTORE PUSH1 0x41 PUSH1 0x4 MSTORE PUSH1 0x24 PUSH1 0x0 REVERT INVALID PUSH1 0x80 PUSH1 0x40 DUP2 DUP2 MSTORE PUSH1 0x4 SWAP1 DUP2 CALLDATASIZE LT ISZERO PUSH2 0x16 JUMPI PUSH1 0x0 DUP1 REVERT JUMPDEST PUSH1 0x0 SWAP3 DUP4 CALLDATALOAD PUSH1 0xE0 SHR SWAP1 DUP2 PUSH4 0x18943E20 EQ PUSH2 0x557 JUMPI POP DUP1 PUSH4 0x2B7AC3F3 EQ PUSH2 0x513 JUMPI DUP1 PUSH4 0x304156D4 EQ PUSH2 0x12D JUMPI DUP1 PUSH4 0x401A2491 EQ PUSH2 0x4D0 JUMPI DUP1 PUSH4 0x5F5B7990 EQ PUSH2 0x4B1 JUMPI DUP1 PUSH4 0x715018A6 EQ PUSH2 0x454 JUMPI DUP1 PUSH4 0x7D8B18E8 EQ PUSH2 0x206 JUMPI DUP1 PUSH4 0x8DA5CB5B EQ PUSH2 0x1DA JUMPI DUP1 PUSH4 0x960BFE04 EQ PUSH2 0x15A JUMPI DUP1 PUSH4 0xBF2DDE38 EQ PUSH2 0x12D JUMPI PUSH4 0xF2FDE38B EQ PUSH2 0x9D JUMPI PUSH1 0x0 DUP1 REVERT JUMPDEST CALLVALUE PUSH2 0x129 JUMPI PUSH1 0x20 CALLDATASIZE PUSH1 0x3 NOT ADD SLT PUSH2 0x129 JUMPI PUSH1 0x1 PUSH1 0x1 PUSH1 0xA0 SHL SUB DUP3 CALLDATALOAD DUP2 DUP2 AND SWAP4 SWAP2 SWAP3 SWAP1 DUP5 SWAP1 SUB PUSH2 0x125 JUMPI PUSH2 0xCE PUSH2 0x5D3 JUMP JUMPDEST DUP4 ISZERO PUSH2 0x10F JUMPI POP POP DUP3 SLOAD PUSH1 0x1 PUSH1 0x1 PUSH1 0xA0 SHL SUB NOT DUP2 AND DUP4 OR DUP5 SSTORE AND PUSH32 0x8BE0079C531659141344CD1FD0A4F28419497F9722A3DAAFE3B4186F6B6457E0 DUP4 DUP1 LOG3 DUP1 RETURN JUMPDEST MLOAD PUSH4 0x1E4FBDF7 PUSH1 0xE0 SHL DUP2 MSTORE SWAP1 DUP2 ADD DUP5 SWAP1 MSTORE PUSH1 0x24 SWAP1 REVERT JUMPDEST DUP5 DUP1 REVERT JUMPDEST DUP3 DUP1 REVERT JUMPDEST POP SWAP1 CALLVALUE PUSH2 0x129 JUMPI PUSH1 0x20 CALLDATASIZE PUSH1 0x3 NOT ADD SLT PUSH2 0x129 JUMPI DUP2 PUSH1 0x20 SWAP4 PUSH1 0xFF SWAP3 CALLDATALOAD DUP2 MSTORE PUSH1 0x3 DUP6 MSTORE KECCAK256 SLOAD AND SWAP1 MLOAD SWAP1 ISZERO ISZERO DUP2 MSTORE RETURN JUMPDEST POP SWAP1 CALLVALUE PUSH2 0x129 JUMPI PUSH1 0x20 CALLDATASIZE PUSH1 0x3 NOT ADD SLT PUSH2 0x129 JUMPI DUP1 CALLDATALOAD SWAP2 PUSH2 0x178 PUSH2 0x5D3 JUMP JUMPDEST PUSH1 0x64 DUP4 GT PUSH2 0x188 JUMPI POP POP PUSH1 0x1 SSTORE DUP1 RETURN JUMPDEST SWAP1 PUSH1 0x20 PUSH1 0x84 SWAP3 MLOAD SWAP2 PUSH3 0x461BCD PUSH1 0xE5 SHL DUP4 MSTORE DUP3 ADD MSTORE PUSH1 0x26 PUSH1 0x24 DUP3 ADD MSTORE PUSH32 0x467261756452656769737472793A207468726573686F6C64206D757374206265 PUSH1 0x44 DUP3 ADD MSTORE PUSH6 0x20302D31303 PUSH1 0xD4 SHL PUSH1 0x64 DUP3 ADD MSTORE REVERT JUMPDEST DUP4 DUP3 CALLVALUE PUSH2 0x202 JUMPI DUP2 PUSH1 0x3 NOT CALLDATASIZE ADD SLT PUSH2 0x202 JUMPI SWAP1 SLOAD SWAP1 MLOAD PUSH1 0x1 PUSH1 0x1 PUSH1 0xA0 SHL SUB SWAP1 SWAP2 AND DUP2 MSTORE PUSH1 0x20 SWAP1 RETURN JUMPDEST POP DUP1 REVERT JUMPDEST POP DUP3 SWAP1 CALLVALUE PUSH2 0x202 JUMPI PUSH2 0x140 CALLDATASIZE PUSH1 0x3 NOT ADD SLT PUSH2 0x202 JUMPI CALLDATASIZE PUSH1 0x44 GT PUSH2 0x202 JUMPI CALLDATASIZE PUSH1 0xC4 GT PUSH2 0x202 JUMPI PUSH2 0x104 SWAP3 CALLDATASIZE DUP5 GT PUSH2 0x129 JUMPI PUSH2 0x124 SWAP4 CALLDATASIZE DUP6 GT PUSH2 0x450 JUMPI DUP5 CALLDATALOAD SWAP2 DUP4 MLOAD DUP1 SWAP7 PUSH4 0x43753B4D PUSH1 0xE0 SHL DUP3 MSTORE DUP6 DUP4 DUP1 DUP5 ADD CALLDATACOPY PUSH1 0x44 DUP8 DUP8 DUP5 DUP4 ADD JUMPDEST PUSH1 0x2 DUP4 LT PUSH2 0x435 JUMPI POP SWAP2 POP POP PUSH1 0xC4 DUP1 DUP5 ADD CALLDATACOPY PUSH1 0x20 SWAP8 DUP9 SWAP2 DUP3 DUP7 DUP1 DUP5 ADD CALLDATACOPY DUP2 PUSH32 0x0 PUSH1 0x1 PUSH1 0x1 PUSH1 0xA0 SHL SUB AND GAS STATICCALL SWAP1 DUP2 ISZERO PUSH2 0x42B JUMPI DUP7 SWAP2 PUSH2 0x3C7 JUMPI JUMPDEST POP ISZERO PUSH2 0x384 JUMPI POP DUP5 DUP4 SWAP2 CALLDATALOAD PUSH1 0x1 SLOAD DUP2 LT SWAP6 DUP4 MLOAD SWAP1 PUSH2 0x2D5 DUP3 PUSH2 0x5FF JUMP JUMPDEST DUP3 DUP3 MSTORE DUP4 DUP3 ADD SWAP2 DUP9 DUP4 MSTORE PUSH1 0x2 DUP7 DUP3 ADD TIMESTAMP DUP2 MSTORE DUP9 DUP5 MSTORE DUP2 DUP8 MSTORE DUP8 DUP5 KECCAK256 SWAP3 MLOAD DUP4 SSTORE PUSH1 0x1 DUP4 ADD SWAP5 MLOAD ISZERO ISZERO SWAP5 PUSH1 0xFF NOT SWAP6 PUSH1 0xFF DUP8 DUP4 SLOAD AND SWAP2 AND OR SWAP1 SSTORE MLOAD SWAP2 ADD SSTORE DUP8 PUSH1 0x0 EQ PUSH2 0x348 JUMPI POP POP PUSH32 0x75604F8F288ED87B3A2ACEBDF23EEFFE8F8ECF7F33823AC4886ECE884BB1F4C4 SWAP3 MLOAD SWAP1 DUP2 MSTORE LOG2 JUMPDEST MLOAD SWAP1 DUP2 MSTORE RETURN JUMPDEST PUSH32 0xD11CAA9A101083357DDAA925C9387CD2AE37693EEA5762D1839D68825B38213 SWAP5 PUSH1 0x1 SWAP2 PUSH1 0x3 DUP7 MSTORE KECCAK256 SWAP2 DUP3 SLOAD AND OR SWAP1 SSTORE DUP5 MLOAD SWAP1 DUP2 MSTORE LOG2 PUSH2 0x342 JUMP JUMPDEST DUP4 MLOAD PUSH3 0x461BCD PUSH1 0xE5 SHL DUP2 MSTORE SWAP1 DUP2 ADD DUP7 SWAP1 MSTORE PUSH1 0x1C PUSH1 0x24 DUP3 ADD MSTORE PUSH32 0x467261756452656769737472793A20696E76616C69642070726F6F6600000000 PUSH1 0x44 DUP3 ADD MSTORE PUSH1 0x64 SWAP1 REVERT JUMPDEST SWAP1 POP DUP7 RETURNDATASIZE DUP9 GT PUSH2 0x424 JUMPI JUMPDEST PUSH1 0x1F DUP2 ADD PUSH1 0x1F NOT AND DUP3 ADD PUSH8 0xFFFFFFFFFFFFFFFF DUP2 GT DUP4 DUP3 LT OR PUSH2 0x411 JUMPI DUP9 SWAP2 DUP4 SWAP2 DUP9 MSTORE DUP2 ADD SUB SLT PUSH2 0x40D JUMPI MLOAD DUP1 ISZERO ISZERO DUP2 SUB PUSH2 0x40D JUMPI DUP8 PUSH2 0x2B8 JUMP JUMPDEST DUP6 DUP1 REVERT JUMPDEST PUSH4 0x4E487B71 PUSH1 0xE0 SHL DUP9 MSTORE PUSH1 0x41 DUP5 MSTORE PUSH1 0x24 DUP9 REVERT JUMPDEST POP RETURNDATASIZE PUSH2 0x3D2 JUMP JUMPDEST DUP6 MLOAD RETURNDATASIZE DUP9 DUP3 RETURNDATACOPY RETURNDATASIZE SWAP1 REVERT JUMPDEST DUP4 SWAP5 SWAP6 POP DUP1 DUP3 PUSH1 0x1 SWAP5 SWAP6 DUP2 SWAP4 CALLDATACOPY ADD SWAP4 ADD SWAP2 ADD DUP8 DUP11 SWAP5 SWAP4 PUSH2 0x260 JUMP JUMPDEST DUP4 DUP1 REVERT JUMPDEST DUP4 CALLVALUE PUSH2 0x4AE JUMPI DUP1 PUSH1 0x3 NOT CALLDATASIZE ADD SLT PUSH2 0x4AE JUMPI PUSH2 0x46D PUSH2 0x5D3 JUMP JUMPDEST DUP1 SLOAD PUSH1 0x1 PUSH1 0x1 PUSH1 0xA0 SHL SUB NOT DUP2 AND DUP3 SSTORE DUP2 SWAP1 PUSH1 0x1 PUSH1 0x1 PUSH1 0xA0 SHL SUB AND PUSH32 0x8BE0079C531659141344CD1FD0A4F28419497F9722A3DAAFE3B4186F6B6457E0 DUP3 DUP1 LOG3 DUP1 RETURN JUMPDEST DUP1 REVERT JUMPDEST DUP4 DUP3 CALLVALUE PUSH2 0x202 JUMPI DUP2 PUSH1 0x3 NOT CALLDATASIZE ADD SLT PUSH2 0x202 JUMPI PUSH1 0x20 SWAP1 PUSH1 0x1 SLOAD SWAP1 MLOAD SWAP1 DUP2 MSTORE RETURN JUMPDEST POP SWAP1 CALLVALUE PUSH2 0x129 JUMPI PUSH1 0x20 CALLDATASIZE PUSH1 0x3 NOT ADD SLT PUSH2 0x129 JUMPI PUSH1 0x60 SWAP3 DUP3 SWAP2 CALLDATALOAD DUP2 MSTORE PUSH1 0x2 PUSH1 0x20 MSTORE KECCAK256 DUP1 SLOAD SWAP2 PUSH1 0x2 PUSH1 0xFF PUSH1 0x1 DUP5 ADD SLOAD AND SWAP3 ADD SLOAD SWAP2 DUP2 MLOAD SWAP4 DUP5 MSTORE ISZERO ISZERO PUSH1 0x20 DUP5 ADD MSTORE DUP3 ADD MSTORE RETURN JUMPDEST DUP4 DUP3 CALLVALUE PUSH2 0x202 JUMPI DUP2 PUSH1 0x3 NOT CALLDATASIZE ADD SLT PUSH2 0x202 JUMPI MLOAD PUSH32 0x0 PUSH1 0x1 PUSH1 0x1 PUSH1 0xA0 SHL SUB AND DUP2 MSTORE PUSH1 0x20 SWAP1 RETURN JUMPDEST DUP5 SWAP4 SWAP2 POP CALLVALUE PUSH2 0x450 JUMPI PUSH1 0x20 CALLDATASIZE PUSH1 0x3 NOT ADD SLT PUSH2 0x450 JUMPI SWAP3 DUP3 SWAP2 DUP2 DUP4 DUP7 PUSH2 0x57D PUSH1 0x60 SWAP9 PUSH2 0x5FF JUMP JUMPDEST DUP3 DUP2 MSTORE DUP3 PUSH1 0x20 DUP3 ADD MSTORE ADD MSTORE CALLDATALOAD DUP2 MSTORE PUSH1 0x2 PUSH1 0x20 MSTORE KECCAK256 SWAP1 DUP1 MLOAD PUSH2 0x59D DUP2 PUSH2 0x5FF JUMP JUMPDEST DUP3 SLOAD SWAP3 DUP4 DUP3 MSTORE DUP3 PUSH1 0x2 PUSH1 0xFF PUSH1 0x1 DUP5 ADD SLOAD AND SWAP3 PUSH1 0x20 DUP6 ADD SWAP4 ISZERO ISZERO DUP5 MSTORE ADD SLOAD SWAP3 ADD SWAP2 DUP3 MSTORE DUP3 MLOAD SWAP4 DUP5 MSTORE MLOAD ISZERO ISZERO PUSH1 0x20 DUP5 ADD MSTORE MLOAD SWAP1 DUP3 ADD MSTORE RETURN JUMPDEST PUSH1 0x0 SLOAD PUSH1 0x1 PUSH1 0x1 PUSH1 0xA0 SHL SUB AND CALLER SUB PUSH2 0x5E7 JUMPI JUMP JUMPDEST PUSH1 0x40 MLOAD PUSH4 0x118CDAA7 PUSH1 0xE0 SHL DUP2 MSTORE CALLER PUSH1 0x4 DUP3 ADD MSTORE PUSH1 0x24 SWAP1 REVERT JUMPDEST PUSH1 0x60 DUP2 ADD SWAP1 DUP2 LT PUSH8 0xFFFFFFFFFFFFFFFF DUP3 GT OR PUSH2 0x61B JUMPI PUSH1 0x40 MSTORE JUMP JUMPDEST PUSH4 0x4E487B71 PUSH1 0xE0 SHL PUSH1 0x0 MSTORE PUSH1 0x41 PUSH1 0x4 MSTORE PUSH1 0x24 PUSH1 0x0 REVERT INVALID LOG2 PUSH5 0x6970667358 0x22 SLT KECCAK256 LOG0 SHL PUSH15 0x5782EB98ACA1E4CBAB4CA35C420575 CALLCODE 0xD9 STOP 0xB0 PUSH5 0x87E4A0979B DUP11 0xD2 0x4F ISZERO PUSH5 0x736F6C6343 STOP ADDMOD EQ STOP CALLER "},"methodIdentifiers":{"checkFraudProof(uint256[2],uint256[2][2],uint256[2],uint256[1],bytes32)":"7d8b18e8","checks(bytes32)":"401a2491","flagged(bytes32)":"304156d4","fraudThreshold()":"5f5b7990","getCheck(bytes32)":"18943e20","isFlagged(bytes32)":"bf2dde38","owner()":"8da5cb5b","renounceOwnership()":"715018a6","setThreshold(uint256)":"960bfe04","transferOwnership(address)":"f2fde38b","verifier()":"2b7ac3f3"}}}}}