{"contracts/PPTPaymentController.sol":{"PPTPaymentController":{"abi":[{"inputs":[{"internalType":"address","name":"_pptToken","type":"address"},{"internalType":"address","name":"_treasury","type":"address"}],"stateMutability":"nonpayable","type":"constructor"},{"inputs":[{"internalType":"address","name":"owner","type":"address"}],"name":"OwnableInvalidOwner","type":"error"},{"inputs":[{"internalType":"address","name":"account","type":"address"}],"name":"OwnableUnauthorizedAccount","type":"error"},{"inputs":[],"name":"ReentrancyGuardReentrantCall","type":"error"},{"anonymous":false,"inputs":[{"indexed":true,"internalType":"address","name":"provider","type":"address"},{"indexed":false,"internalType":"uint256","name":"amount","type":"uint256"},{"indexed":false,"internalType":"string","name":"reason","type":"string"}],"name":"FeePaid","type":"event"},{"anonymous":false,"inputs":[{"indexed":false,"internalType":"string","name":"feeType","type":"string"},{"indexed":false,"internalType":"uint256","name":"newAmount","type":"uint256"}],"name":"FeeUpdated","type":"event"},{"anonymous":false,"inputs":[{"indexed":true,"internalType":"address","name":"previousOwner","type":"address"},{"indexed":true,"internalType":"address","name":"newOwner","type":"address"}],"name":"OwnershipTransferred","type":"event"},{"anonymous":false,"inputs":[{"indexed":true,"internalType":"address","name":"provider","type":"address"},{"indexed":false,"internalType":"enum PPTPaymentController.Plan","name":"plan","type":"uint8"},{"indexed":false,"internalType":"uint256","name":"expiresAt","type":"uint256"}],"name":"SubscriptionPurchased","type":"event"},{"inputs":[{"internalType":"address","name":"","type":"address"}],"name":"authorisedCallers","outputs":[{"internalType":"bool","name":"","type":"bool"}],"stateMutability":"view","type":"function"},{"inputs":[],"name":"basicPlanFee","outputs":[{"internalType":"uint256","name":"","type":"uint256"}],"stateMutability":"view","type":"function"},{"inputs":[{"internalType":"address","name":"provider","type":"address"}],"name":"collectInvoiceFee","outputs":[],"stateMutability":"nonpayable","type":"function"},{"inputs":[],"name":"enterprisePlanFee","outputs":[{"internalType":"uint256","name":"","type":"uint256"}],"stateMutability":"view","type":"function"},{"inputs":[{"internalType":"address","name":"provider","type":"address"}],"name":"getSubscription","outputs":[{"internalType":"enum PPTPaymentController.Plan","name":"plan","type":"uint8"},{"internalType":"uint256","name":"expiresAt","type":"uint256"},{"internalType":"uint256","name":"invoicesUsed","type":"uint256"},{"internalType":"uint256","name":"invoiceLimit","type":"uint256"}],"stateMutability":"view","type":"function"},{"inputs":[{"internalType":"address","name":"provider","type":"address"}],"name":"hasActiveAccess","outputs":[{"internalType":"bool","name":"","type":"bool"}],"stateMutability":"view","type":"function"},{"inputs":[],"name":"invoiceSubmissionFee","outputs":[{"internalType":"uint256","name":"","type":"uint256"}],"stateMutability":"view","type":"function"},{"inputs":[],"name":"owner","outputs":[{"internalType":"address","name":"","type":"address"}],"stateMutability":"view","type":"function"},{"inputs":[],"name":"pptToken","outputs":[{"internalType":"contract IERC20","name":"","type":"address"}],"stateMutability":"view","type":"function"},{"inputs":[],"name":"proPlanFee","outputs":[{"internalType":"uint256","name":"","type":"uint256"}],"stateMutability":"view","type":"function"},{"inputs":[{"internalType":"enum PPTPaymentController.Plan","name":"plan","type":"uint8"}],"name":"purchaseSubscription","outputs":[],"stateMutability":"nonpayable","type":"function"},{"inputs":[],"name":"renounceOwnership","outputs":[],"stateMutability":"nonpayable","type":"function"},{"inputs":[{"internalType":"address","name":"caller","type":"address"},{"internalType":"bool","name":"allowed","type":"bool"}],"name":"setAuthorisedCaller","outputs":[],"stateMutability":"nonpayable","type":"function"},{"inputs":[{"internalType":"uint256","name":"newFee","type":"uint256"}],"name":"setInvoiceFee","outputs":[],"stateMutability":"nonpayable","type":"function"},{"inputs":[{"internalType":"address","name":"newTreasury","type":"address"}],"name":"setTreasury","outputs":[],"stateMutability":"nonpayable","type":"function"},{"inputs":[{"internalType":"address","name":"","type":"address"}],"name":"subscriptions","outputs":[{"internalType":"enum PPTPaymentController.Plan","name":"plan","type":"uint8"},{"internalType":"uint256","name":"expiresAt","type":"uint256"},{"internalType":"uint256","name":"invoicesUsed","type":"uint256"},{"internalType":"uint256","name":"invoiceLimit","type":"uint256"}],"stateMutability":"view","type":"function"},{"inputs":[{"internalType":"address","name":"newOwner","type":"address"}],"name":"transferOwnership","outputs":[],"stateMutability":"nonpayable","type":"function"},{"inputs":[],"name":"treasury","outputs":[{"internalType":"address","name":"","type":"address"}],"stateMutability":"view","type":"function"}],"evm":{"bytecode":{"linkReferences":{},"object":"60a03461015157601f610ea538819003918201601f19168301916001600160401b0383118484101761015657808492604094855283398101031261015157610052602061004b8361016c565b920161016c565b33156101385760008054336001600160a01b0319808316821784556040519590946001600160a01b03949093859391908416907f8be0079c531659141344cd1fd0a4f28419497f9722a3daafe3b4186f6b6457e09080a360017f9b779b17422d0df92223018b32b4d1fa46e071723d6817e2486d003becc55f0055678ac7230489e8000060015568056bc75e2d63100000600255681b1ae4d6e2ef500000600355686c6b935b8bbd4000006004551660805216906005541617600555610d24908161018182396080518181816102be0152818161065b015281816109ec0152610c4a0152f35b604051631e4fbdf760e01b815260006004820152602490fd5b600080fd5b634e487b7160e01b600052604160045260246000fd5b51906001600160a01b03821682036101515756fe608060408181526004918236101561001657600080fd5b600092833560e01c9182630cbebc241461083d575081632e89bd89146107eb5781633cd60fb41461076957816361d027b314610740578163652d5adc146107225781636595802814610703578163715018a6146106a957816373c8121e1461068a5781637b5b50e7146106465781638da5cb5b1461061e578163944fd180146105e0578163ab82409414610524578163c5948043146104f5578163cbc5c59214610237578163f046395a146101df578163f0f4426014610197578163f2fde38b1461010c575063fca95eea146100eb57600080fd5b346101085781600319360112610108576020906001549051908152f35b5080fd5b9050346101935760203660031901126101935761012761088e565b906101306108ef565b6001600160a01b0391821692831561017d57505082546001600160a01b0319811683178455167f8be0079c531659141344cd1fd0a4f28419497f9722a3daafe3b4186f6b6457e08380a380f35b51631e4fbdf760e01b8152908101849052602490fd5b8280fd5b83346101dc5760203660031901126101dc576101b161088e565b6101b96108ef565b60018060a01b03166bffffffffffffffffffffffff60a01b600554161760055580f35b80fd5b505034610108576020366003190112610108579081906001600160a01b0361020561088e565b1681526006602052209061023360ff83541691600184015493600360028201549101549151948594856108cc565b0390f35b838334610108576020908160031936011261019357833591848310156104f15761025f610bb2565b82156104bb5783906001840361049157600254916102ba826032945b60055487516323b872dd60e01b815233818d019081526001600160a01b039283166020820152604081019390935293849283918c918391606090910190565b03927f0000000000000000000000000000000000000000000000000000000000000000165af190811561048757879161045a575b50156104195762278d00420192834211610406578451916080830183811067ffffffffffffffff8211176103f35786526103e05785825282820184815285830190888252606084019283523389526006855286892093518a8110156103cd577fcb1d9e2f1ade80c30cd5a94cc785e4e0fe02c9733ab244988d4a57bd30e7123198999a5090600393929160ff80198754169116178555516001850155516002840155519101556103a0835180966108a9565b8401523392a260017f9b779b17422d0df92223018b32b4d1fa46e071723d6817e2486d003becc55f005580f35b634e487b7160e01b8a5260218b5260248afd5b634e487b7160e01b875260218852602487fd5b634e487b7160e01b895260418a52602489fd5b634e487b7160e01b875260118852602487fd5b606487838087519262461bcd60e51b845283015260248201527f5050543a20737562736372697074696f6e207061796d656e74206661696c65646044820152fd5b61047a9150833d8511610480575b610472818361091b565b810190610953565b886102ee565b503d610468565b85513d89823e3d90fd5b849150600284036104ad57600354916102ba8261012c9461027b565b8554916102ba82879461027b565b8490606492519162461bcd60e51b8352820152601160248201527028282a1d1034b73b30b634b210383630b760791b6044820152fd5b8380fd5b5050346101085760203660031901126101085760209061051b61051661088e565b610bf4565b90519015158152f35b9050346101935760203660031901126101935761053f61088e565b91338452600760205260ff818520541680156105cd575b15610594578361056d84610568610bb2565b61096b565b60017f9b779b17422d0df92223018b32b4d1fa46e071723d6817e2486d003becc55f005580f35b906020606492519162461bcd60e51b835282015260136024820152721414150e881b9bdd08185d5d1a1bdc9a5cd959606a1b6044820152fd5b5083546001600160a01b03163314610556565b5050346101085760203660031901126101085760209160ff9082906001600160a01b0361060b61088e565b1681526007855220541690519015158152f35b505034610108578160031936011261010857905490516001600160a01b039091168152602090f35b505034610108578160031936011261010857517f00000000000000000000000000000000000000000000000000000000000000006001600160a01b03168152602090f35b5050346101085781600319360112610108576020906002549051908152f35b83346101dc57806003193601126101dc576106c26108ef565b80546001600160a01b03198116825581906001600160a01b03167f8be0079c531659141344cd1fd0a4f28419497f9722a3daafe3b4186f6b6457e08280a380f35b5050346101085781600319360112610108576020906003549051908152f35b90503461019357826003193601126101935760209250549051908152f35b50503461010857816003193601126101085760055490516001600160a01b039091168152602090f35b905034610193576020366003190112610193577fc5dbbc1a39078c6d41f75645288952af1adce3154214371d76e7735665642453916107df91356107ab6108ef565b8060015581519282849384528301604090601281527134b73b37b4b1b2afb9bab136b4b9b9b4b7b760711b60208201520190565b9060208301520390a180f35b50503461010857806003193601126101085761080561088e565b90602435918215158093036104f15761081c6108ef565b60018060a01b03168352600760205282209060ff8019835416911617905580f35b849084346101935760203660031901126101935790918291610233916001600160a01b0361086961088e565b16815260066020522060ff8154169060018101546003600283015492015492856108cc565b600435906001600160a01b03821682036108a457565b600080fd5b9060048210156108b65752565b634e487b7160e01b600052602160045260246000fd5b909493926060926108e18360808101986108a9565b602083015260408201520152565b6000546001600160a01b0316330361090357565b60405163118cdaa760e01b8152336004820152602490fd5b90601f8019910116810190811067ffffffffffffffff82111761093d57604052565b634e487b7160e01b600052604160045260246000fd5b908160209103126108a4575180151581036108a45790565b60018060a01b0380821691600091838352602092600684526040928382209260ff8454169360049485811015610b9f57151580610b92575b610aed575060055460015486516323b872dd60e01b81526001600160a01b03948516878201908152928416909416602083015260408201528691839182908690829060600103927f0000000000000000000000000000000000000000000000000000000000000000165af1918215610ae25791610ac5575b5015610a845750907f3e3d11fed2579ab23676d30f4893a503a2a74a2d3610026a21a83c39e2a85e2e91610a7f6001549180805194859485528401528201604090601281527134b73b37b4b1b2afb9bab136b4b9b9b4b7b760711b60208201520190565b0390a2565b82606492519162461bcd60e51b8352820152601860248201527f5050543a20666565207472616e73666572206661696c656400000000000000006044820152fd5b610adc9150843d861161048057610472818361091b565b38610a1b565b8451903d90823e3d90fd5b9592949650505060038401549384610b08575b505050505050565b60020194855494851015610b465750506000198314610b335750506001019055388080808080610b00565b634e487b7160e01b825260119052602490fd5b5162461bcd60e51b815291820152602260248201527f5050543a206d6f6e74686c7920696e766f696365206c696d6974207265616368604482015261195960f21b606482015260849150fd5b50600181015442106109a3565b634e487b7160e01b855260218652602485fd5b7f9b779b17422d0df92223018b32b4d1fa46e071723d6817e2486d003becc55f006002815414610be25760029055565b604051633ee5aeb560e01b8152600490fd5b6001600160a01b03908116600081815260066020526040812080549193929160ff166004811015610cda5715159081610ccc575b50610cc4576020906024604051809481936370a0823160e01b835260048301527f0000000000000000000000000000000000000000000000000000000000000000165afa918215610cb8578092610c84575b5050600154111590565b9091506020823d8211610cb0575b81610c9f6020938361091b565b810103126101dc5750513880610c7a565b3d9150610c92565b604051903d90823e3d90fd5b505050600190565b600191500154421038610c28565b634e487b7160e01b85526021600452602485fdfea2646970667358221220cabf12e6dd8d72619caf2e1fb6e44c82d689940d066130bee6890132076601f464736f6c63430008140033","opcodes":"PUSH1 0xA0 CALLVALUE PUSH2 0x151 JUMPI PUSH1 0x1F PUSH2 0xEA5 CODESIZE DUP2 SWAP1 SUB SWAP2 DUP3 ADD PUSH1 0x1F NOT AND DUP4 ADD SWAP2 PUSH1 0x1 PUSH1 0x1 PUSH1 0x40 SHL SUB DUP4 GT DUP5 DUP5 LT OR PUSH2 0x156 JUMPI DUP1 DUP5 SWAP3 PUSH1 0x40 SWAP5 DUP6 MSTORE DUP4 CODECOPY DUP2 ADD SUB SLT PUSH2 0x151 JUMPI PUSH2 0x52 PUSH1 0x20 PUSH2 0x4B DUP4 PUSH2 0x16C JUMP JUMPDEST SWAP3 ADD PUSH2 0x16C JUMP JUMPDEST CALLER ISZERO PUSH2 0x138 JUMPI PUSH1 0x0 DUP1 SLOAD CALLER PUSH1 0x1 PUSH1 0x1 PUSH1 0xA0 SHL SUB NOT DUP1 DUP4 AND DUP3 OR DUP5 SSTORE PUSH1 0x40 MLOAD SWAP6 SWAP1 SWAP5 PUSH1 0x1 PUSH1 0x1 PUSH1 0xA0 SHL SUB SWAP5 SWAP1 SWAP4 DUP6 SWAP4 SWAP2 SWAP1 DUP5 AND SWAP1 PUSH32 0x8BE0079C531659141344CD1FD0A4F28419497F9722A3DAAFE3B4186F6B6457E0 SWAP1 DUP1 LOG3 PUSH1 0x1 PUSH32 0x9B779B17422D0DF92223018B32B4D1FA46E071723D6817E2486D003BECC55F00 SSTORE PUSH8 0x8AC7230489E80000 PUSH1 0x1 SSTORE PUSH9 0x56BC75E2D63100000 PUSH1 0x2 SSTORE PUSH9 0x1B1AE4D6E2EF500000 PUSH1 0x3 SSTORE PUSH9 0x6C6B935B8BBD400000 PUSH1 0x4 SSTORE AND PUSH1 0x80 MSTORE AND SWAP1 PUSH1 0x5 SLOAD AND OR PUSH1 0x5 SSTORE PUSH2 0xD24 SWAP1 DUP2 PUSH2 0x181 DUP3 CODECOPY PUSH1 0x80 MLOAD DUP2 DUP2 DUP2 PUSH2 0x2BE ADD MSTORE DUP2 DUP2 PUSH2 0x65B ADD MSTORE DUP2 DUP2 PUSH2 0x9EC ADD MSTORE PUSH2 0xC4A ADD MSTORE RETURN JUMPDEST PUSH1 0x40 MLOAD PUSH4 0x1E4FBDF7 PUSH1 0xE0 SHL DUP2 MSTORE PUSH1 0x0 PUSH1 0x4 DUP3 ADD MSTORE PUSH1 0x24 SWAP1 REVERT JUMPDEST PUSH1 0x0 DUP1 REVERT JUMPDEST PUSH4 0x4E487B71 PUSH1 0xE0 SHL PUSH1 0x0 MSTORE PUSH1 0x41 PUSH1 0x4 MSTORE PUSH1 0x24 PUSH1 0x0 REVERT JUMPDEST MLOAD SWAP1 PUSH1 0x1 PUSH1 0x1 PUSH1 0xA0 SHL SUB DUP3 AND DUP3 SUB PUSH2 0x151 JUMPI JUMP INVALID PUSH1 0x80 PUSH1 0x40 DUP2 DUP2 MSTORE PUSH1 0x4 SWAP2 DUP3 CALLDATASIZE LT ISZERO PUSH2 0x16 JUMPI PUSH1 0x0 DUP1 REVERT JUMPDEST PUSH1 0x0 SWAP3 DUP4 CALLDATALOAD PUSH1 0xE0 SHR SWAP2 DUP3 PUSH4 0xCBEBC24 EQ PUSH2 0x83D JUMPI POP DUP2 PUSH4 0x2E89BD89 EQ PUSH2 0x7EB JUMPI DUP2 PUSH4 0x3CD60FB4 EQ PUSH2 0x769 JUMPI DUP2 PUSH4 0x61D027B3 EQ PUSH2 0x740 JUMPI DUP2 PUSH4 0x652D5ADC EQ PUSH2 0x722 JUMPI DUP2 PUSH4 0x65958028 EQ PUSH2 0x703 JUMPI DUP2 PUSH4 0x715018A6 EQ PUSH2 0x6A9 JUMPI DUP2 PUSH4 0x73C8121E EQ PUSH2 0x68A JUMPI DUP2 PUSH4 0x7B5B50E7 EQ PUSH2 0x646 JUMPI DUP2 PUSH4 0x8DA5CB5B EQ PUSH2 0x61E JUMPI DUP2 PUSH4 0x944FD180 EQ PUSH2 0x5E0 JUMPI DUP2 PUSH4 0xAB824094 EQ PUSH2 0x524 JUMPI DUP2 PUSH4 0xC5948043 EQ PUSH2 0x4F5 JUMPI DUP2 PUSH4 0xCBC5C592 EQ PUSH2 0x237 JUMPI DUP2 PUSH4 0xF046395A EQ PUSH2 0x1DF JUMPI DUP2 PUSH4 0xF0F44260 EQ PUSH2 0x197 JUMPI DUP2 PUSH4 0xF2FDE38B EQ PUSH2 0x10C JUMPI POP PUSH4 0xFCA95EEA EQ PUSH2 0xEB JUMPI PUSH1 0x0 DUP1 REVERT JUMPDEST CALLVALUE PUSH2 0x108 JUMPI DUP2 PUSH1 0x3 NOT CALLDATASIZE ADD SLT PUSH2 0x108 JUMPI PUSH1 0x20 SWAP1 PUSH1 0x1 SLOAD SWAP1 MLOAD SWAP1 DUP2 MSTORE RETURN JUMPDEST POP DUP1 REVERT JUMPDEST SWAP1 POP CALLVALUE PUSH2 0x193 JUMPI PUSH1 0x20 CALLDATASIZE PUSH1 0x3 NOT ADD SLT PUSH2 0x193 JUMPI PUSH2 0x127 PUSH2 0x88E JUMP JUMPDEST SWAP1 PUSH2 0x130 PUSH2 0x8EF JUMP JUMPDEST PUSH1 0x1 PUSH1 0x1 PUSH1 0xA0 SHL SUB SWAP2 DUP3 AND SWAP3 DUP4 ISZERO PUSH2 0x17D JUMPI POP POP DUP3 SLOAD PUSH1 0x1 PUSH1 0x1 PUSH1 0xA0 SHL SUB NOT DUP2 AND DUP4 OR DUP5 SSTORE AND PUSH32 0x8BE0079C531659141344CD1FD0A4F28419497F9722A3DAAFE3B4186F6B6457E0 DUP4 DUP1 LOG3 DUP1 RETURN JUMPDEST MLOAD PUSH4 0x1E4FBDF7 PUSH1 0xE0 SHL DUP2 MSTORE SWAP1 DUP2 ADD DUP5 SWAP1 MSTORE PUSH1 0x24 SWAP1 REVERT JUMPDEST DUP3 DUP1 REVERT JUMPDEST DUP4 CALLVALUE PUSH2 0x1DC JUMPI PUSH1 0x20 CALLDATASIZE PUSH1 0x3 NOT ADD SLT PUSH2 0x1DC JUMPI PUSH2 0x1B1 PUSH2 0x88E JUMP JUMPDEST PUSH2 0x1B9 PUSH2 0x8EF JUMP JUMPDEST PUSH1 0x1 DUP1 PUSH1 0xA0 SHL SUB AND PUSH12 0xFFFFFFFFFFFFFFFFFFFFFFFF PUSH1 0xA0 SHL PUSH1 0x5 SLOAD AND OR PUSH1 0x5 SSTORE DUP1 RETURN JUMPDEST DUP1 REVERT JUMPDEST POP POP CALLVALUE PUSH2 0x108 JUMPI PUSH1 0x20 CALLDATASIZE PUSH1 0x3 NOT ADD SLT PUSH2 0x108 JUMPI SWAP1 DUP2 SWAP1 PUSH1 0x1 PUSH1 0x1 PUSH1 0xA0 SHL SUB PUSH2 0x205 PUSH2 0x88E JUMP JUMPDEST AND DUP2 MSTORE PUSH1 0x6 PUSH1 0x20 MSTORE KECCAK256 SWAP1 PUSH2 0x233 PUSH1 0xFF DUP4 SLOAD AND SWAP2 PUSH1 0x1 DUP5 ADD SLOAD SWAP4 PUSH1 0x3 PUSH1 0x2 DUP3 ADD SLOAD SWAP2 ADD SLOAD SWAP2 MLOAD SWAP5 DUP6 SWAP5 DUP6 PUSH2 0x8CC JUMP JUMPDEST SUB SWAP1 RETURN JUMPDEST DUP4 DUP4 CALLVALUE PUSH2 0x108 JUMPI PUSH1 0x20 SWAP1 DUP2 PUSH1 0x3 NOT CALLDATASIZE ADD SLT PUSH2 0x193 JUMPI DUP4 CALLDATALOAD SWAP2 DUP5 DUP4 LT ISZERO PUSH2 0x4F1 JUMPI PUSH2 0x25F PUSH2 0xBB2 JUMP JUMPDEST DUP3 ISZERO PUSH2 0x4BB JUMPI DUP4 SWAP1 PUSH1 0x1 DUP5 SUB PUSH2 0x491 JUMPI PUSH1 0x2 SLOAD SWAP2 PUSH2 0x2BA DUP3 PUSH1 0x32 SWAP5 JUMPDEST PUSH1 0x5 SLOAD DUP8 MLOAD PUSH4 0x23B872DD PUSH1 0xE0 SHL DUP2 MSTORE CALLER DUP2 DUP14 ADD SWAP1 DUP2 MSTORE PUSH1 0x1 PUSH1 0x1 PUSH1 0xA0 SHL SUB SWAP3 DUP4 AND PUSH1 0x20 DUP3 ADD MSTORE PUSH1 0x40 DUP2 ADD SWAP4 SWAP1 SWAP4 MSTORE SWAP4 DUP5 SWAP3 DUP4 SWAP2 DUP13 SWAP2 DUP4 SWAP2 PUSH1 0x60 SWAP1 SWAP2 ADD SWAP1 JUMP JUMPDEST SUB SWAP3 PUSH32 0x0 AND GAS CALL SWAP1 DUP2 ISZERO PUSH2 0x487 JUMPI DUP8 SWAP2 PUSH2 0x45A JUMPI JUMPDEST POP ISZERO PUSH2 0x419 JUMPI PUSH3 0x278D00 TIMESTAMP ADD SWAP3 DUP4 TIMESTAMP GT PUSH2 0x406 JUMPI DUP5 MLOAD SWAP2 PUSH1 0x80 DUP4 ADD DUP4 DUP2 LT PUSH8 0xFFFFFFFFFFFFFFFF DUP3 GT OR PUSH2 0x3F3 JUMPI DUP7 MSTORE PUSH2 0x3E0 JUMPI DUP6 DUP3 MSTORE DUP3 DUP3 ADD DUP5 DUP2 MSTORE DUP6 DUP4 ADD SWAP1 DUP9 DUP3 MSTORE PUSH1 0x60 DUP5 ADD SWAP3 DUP4 MSTORE CALLER DUP10 MSTORE PUSH1 0x6 DUP6 MSTORE DUP7 DUP10 KECCAK256 SWAP4 MLOAD DUP11 DUP2 LT ISZERO PUSH2 0x3CD JUMPI PUSH32 0xCB1D9E2F1ADE80C30CD5A94CC785E4E0FE02C9733AB244988D4A57BD30E71231 SWAP9 SWAP10 SWAP11 POP SWAP1 PUSH1 0x3 SWAP4 SWAP3 SWAP2 PUSH1 0xFF DUP1 NOT DUP8 SLOAD AND SWAP2 AND OR DUP6 SSTORE MLOAD PUSH1 0x1 DUP6 ADD SSTORE MLOAD PUSH1 0x2 DUP5 ADD SSTORE MLOAD SWAP2 ADD SSTORE PUSH2 0x3A0 DUP4 MLOAD DUP1 SWAP7 PUSH2 0x8A9 JUMP JUMPDEST DUP5 ADD MSTORE CALLER SWAP3 LOG2 PUSH1 0x1 PUSH32 0x9B779B17422D0DF92223018B32B4D1FA46E071723D6817E2486D003BECC55F00 SSTORE DUP1 RETURN JUMPDEST PUSH4 0x4E487B71 PUSH1 0xE0 SHL DUP11 MSTORE PUSH1 0x21 DUP12 MSTORE PUSH1 0x24 DUP11 REVERT JUMPDEST PUSH4 0x4E487B71 PUSH1 0xE0 SHL DUP8 MSTORE PUSH1 0x21 DUP9 MSTORE PUSH1 0x24 DUP8 REVERT JUMPDEST PUSH4 0x4E487B71 PUSH1 0xE0 SHL DUP10 MSTORE PUSH1 0x41 DUP11 MSTORE PUSH1 0x24 DUP10 REVERT JUMPDEST PUSH4 0x4E487B71 PUSH1 0xE0 SHL DUP8 MSTORE PUSH1 0x11 DUP9 MSTORE PUSH1 0x24 DUP8 REVERT JUMPDEST PUSH1 0x64 DUP8 DUP4 DUP1 DUP8 MLOAD SWAP3 PUSH3 0x461BCD PUSH1 0xE5 SHL DUP5 MSTORE DUP4 ADD MSTORE PUSH1 0x24 DUP3 ADD MSTORE PUSH32 0x5050543A20737562736372697074696F6E207061796D656E74206661696C6564 PUSH1 0x44 DUP3 ADD MSTORE REVERT JUMPDEST PUSH2 0x47A SWAP2 POP DUP4 RETURNDATASIZE DUP6 GT PUSH2 0x480 JUMPI JUMPDEST PUSH2 0x472 DUP2 DUP4 PUSH2 0x91B JUMP JUMPDEST DUP2 ADD SWAP1 PUSH2 0x953 JUMP JUMPDEST DUP9 PUSH2 0x2EE JUMP JUMPDEST POP RETURNDATASIZE PUSH2 0x468 JUMP JUMPDEST DUP6 MLOAD RETURNDATASIZE DUP10 DUP3 RETURNDATACOPY RETURNDATASIZE SWAP1 REVERT JUMPDEST DUP5 SWAP2 POP PUSH1 0x2 DUP5 SUB PUSH2 0x4AD JUMPI PUSH1 0x3 SLOAD SWAP2 PUSH2 0x2BA DUP3 PUSH2 0x12C SWAP5 PUSH2 0x27B JUMP JUMPDEST DUP6 SLOAD SWAP2 PUSH2 0x2BA DUP3 DUP8 SWAP5 PUSH2 0x27B JUMP JUMPDEST DUP5 SWAP1 PUSH1 0x64 SWAP3 MLOAD SWAP2 PUSH3 0x461BCD PUSH1 0xE5 SHL DUP4 MSTORE DUP3 ADD MSTORE PUSH1 0x11 PUSH1 0x24 DUP3 ADD MSTORE PUSH17 0x28282A1D1034B73B30B634B210383630B7 PUSH1 0x79 SHL PUSH1 0x44 DUP3 ADD MSTORE REVERT JUMPDEST DUP4 DUP1 REVERT JUMPDEST POP POP CALLVALUE PUSH2 0x108 JUMPI PUSH1 0x20 CALLDATASIZE PUSH1 0x3 NOT ADD SLT PUSH2 0x108 JUMPI PUSH1 0x20 SWAP1 PUSH2 0x51B PUSH2 0x516 PUSH2 0x88E JUMP JUMPDEST PUSH2 0xBF4 JUMP JUMPDEST SWAP1 MLOAD SWAP1 ISZERO ISZERO DUP2 MSTORE RETURN JUMPDEST SWAP1 POP CALLVALUE PUSH2 0x193 JUMPI PUSH1 0x20 CALLDATASIZE PUSH1 0x3 NOT ADD SLT PUSH2 0x193 JUMPI PUSH2 0x53F PUSH2 0x88E JUMP JUMPDEST SWAP2 CALLER DUP5 MSTORE PUSH1 0x7 PUSH1 0x20 MSTORE PUSH1 0xFF DUP2 DUP6 KECCAK256 SLOAD AND DUP1 ISZERO PUSH2 0x5CD JUMPI JUMPDEST ISZERO PUSH2 0x594 JUMPI DUP4 PUSH2 0x56D DUP5 PUSH2 0x568 PUSH2 0xBB2 JUMP JUMPDEST PUSH2 0x96B JUMP JUMPDEST PUSH1 0x1 PUSH32 0x9B779B17422D0DF92223018B32B4D1FA46E071723D6817E2486D003BECC55F00 SSTORE DUP1 RETURN JUMPDEST SWAP1 PUSH1 0x20 PUSH1 0x64 SWAP3 MLOAD SWAP2 PUSH3 0x461BCD PUSH1 0xE5 SHL DUP4 MSTORE DUP3 ADD MSTORE PUSH1 0x13 PUSH1 0x24 DUP3 ADD MSTORE PUSH19 0x1414150E881B9BDD08185D5D1A1BDC9A5CD959 PUSH1 0x6A SHL PUSH1 0x44 DUP3 ADD MSTORE REVERT JUMPDEST POP DUP4 SLOAD PUSH1 0x1 PUSH1 0x1 PUSH1 0xA0 SHL SUB AND CALLER EQ PUSH2 0x556 JUMP JUMPDEST POP POP CALLVALUE PUSH2 0x108 JUMPI PUSH1 0x20 CALLDATASIZE PUSH1 0x3 NOT ADD SLT PUSH2 0x108 JUMPI PUSH1 0x20 SWAP2 PUSH1 0xFF SWAP1 DUP3 SWAP1 PUSH1 0x1 PUSH1 0x1 PUSH1 0xA0 SHL SUB PUSH2 0x60B PUSH2 0x88E JUMP JUMPDEST AND DUP2 MSTORE PUSH1 0x7 DUP6 MSTORE KECCAK256 SLOAD AND SWAP1 MLOAD SWAP1 ISZERO ISZERO DUP2 MSTORE RETURN JUMPDEST POP POP CALLVALUE PUSH2 0x108 JUMPI DUP2 PUSH1 0x3 NOT CALLDATASIZE ADD SLT PUSH2 0x108 JUMPI SWAP1 SLOAD SWAP1 MLOAD PUSH1 0x1 PUSH1 0x1 PUSH1 0xA0 SHL SUB SWAP1 SWAP2 AND DUP2 MSTORE PUSH1 0x20 SWAP1 RETURN JUMPDEST POP POP CALLVALUE PUSH2 0x108 JUMPI DUP2 PUSH1 0x3 NOT CALLDATASIZE ADD SLT PUSH2 0x108 JUMPI MLOAD PUSH32 0x0 PUSH1 0x1 PUSH1 0x1 PUSH1 0xA0 SHL SUB AND DUP2 MSTORE PUSH1 0x20 SWAP1 RETURN JUMPDEST POP POP CALLVALUE PUSH2 0x108 JUMPI DUP2 PUSH1 0x3 NOT CALLDATASIZE ADD SLT PUSH2 0x108 JUMPI PUSH1 0x20 SWAP1 PUSH1 0x2 SLOAD SWAP1 MLOAD SWAP1 DUP2 MSTORE RETURN JUMPDEST DUP4 CALLVALUE PUSH2 0x1DC JUMPI DUP1 PUSH1 0x3 NOT CALLDATASIZE ADD SLT PUSH2 0x1DC JUMPI PUSH2 0x6C2 PUSH2 0x8EF JUMP JUMPDEST DUP1 SLOAD PUSH1 0x1 PUSH1 0x1 PUSH1 0xA0 SHL SUB NOT DUP2 AND DUP3 SSTORE DUP2 SWAP1 PUSH1 0x1 PUSH1 0x1 PUSH1 0xA0 SHL SUB AND PUSH32 0x8BE0079C531659141344CD1FD0A4F28419497F9722A3DAAFE3B4186F6B6457E0 DUP3 DUP1 LOG3 DUP1 RETURN JUMPDEST POP POP CALLVALUE PUSH2 0x108 JUMPI DUP2 PUSH1 0x3 NOT CALLDATASIZE ADD SLT PUSH2 0x108 JUMPI PUSH1 0x20 SWAP1 PUSH1 0x3 SLOAD SWAP1 MLOAD SWAP1 DUP2 MSTORE RETURN JUMPDEST SWAP1 POP CALLVALUE PUSH2 0x193 JUMPI DUP3 PUSH1 0x3 NOT CALLDATASIZE ADD SLT PUSH2 0x193 JUMPI PUSH1 0x20 SWAP3 POP SLOAD SWAP1 MLOAD SWAP1 DUP2 MSTORE RETURN JUMPDEST POP POP CALLVALUE PUSH2 0x108 JUMPI DUP2 PUSH1 0x3 NOT CALLDATASIZE ADD SLT PUSH2 0x108 JUMPI PUSH1 0x5 SLOAD SWAP1 MLOAD PUSH1 0x1 PUSH1 0x1 PUSH1 0xA0 SHL SUB SWAP1 SWAP2 AND DUP2 MSTORE PUSH1 0x20 SWAP1 RETURN JUMPDEST SWAP1 POP CALLVALUE PUSH2 0x193 JUMPI PUSH1 0x20 CALLDATASIZE PUSH1 0x3 NOT ADD SLT PUSH2 0x193 JUMPI PUSH32 0xC5DBBC1A39078C6D41F75645288952AF1ADCE3154214371D76E7735665642453 SWAP2 PUSH2 0x7DF SWAP2 CALLDATALOAD PUSH2 0x7AB PUSH2 0x8EF JUMP JUMPDEST DUP1 PUSH1 0x1 SSTORE DUP2 MLOAD SWAP3 DUP3 DUP5 SWAP4 DUP5 MSTORE DUP4 ADD PUSH1 0x40 SWAP1 PUSH1 0x12 DUP2 MSTORE PUSH18 0x34B73B37B4B1B2AFB9BAB136B4B9B9B4B7B7 PUSH1 0x71 SHL PUSH1 0x20 DUP3 ADD MSTORE ADD SWAP1 JUMP JUMPDEST SWAP1 PUSH1 0x20 DUP4 ADD MSTORE SUB SWAP1 LOG1 DUP1 RETURN JUMPDEST POP POP CALLVALUE PUSH2 0x108 JUMPI DUP1 PUSH1 0x3 NOT CALLDATASIZE ADD SLT PUSH2 0x108 JUMPI PUSH2 0x805 PUSH2 0x88E JUMP JUMPDEST SWAP1 PUSH1 0x24 CALLDATALOAD SWAP2 DUP3 ISZERO ISZERO DUP1 SWAP4 SUB PUSH2 0x4F1 JUMPI PUSH2 0x81C PUSH2 0x8EF JUMP JUMPDEST PUSH1 0x1 DUP1 PUSH1 0xA0 SHL SUB AND DUP4 MSTORE PUSH1 0x7 PUSH1 0x20 MSTORE DUP3 KECCAK256 SWAP1 PUSH1 0xFF DUP1 NOT DUP4 SLOAD AND SWAP2 AND OR SWAP1 SSTORE DUP1 RETURN JUMPDEST DUP5 SWAP1 DUP5 CALLVALUE PUSH2 0x193 JUMPI PUSH1 0x20 CALLDATASIZE PUSH1 0x3 NOT ADD SLT PUSH2 0x193 JUMPI SWAP1 SWAP2 DUP3 SWAP2 PUSH2 0x233 SWAP2 PUSH1 0x1 PUSH1 0x1 PUSH1 0xA0 SHL SUB PUSH2 0x869 PUSH2 0x88E JUMP JUMPDEST AND DUP2 MSTORE PUSH1 0x6 PUSH1 0x20 MSTORE KECCAK256 PUSH1 0xFF DUP2 SLOAD AND SWAP1 PUSH1 0x1 DUP2 ADD SLOAD PUSH1 0x3 PUSH1 0x2 DUP4 ADD SLOAD SWAP3 ADD SLOAD SWAP3 DUP6 PUSH2 0x8CC JUMP JUMPDEST PUSH1 0x4 CALLDATALOAD SWAP1 PUSH1 0x1 PUSH1 0x1 PUSH1 0xA0 SHL SUB DUP3 AND DUP3 SUB PUSH2 0x8A4 JUMPI JUMP JUMPDEST PUSH1 0x0 DUP1 REVERT JUMPDEST SWAP1 PUSH1 0x4 DUP3 LT ISZERO PUSH2 0x8B6 JUMPI MSTORE JUMP JUMPDEST PUSH4 0x4E487B71 PUSH1 0xE0 SHL PUSH1 0x0 MSTORE PUSH1 0x21 PUSH1 0x4 MSTORE PUSH1 0x24 PUSH1 0x0 REVERT JUMPDEST SWAP1 SWAP5 SWAP4 SWAP3 PUSH1 0x60 SWAP3 PUSH2 0x8E1 DUP4 PUSH1 0x80 DUP2 ADD SWAP9 PUSH2 0x8A9 JUMP JUMPDEST PUSH1 0x20 DUP4 ADD MSTORE PUSH1 0x40 DUP3 ADD MSTORE ADD MSTORE JUMP JUMPDEST PUSH1 0x0 SLOAD PUSH1 0x1 PUSH1 0x1 PUSH1 0xA0 SHL SUB AND CALLER SUB PUSH2 0x903 JUMPI JUMP JUMPDEST PUSH1 0x40 MLOAD PUSH4 0x118CDAA7 PUSH1 0xE0 SHL DUP2 MSTORE CALLER PUSH1 0x4 DUP3 ADD MSTORE PUSH1 0x24 SWAP1 REVERT JUMPDEST SWAP1 PUSH1 0x1F DUP1 NOT SWAP2 ADD AND DUP2 ADD SWAP1 DUP2 LT PUSH8 0xFFFFFFFFFFFFFFFF DUP3 GT OR PUSH2 0x93D JUMPI PUSH1 0x40 MSTORE JUMP JUMPDEST PUSH4 0x4E487B71 PUSH1 0xE0 SHL PUSH1 0x0 MSTORE PUSH1 0x41 PUSH1 0x4 MSTORE PUSH1 0x24 PUSH1 0x0 REVERT JUMPDEST SWAP1 DUP2 PUSH1 0x20 SWAP2 SUB SLT PUSH2 0x8A4 JUMPI MLOAD DUP1 ISZERO ISZERO DUP2 SUB PUSH2 0x8A4 JUMPI SWAP1 JUMP JUMPDEST PUSH1 0x1 DUP1 PUSH1 0xA0 SHL SUB DUP1 DUP3 AND SWAP2 PUSH1 0x0 SWAP2 DUP4 DUP4 MSTORE PUSH1 0x20 SWAP3 PUSH1 0x6 DUP5 MSTORE PUSH1 0x40 SWAP3 DUP4 DUP3 KECCAK256 SWAP3 PUSH1 0xFF DUP5 SLOAD AND SWAP4 PUSH1 0x4 SWAP5 DUP6 DUP2 LT ISZERO PUSH2 0xB9F JUMPI ISZERO ISZERO DUP1 PUSH2 0xB92 JUMPI JUMPDEST PUSH2 0xAED JUMPI POP PUSH1 0x5 SLOAD PUSH1 0x1 SLOAD DUP7 MLOAD PUSH4 0x23B872DD PUSH1 0xE0 SHL DUP2 MSTORE PUSH1 0x1 PUSH1 0x1 PUSH1 0xA0 SHL SUB SWAP5 DUP6 AND DUP8 DUP3 ADD SWAP1 DUP2 MSTORE SWAP3 DUP5 AND SWAP1 SWAP5 AND PUSH1 0x20 DUP4 ADD MSTORE PUSH1 0x40 DUP3 ADD MSTORE DUP7 SWAP2 DUP4 SWAP2 DUP3 SWAP1 DUP7 SWAP1 DUP3 SWAP1 PUSH1 0x60 ADD SUB SWAP3 PUSH32 0x0 AND GAS CALL SWAP2 DUP3 ISZERO PUSH2 0xAE2 JUMPI SWAP2 PUSH2 0xAC5 JUMPI JUMPDEST POP ISZERO PUSH2 0xA84 JUMPI POP SWAP1 PUSH32 0x3E3D11FED2579AB23676D30F4893A503A2A74A2D3610026A21A83C39E2A85E2E SWAP2 PUSH2 0xA7F PUSH1 0x1 SLOAD SWAP2 DUP1 DUP1 MLOAD SWAP5 DUP6 SWAP5 DUP6 MSTORE DUP5 ADD MSTORE DUP3 ADD PUSH1 0x40 SWAP1 PUSH1 0x12 DUP2 MSTORE PUSH18 0x34B73B37B4B1B2AFB9BAB136B4B9B9B4B7B7 PUSH1 0x71 SHL PUSH1 0x20 DUP3 ADD MSTORE ADD SWAP1 JUMP JUMPDEST SUB SWAP1 LOG2 JUMP JUMPDEST DUP3 PUSH1 0x64 SWAP3 MLOAD SWAP2 PUSH3 0x461BCD PUSH1 0xE5 SHL DUP4 MSTORE DUP3 ADD MSTORE PUSH1 0x18 PUSH1 0x24 DUP3 ADD MSTORE PUSH32 0x5050543A20666565207472616E73666572206661696C65640000000000000000 PUSH1 0x44 DUP3 ADD MSTORE REVERT JUMPDEST PUSH2 0xADC SWAP2 POP DUP5 RETURNDATASIZE DUP7 GT PUSH2 0x480 JUMPI PUSH2 0x472 DUP2 DUP4 PUSH2 0x91B JUMP JUMPDEST CODESIZE PUSH2 0xA1B JUMP JUMPDEST DUP5 MLOAD SWAP1 RETURNDATASIZE SWAP1 DUP3 RETURNDATACOPY RETURNDATASIZE SWAP1 REVERT JUMPDEST SWAP6 SWAP3 SWAP5 SWAP7 POP POP POP PUSH1 0x3 DUP5 ADD SLOAD SWAP4 DUP5 PUSH2 0xB08 JUMPI JUMPDEST POP POP POP POP POP POP JUMP JUMPDEST PUSH1 0x2 ADD SWAP5 DUP6 SLOAD SWAP5 DUP6 LT ISZERO PUSH2 0xB46 JUMPI POP POP PUSH1 0x0 NOT DUP4 EQ PUSH2 0xB33 JUMPI POP POP PUSH1 0x1 ADD SWAP1 SSTORE CODESIZE DUP1 DUP1 DUP1 DUP1 DUP1 PUSH2 0xB00 JUMP JUMPDEST PUSH4 0x4E487B71 PUSH1 0xE0 SHL DUP3 MSTORE PUSH1 0x11 SWAP1 MSTORE PUSH1 0x24 SWAP1 REVERT JUMPDEST MLOAD PUSH3 0x461BCD PUSH1 0xE5 SHL DUP2 MSTORE SWAP2 DUP3 ADD MSTORE PUSH1 0x22 PUSH1 0x24 DUP3 ADD MSTORE PUSH32 0x5050543A206D6F6E74686C7920696E766F696365206C696D6974207265616368 PUSH1 0x44 DUP3 ADD MSTORE PUSH2 0x1959 PUSH1 0xF2 SHL PUSH1 0x64 DUP3 ADD MSTORE PUSH1 0x84 SWAP2 POP REVERT JUMPDEST POP PUSH1 0x1 DUP2 ADD SLOAD TIMESTAMP LT PUSH2 0x9A3 JUMP JUMPDEST PUSH4 0x4E487B71 PUSH1 0xE0 SHL DUP6 MSTORE PUSH1 0x21 DUP7 MSTORE PUSH1 0x24 DUP6 REVERT JUMPDEST PUSH32 0x9B779B17422D0DF92223018B32B4D1FA46E071723D6817E2486D003BECC55F00 PUSH1 0x2 DUP2 SLOAD EQ PUSH2 0xBE2 JUMPI PUSH1 0x2 SWAP1 SSTORE JUMP JUMPDEST PUSH1 0x40 MLOAD PUSH4 0x3EE5AEB5 PUSH1 0xE0 SHL DUP2 MSTORE PUSH1 0x4 SWAP1 REVERT JUMPDEST PUSH1 0x1 PUSH1 0x1 PUSH1 0xA0 SHL SUB SWAP1 DUP2 AND PUSH1 0x0 DUP2 DUP2 MSTORE PUSH1 0x6 PUSH1 0x20 MSTORE PUSH1 0x40 DUP2 KECCAK256 DUP1 SLOAD SWAP2 SWAP4 SWAP3 SWAP2 PUSH1 0xFF AND PUSH1 0x4 DUP2 LT ISZERO PUSH2 0xCDA JUMPI ISZERO ISZERO SWAP1 DUP2 PUSH2 0xCCC JUMPI JUMPDEST POP PUSH2 0xCC4 JUMPI PUSH1 0x20 SWAP1 PUSH1 0x24 PUSH1 0x40 MLOAD DUP1 SWAP5 DUP2 SWAP4 PUSH4 0x70A08231 PUSH1 0xE0 SHL DUP4 MSTORE PUSH1 0x4 DUP4 ADD MSTORE PUSH32 0x0 AND GAS STATICCALL SWAP2 DUP3 ISZERO PUSH2 0xCB8 JUMPI DUP1 SWAP3 PUSH2 0xC84 JUMPI JUMPDEST POP POP PUSH1 0x1 SLOAD GT ISZERO SWAP1 JUMP JUMPDEST SWAP1 SWAP2 POP PUSH1 0x20 DUP3 RETURNDATASIZE DUP3 GT PUSH2 0xCB0 JUMPI JUMPDEST DUP2 PUSH2 0xC9F PUSH1 0x20 SWAP4 DUP4 PUSH2 0x91B JUMP JUMPDEST DUP2 ADD SUB SLT PUSH2 0x1DC JUMPI POP MLOAD CODESIZE DUP1 PUSH2 0xC7A JUMP JUMPDEST RETURNDATASIZE SWAP2 POP PUSH2 0xC92 JUMP JUMPDEST PUSH1 0x40 MLOAD SWAP1 RETURNDATASIZE SWAP1 DUP3 RETURNDATACOPY RETURNDATASIZE SWAP1 REVERT JUMPDEST POP POP POP PUSH1 0x1 SWAP1 JUMP JUMPDEST PUSH1 0x1 SWAP2 POP ADD SLOAD TIMESTAMP LT CODESIZE PUSH2 0xC28 JUMP JUMPDEST PUSH4 0x4E487B71 PUSH1 0xE0 SHL DUP6 MSTORE PUSH1 0x21 PUSH1 0x4 MSTORE PUSH1 0x24 DUP6 REVERT INVALID LOG2 PUSH5 0x6970667358 0x22 SLT KECCAK256 0xCA 0xBF SLT 0xE6 0xDD DUP14 PUSH19 0x619CAF2E1FB6E44C82D689940D066130BEE689 ADD ORIGIN SMOD PUSH7 0x1F464736F6C63 NUMBER STOP ADDMOD EQ STOP CALLER "},"methodIdentifiers":{"authorisedCallers(address)":"944fd180","basicPlanFee()":"73c8121e","collectInvoiceFee(address)":"ab824094","enterprisePlanFee()":"652d5adc","getSubscription(address)":"0cbebc24","hasActiveAccess(address)":"c5948043","invoiceSubmissionFee()":"fca95eea","owner()":"8da5cb5b","pptToken()":"7b5b50e7","proPlanFee()":"65958028","purchaseSubscription(uint8)":"cbc5c592","renounceOwnership()":"715018a6","setAuthorisedCaller(address,bool)":"2e89bd89","setInvoiceFee(uint256)":"3cd60fb4","setTreasury(address)":"f0f44260","subscriptions(address)":"f046395a","transferOwnership(address)":"f2fde38b","treasury()":"61d027b3"}}}}}