{"contracts/MedicalBillingRegistry.sol":{"MedicalBillingRegistry":{"abi":[{"inputs":[{"internalType":"address","name":"_verifier","type":"address"},{"internalType":"address","name":"_paymentController","type":"address"},{"internalType":"address","name":"_fraudRegistry","type":"address"}],"stateMutability":"nonpayable","type":"constructor"},{"inputs":[],"name":"EnforcedPause","type":"error"},{"inputs":[],"name":"ExpectedPause","type":"error"},{"inputs":[{"internalType":"address","name":"owner","type":"address"}],"name":"OwnableInvalidOwner","type":"error"},{"inputs":[{"internalType":"address","name":"account","type":"address"}],"name":"OwnableUnauthorizedAccount","type":"error"},{"inputs":[],"name":"ReentrancyGuardReentrantCall","type":"error"},{"anonymous":false,"inputs":[{"indexed":true,"internalType":"bytes32","name":"commitment","type":"bytes32"},{"indexed":true,"internalType":"address","name":"insurer","type":"address"}],"name":"InsurerAccessGranted","type":"event"},{"anonymous":false,"inputs":[{"indexed":true,"internalType":"bytes32","name":"commitment","type":"bytes32"},{"indexed":true,"internalType":"address","name":"insurer","type":"address"}],"name":"InvoiceDisputed","type":"event"},{"anonymous":false,"inputs":[{"indexed":true,"internalType":"bytes32","name":"commitment","type":"bytes32"},{"indexed":true,"internalType":"address","name":"provider","type":"address"},{"indexed":false,"internalType":"string","name":"ipfsCID","type":"string"},{"indexed":false,"internalType":"uint256","name":"coverageLimit","type":"uint256"},{"indexed":false,"internalType":"uint256","name":"timestamp","type":"uint256"}],"name":"InvoiceSubmitted","type":"event"},{"anonymous":false,"inputs":[{"indexed":true,"internalType":"address","name":"previousOwner","type":"address"},{"indexed":true,"internalType":"address","name":"newOwner","type":"address"}],"name":"OwnershipTransferred","type":"event"},{"anonymous":false,"inputs":[{"indexed":false,"internalType":"address","name":"account","type":"address"}],"name":"Paused","type":"event"},{"anonymous":false,"inputs":[{"indexed":false,"internalType":"address","name":"account","type":"address"}],"name":"Unpaused","type":"event"},{"inputs":[{"internalType":"bytes32","name":"commitment","type":"bytes32"}],"name":"disputeInvoice","outputs":[],"stateMutability":"nonpayable","type":"function"},{"inputs":[],"name":"fraudRegistry","outputs":[{"internalType":"contract FraudRegistry","name":"","type":"address"}],"stateMutability":"view","type":"function"},{"inputs":[{"internalType":"address","name":"provider","type":"address"}],"name":"getInvoiceCount","outputs":[{"internalType":"uint256","name":"","type":"uint256"}],"stateMutability":"view","type":"function"},{"inputs":[{"internalType":"address","name":"provider","type":"address"}],"name":"getProviderInvoices","outputs":[{"internalType":"bytes32[]","name":"","type":"bytes32[]"}],"stateMutability":"view","type":"function"},{"inputs":[{"internalType":"bytes32","name":"commitment","type":"bytes32"},{"internalType":"address","name":"insurer","type":"address"}],"name":"grantInsurerAccess","outputs":[],"stateMutability":"nonpayable","type":"function"},{"inputs":[{"internalType":"address","name":"","type":"address"},{"internalType":"bytes32","name":"","type":"bytes32"}],"name":"insurerAccess","outputs":[{"internalType":"bool","name":"","type":"bool"}],"stateMutability":"view","type":"function"},{"inputs":[{"internalType":"bytes32","name":"","type":"bytes32"}],"name":"invoices","outputs":[{"internalType":"bytes32","name":"commitment","type":"bytes32"},{"internalType":"uint256","name":"coverageLimit","type":"uint256"},{"internalType":"address","name":"provider","type":"address"},{"internalType":"uint256","name":"submittedAt","type":"uint256"},{"internalType":"string","name":"ipfsCID","type":"string"},{"internalType":"bool","name":"disputed","type":"bool"}],"stateMutability":"view","type":"function"},{"inputs":[{"internalType":"bytes32","name":"commitment","type":"bytes32"}],"name":"isVerified","outputs":[{"internalType":"bool","name":"","type":"bool"}],"stateMutability":"view","type":"function"},{"inputs":[],"name":"owner","outputs":[{"internalType":"address","name":"","type":"address"}],"stateMutability":"view","type":"function"},{"inputs":[],"name":"pause","outputs":[],"stateMutability":"nonpayable","type":"function"},{"inputs":[],"name":"paused","outputs":[{"internalType":"bool","name":"","type":"bool"}],"stateMutability":"view","type":"function"},{"inputs":[],"name":"paymentController","outputs":[{"internalType":"contract PPTPaymentController","name":"","type":"address"}],"stateMutability":"view","type":"function"},{"inputs":[{"internalType":"address","name":"","type":"address"},{"internalType":"uint256","name":"","type":"uint256"}],"name":"providerInvoices","outputs":[{"internalType":"bytes32","name":"","type":"bytes32"}],"stateMutability":"view","type":"function"},{"inputs":[],"name":"renounceOwnership","outputs":[],"stateMutability":"nonpayable","type":"function"},{"inputs":[{"internalType":"uint256[2]","name":"pA","type":"uint256[2]"},{"internalType":"uint256[2][2]","name":"pB","type":"uint256[2][2]"},{"internalType":"uint256[2]","name":"pC","type":"uint256[2]"},{"internalType":"uint256[2]","name":"pubSignals","type":"uint256[2]"},{"internalType":"uint256","name":"coverageLimit","type":"uint256"},{"internalType":"string","name":"ipfsCID","type":"string"},{"internalType":"uint256[2]","name":"fpA","type":"uint256[2]"},{"internalType":"uint256[2][2]","name":"fpB","type":"uint256[2][2]"},{"internalType":"uint256[2]","name":"fpC","type":"uint256[2]"},{"internalType":"uint256[1]","name":"fraudPubSignals","type":"uint256[1]"}],"name":"submitInvoice","outputs":[],"stateMutability":"nonpayable","type":"function"},{"inputs":[],"name":"totalInvoices","outputs":[{"internalType":"uint256","name":"","type":"uint256"}],"stateMutability":"view","type":"function"},{"inputs":[{"internalType":"address","name":"newOwner","type":"address"}],"name":"transferOwnership","outputs":[],"stateMutability":"nonpayable","type":"function"},{"inputs":[],"name":"unpause","outputs":[],"stateMutability":"nonpayable","type":"function"},{"inputs":[],"name":"verifier","outputs":[{"internalType":"contract MedicalInvoiceVerifier","name":"","type":"address"}],"stateMutability":"view","type":"function"}],"evm":{"bytecode":{"linkReferences":{},"object":"60e03461013b57601f6113e438819003918201601f19168301916001600160401b038311848410176101405780849260609460405283398101031261013b5761004781610156565b61005f604061005860208501610156565b9301610156565b33156101225760008054336001600160a01b0319821681178355604051956001600160a01b03958694919385939192908416907f8be0079c531659141344cd1fd0a4f28419497f9722a3daafe3b4186f6b6457e09080a360017f9b779b17422d0df92223018b32b4d1fa46e071723d6817e2486d003becc55f0055166080521660a0521660c052611279908161016b82396080518181816109260152610fe2015260a0518181816104e8015261088c015260c0518181816102fb015261084b0152f35b604051631e4fbdf760e01b815260006004820152602490fd5b600080fd5b634e487b7160e01b600052604160045260246000fd5b51906001600160a01b038216820361013b5756fe608080604052600436101561001357600080fd5b60009060e0908235821c90816302dbe779146110f85750806313e5969f146110bf57806324b90196146110115780632b7ac3f314610fcc5780633f4ba83a14610f5b5780635c975abb14610f365780635d7d538a14610f1857806362607338146106ce578063715018a6146106745780638456cb59146106135780638da5cb5b146105ec5780638f0ce6cd14610517578063a05b5961146104d2578063a4d516861461047c578063b970629c14610374578063c181b2731461032a578063f2af43cd146102e5578063f2fde38b146102555763f8a8a076146100f457600080fd5b34610251576020918260031936011261024e5760043581526001908184526040812090815494838301549260018060a01b0360028201541660038201549160048101604051978891879181549161014a83611182565b928386528983821691826000146102285750506001146101e9575b5050509161018260059260ff949c9a999c989796959803896111bc565b015416936040519889978852838801526040870152606086015260c060808601528351938460c0870152825b8581106101d357505050838301850152151560a0830152601f01601f19168101030190f35b81810183015189820189015288965082016101ae565b8952878920889350899291905b82841061020e575050508201016101828260ff610165565b849295829585835492010152019101909287928b946101f6565b60ff19168782015293151560051b86019093019350610182925084915060ff9050610165565b80fd5b5080fd5b823461024e57602036600319011261024e5761026f61113e565b6102776111de565b6001600160a01b039081169081156102cc57600054826bffffffffffffffffffffffff60a01b821617600055167f8be0079c531659141344cd1fd0a4f28419497f9722a3daafe3b4186f6b6457e0600080a380f35b604051631e4fbdf760e01b815260048101849052602490fd5b823461024e578060031936011261024e576040517f00000000000000000000000000000000000000000000000000000000000000006001600160a01b03168152602090f35b823461024e57602036600319011261024e57604060209160043581526001835220600381015415159081610364575b506040519015158152f35b60ff915060050154161582610359565b823461024e5760208060031936011261025157600435903383526003815260408320828452815260ff6040842054161561044257818352600181526003604084200154156103fe576001908284525260056040832001600160ff1982541617905533907fa0a82998ad63db9f7783440d8888dec76d623bd35951c4a82d2750053e7216818380a380f35b6064906040519062461bcd60e51b82526004820152601b60248201527f52656769737472793a20696e766f696365206e6f7420666f756e6400000000006044820152fd5b6064906040519062461bcd60e51b82526004820152601360248201527252656769737472793a206e6f2061636365737360681b6044820152fd5b823461024e57604036600319011261024e5761049661113e565b6001600160a01b031681526002602052604081208054602435929083101561024e5760206104c48484611154565b90546040519160031b1c8152f35b823461024e578060031936011261024e576040517f00000000000000000000000000000000000000000000000000000000000000006001600160a01b03168152602090f35b823461024e57604036600319011261024e576001600160a01b0360243581811691600435918390036105e757818452600160205260026040852001541633036105a25781835260036020526040832081845260205260408320600160ff198254161790557f4be917ef4556ab00631259ab945966e4403c595bd0e3891bef925c7052da95448380a380f35b60405162461bcd60e51b815260206004820152601a60248201527f52656769737472793a206e6f7420796f757220696e766f6963650000000000006044820152606490fd5b600080fd5b823461024e578060031936011261024e57546040516001600160a01b039091168152602090f35b823461024e578060031936011261024e5761062c6111de565b610634611222565b805460ff60a01b1916600160a01b1781556040513381527f62e78cea01bee320cd4e420270b5ea74000d11b0c9f74754ebdbfc544b05a25890602090a180f35b823461024e578060031936011261024e5761068d6111de565b600080546001600160a01b0319811682556001600160a01b03167f8be0079c531659141344cd1fd0a4f28419497f9722a3daafe3b4186f6b6457e08280a380f35b823461024e576102a036600319011261024e573660441161024e573660c41161024e57366101041161024e57366101441161024e5767ffffffffffffffff610164351161024e573660236101643501121561024e5767ffffffffffffffff61016435600401351161024e5736602461016435600401356101643501011161024e57366101c41161024e57366102441161024e57366102841161024e57366102a41161024e5760027f9b779b17422d0df92223018b32b4d1fa46e071723d6817e2486d003becc55f005414610f065760027f9b779b17422d0df92223018b32b4d1fa46e071723d6817e2486d003becc55f00556107c8611222565b60016101243503610ead5761010435815260016020526003604082200154610e6857610164356004013515610e235760408051630fb1631d60e31b81529061018460048301376101c482604483015b60028210610e0d57505050604061024460c483013760206102846101048301376101043561012482015260208161014481857f00000000000000000000000000000000000000000000000000000000000000006001600160a01b03165af1908115610d3a578291610dee575b5015610d8a57807f00000000000000000000000000000000000000000000000000000000000000006001600160a01b0316803b15610d87578190602460405180948193632ae0902560e21b83523360048401525af18015610d3a57610d5b575b5060408051637ae4eb4f60e11b815290600480830137604460008282015b60028210610d4557505050604060c480830137604061010480830137602081610144817f00000000000000000000000000000000000000000000000000000000000000006001600160a01b03165afa908115610d3a578291610d0b575b5015610cc65760405160c0810181811067ffffffffffffffff821117610cb0576040526101043581526101443560208201523360408201524260608201526040516109ba6020601f19601f6101643560040135011601826111bc565b610164356004810135808352906024016020830137826020610164356004013583010152608082019081528260a08301526101043583526001602052604083209082518255602083015160018301556002820160018060a01b036040850151166bffffffffffffffffffffffff60a01b825416179055606083015160038301555180519067ffffffffffffffff8211610c9c57610a5a6004840154611182565b601f8111610c57575b50602090601f8311600114610be557918060a094926005948892610bda575b50508160011b916000199060031b1c19161760048201555b01910151151560ff8019835416911617905533815260026020526040812080549068010000000000000000821015610bc65790610adc91600182018155611154565b9080549160031b600019928361010435831b921b1916179055600454908114610bb2576001016004556040516060815261016435600401356060820152610164356004013560246101643501608083013781608061016435600401358301015261014435602082015242604082015233907fcf4ac303971c2e55839b19ca7227f426c4e1caf7e50fbafb20db83ca2d63a1106101043591608081601f19601f610164356004013501168101030190a360017f9b779b17422d0df92223018b32b4d1fa46e071723d6817e2486d003becc55f005580f35b634e487b7160e01b82526011600452602482fd5b634e487b7160e01b83526041600452602483fd5b015190508780610a82565b906004840186526020862091865b601f1985168110610c3f57509260a0949260019260059583601f19811610610c26575b505050811b016004820155610a9a565b015160001960f88460031b161c19169055878080610c16565b91926020600181928685015181550194019201610bf3565b60048401865260208620601f840160051c810160208510610c95575b601f830160051c82018110610c89575050610a63565b60008155600101610c73565b5080610c73565b634e487b7160e01b85526041600452602485fd5b634e487b7160e01b600052604160045260246000fd5b60405162461bcd60e51b815260206004820152601a60248201527f52656769737472793a20696e76616c6964205a4b2070726f6f660000000000006044820152606490fd5b610d2d915060203d602011610d33575b610d2581836111bc565b81019061120a565b8261095e565b503d610d1b565b6040513d84823e3d90fd5b6040808281866001953701930191019091610901565b67ffffffffffffffff8111610d7357604052816108e3565b634e487b7160e01b82526041600452602482fd5b50fd5b60405162461bcd60e51b815260206004820152603660248201527f52656769737472793a20696e766f69636520666c6167676564206173207375736044820152751c1a58da5bdd5cc8189e48199c985d59081b5bd9195b60521b6064820152608490fd5b610e07915060203d602011610d3357610d2581836111bc565b82610883565b6040808281866001953701930191019091610817565b60405162461bcd60e51b815260206004820152601b60248201527f52656769737472793a20495046532043494420726571756972656400000000006044820152606490fd5b60405162461bcd60e51b815260206004820152601b60248201527f52656769737472793a206475706c696361746520696e766f69636500000000006044820152606490fd5b60405162461bcd60e51b815260206004820152602b60248201527f52656769737472793a20696e766f69636520636f6e73747261696e7473206e6f60448201526a1d081cd85d1a5cd99a595960aa1b6064820152608490fd5b604051633ee5aeb560e01b8152600490fd5b823461024e578060031936011261024e576020600454604051908152f35b823461024e578060031936011261024e5760ff6020915460a01c166040519015158152f35b823461024e578060031936011261024e57610f746111de565b805460ff8160a01c1615610fba5760ff60a01b191681556040513381527f5db9ee0a495bf2e6ff9c91a7834c1ba4fdd244a5e8aa4e537bd38aeae4b073aa90602090a180f35b604051638dfc202b60e01b8152600490fd5b823461024e578060031936011261024e576040517f00000000000000000000000000000000000000000000000000000000000000006001600160a01b03168152602090f35b823461024e57602080600319360112610251576001600160a01b0361103461113e565b168252600281526040822060405192838383549182815201908193835284832090835b8181106110ab575050508461106d9103856111bc565b60405193838594850191818652518092526040850193925b82811061109457505050500390f35b835185528695509381019392810192600101611085565b825484529286019260019283019201611057565b823461024e57602036600319011261024e576020906040906001600160a01b036110e761113e565b168152600283522054604051908152f35b8390346102515760403660031901126102515760209160ff906040906001600160a01b0361112461113e565b168152600385528181206024358252855220541615158152f35b600435906001600160a01b03821682036105e757565b805482101561116c5760005260206000200190600090565b634e487b7160e01b600052603260045260246000fd5b90600182811c921680156111b2575b602083101461119c57565b634e487b7160e01b600052602260045260246000fd5b91607f1691611191565b90601f8019910116810190811067ffffffffffffffff821117610cb057604052565b6000546001600160a01b031633036111f257565b60405163118cdaa760e01b8152336004820152602490fd5b908160209103126105e7575180151581036105e75790565b60ff60005460a01c1661123157565b60405163d93c066560e01b8152600490fdfea26469706673582212203e107d97e610d3da99b891bbd549a021d8b54cb32e7071416b10d5553d3e2a9464736f6c63430008140033","opcodes":"PUSH1 0xE0 CALLVALUE PUSH2 0x13B JUMPI PUSH1 0x1F PUSH2 0x13E4 CODESIZE DUP2 SWAP1 SUB SWAP2 DUP3 ADD PUSH1 0x1F NOT AND DUP4 ADD SWAP2 PUSH1 0x1 PUSH1 0x1 PUSH1 0x40 SHL SUB DUP4 GT DUP5 DUP5 LT OR PUSH2 0x140 JUMPI DUP1 DUP5 SWAP3 PUSH1 0x60 SWAP5 PUSH1 0x40 MSTORE DUP4 CODECOPY DUP2 ADD SUB SLT PUSH2 0x13B JUMPI PUSH2 0x47 DUP2 PUSH2 0x156 JUMP JUMPDEST PUSH2 0x5F PUSH1 0x40 PUSH2 0x58 PUSH1 0x20 DUP6 ADD PUSH2 0x156 JUMP JUMPDEST SWAP4 ADD PUSH2 0x156 JUMP JUMPDEST CALLER ISZERO PUSH2 0x122 JUMPI PUSH1 0x0 DUP1 SLOAD CALLER PUSH1 0x1 PUSH1 0x1 PUSH1 0xA0 SHL SUB NOT DUP3 AND DUP2 OR DUP4 SSTORE PUSH1 0x40 MLOAD SWAP6 PUSH1 0x1 PUSH1 0x1 PUSH1 0xA0 SHL SUB SWAP6 DUP7 SWAP5 SWAP2 SWAP4 DUP6 SWAP4 SWAP2 SWAP3 SWAP1 DUP5 AND SWAP1 PUSH32 0x8BE0079C531659141344CD1FD0A4F28419497F9722A3DAAFE3B4186F6B6457E0 SWAP1 DUP1 LOG3 PUSH1 0x1 PUSH32 0x9B779B17422D0DF92223018B32B4D1FA46E071723D6817E2486D003BECC55F00 SSTORE AND PUSH1 0x80 MSTORE AND PUSH1 0xA0 MSTORE AND PUSH1 0xC0 MSTORE PUSH2 0x1279 SWAP1 DUP2 PUSH2 0x16B DUP3 CODECOPY PUSH1 0x80 MLOAD DUP2 DUP2 DUP2 PUSH2 0x926 ADD MSTORE PUSH2 0xFE2 ADD MSTORE PUSH1 0xA0 MLOAD DUP2 DUP2 DUP2 PUSH2 0x4E8 ADD MSTORE PUSH2 0x88C ADD MSTORE PUSH1 0xC0 MLOAD DUP2 DUP2 DUP2 PUSH2 0x2FB ADD MSTORE PUSH2 0x84B ADD MSTORE RETURN JUMPDEST PUSH1 0x40 MLOAD PUSH4 0x1E4FBDF7 PUSH1 0xE0 SHL DUP2 MSTORE PUSH1 0x0 PUSH1 0x4 DUP3 ADD MSTORE PUSH1 0x24 SWAP1 REVERT JUMPDEST PUSH1 0x0 DUP1 REVERT JUMPDEST PUSH4 0x4E487B71 PUSH1 0xE0 SHL PUSH1 0x0 MSTORE PUSH1 0x41 PUSH1 0x4 MSTORE PUSH1 0x24 PUSH1 0x0 REVERT JUMPDEST MLOAD SWAP1 PUSH1 0x1 PUSH1 0x1 PUSH1 0xA0 SHL SUB DUP3 AND DUP3 SUB PUSH2 0x13B JUMPI JUMP INVALID PUSH1 0x80 DUP1 PUSH1 0x40 MSTORE PUSH1 0x4 CALLDATASIZE LT ISZERO PUSH2 0x13 JUMPI PUSH1 0x0 DUP1 REVERT JUMPDEST PUSH1 0x0 SWAP1 PUSH1 0xE0 SWAP1 DUP3 CALLDATALOAD DUP3 SHR SWAP1 DUP2 PUSH4 0x2DBE779 EQ PUSH2 0x10F8 JUMPI POP DUP1 PUSH4 0x13E5969F EQ PUSH2 0x10BF JUMPI DUP1 PUSH4 0x24B90196 EQ PUSH2 0x1011 JUMPI DUP1 PUSH4 0x2B7AC3F3 EQ PUSH2 0xFCC JUMPI DUP1 PUSH4 0x3F4BA83A EQ PUSH2 0xF5B JUMPI DUP1 PUSH4 0x5C975ABB EQ PUSH2 0xF36 JUMPI DUP1 PUSH4 0x5D7D538A EQ PUSH2 0xF18 JUMPI DUP1 PUSH4 0x62607338 EQ PUSH2 0x6CE JUMPI DUP1 PUSH4 0x715018A6 EQ PUSH2 0x674 JUMPI DUP1 PUSH4 0x8456CB59 EQ PUSH2 0x613 JUMPI DUP1 PUSH4 0x8DA5CB5B EQ PUSH2 0x5EC JUMPI DUP1 PUSH4 0x8F0CE6CD EQ PUSH2 0x517 JUMPI DUP1 PUSH4 0xA05B5961 EQ PUSH2 0x4D2 JUMPI DUP1 PUSH4 0xA4D51686 EQ PUSH2 0x47C JUMPI DUP1 PUSH4 0xB970629C EQ PUSH2 0x374 JUMPI DUP1 PUSH4 0xC181B273 EQ PUSH2 0x32A JUMPI DUP1 PUSH4 0xF2AF43CD EQ PUSH2 0x2E5 JUMPI DUP1 PUSH4 0xF2FDE38B EQ PUSH2 0x255 JUMPI PUSH4 0xF8A8A076 EQ PUSH2 0xF4 JUMPI PUSH1 0x0 DUP1 REVERT JUMPDEST CALLVALUE PUSH2 0x251 JUMPI PUSH1 0x20 SWAP2 DUP3 PUSH1 0x3 NOT CALLDATASIZE ADD SLT PUSH2 0x24E JUMPI PUSH1 0x4 CALLDATALOAD DUP2 MSTORE PUSH1 0x1 SWAP1 DUP2 DUP5 MSTORE PUSH1 0x40 DUP2 KECCAK256 SWAP1 DUP2 SLOAD SWAP5 DUP4 DUP4 ADD SLOAD SWAP3 PUSH1 0x1 DUP1 PUSH1 0xA0 SHL SUB PUSH1 0x2 DUP3 ADD SLOAD AND PUSH1 0x3 DUP3 ADD SLOAD SWAP2 PUSH1 0x4 DUP2 ADD PUSH1 0x40 MLOAD SWAP8 DUP9 SWAP2 DUP8 SWAP2 DUP2 SLOAD SWAP2 PUSH2 0x14A DUP4 PUSH2 0x1182 JUMP JUMPDEST SWAP3 DUP4 DUP7 MSTORE DUP10 DUP4 DUP3 AND SWAP2 DUP3 PUSH1 0x0 EQ PUSH2 0x228 JUMPI POP POP PUSH1 0x1 EQ PUSH2 0x1E9 JUMPI JUMPDEST POP POP POP SWAP2 PUSH2 0x182 PUSH1 0x5 SWAP3 PUSH1 0xFF SWAP5 SWAP13 SWAP11 SWAP10 SWAP13 SWAP9 SWAP8 SWAP7 SWAP6 SWAP9 SUB DUP10 PUSH2 0x11BC JUMP JUMPDEST ADD SLOAD AND SWAP4 PUSH1 0x40 MLOAD SWAP9 DUP10 SWAP8 DUP9 MSTORE DUP4 DUP9 ADD MSTORE PUSH1 0x40 DUP8 ADD MSTORE PUSH1 0x60 DUP7 ADD MSTORE PUSH1 0xC0 PUSH1 0x80 DUP7 ADD MSTORE DUP4 MLOAD SWAP4 DUP5 PUSH1 0xC0 DUP8 ADD MSTORE DUP3 JUMPDEST DUP6 DUP2 LT PUSH2 0x1D3 JUMPI POP POP POP DUP4 DUP4 ADD DUP6 ADD MSTORE ISZERO ISZERO PUSH1 0xA0 DUP4 ADD MSTORE PUSH1 0x1F ADD PUSH1 0x1F NOT AND DUP2 ADD SUB ADD SWAP1 RETURN JUMPDEST DUP2 DUP2 ADD DUP4 ADD MLOAD DUP10 DUP3 ADD DUP10 ADD MSTORE DUP9 SWAP7 POP DUP3 ADD PUSH2 0x1AE JUMP JUMPDEST DUP10 MSTORE DUP8 DUP10 KECCAK256 DUP9 SWAP4 POP DUP10 SWAP3 SWAP2 SWAP1 JUMPDEST DUP3 DUP5 LT PUSH2 0x20E JUMPI POP POP POP DUP3 ADD ADD PUSH2 0x182 DUP3 PUSH1 0xFF PUSH2 0x165 JUMP JUMPDEST DUP5 SWAP3 SWAP6 DUP3 SWAP6 DUP6 DUP4 SLOAD SWAP3 ADD ADD MSTORE ADD SWAP2 ADD SWAP1 SWAP3 DUP8 SWAP3 DUP12 SWAP5 PUSH2 0x1F6 JUMP JUMPDEST PUSH1 0xFF NOT AND DUP8 DUP3 ADD MSTORE SWAP4 ISZERO ISZERO PUSH1 0x5 SHL DUP7 ADD SWAP1 SWAP4 ADD SWAP4 POP PUSH2 0x182 SWAP3 POP DUP5 SWAP2 POP PUSH1 0xFF SWAP1 POP PUSH2 0x165 JUMP JUMPDEST DUP1 REVERT JUMPDEST POP DUP1 REVERT JUMPDEST DUP3 CALLVALUE PUSH2 0x24E JUMPI PUSH1 0x20 CALLDATASIZE PUSH1 0x3 NOT ADD SLT PUSH2 0x24E JUMPI PUSH2 0x26F PUSH2 0x113E JUMP JUMPDEST PUSH2 0x277 PUSH2 0x11DE JUMP JUMPDEST PUSH1 0x1 PUSH1 0x1 PUSH1 0xA0 SHL SUB SWAP1 DUP2 AND SWAP1 DUP2 ISZERO PUSH2 0x2CC JUMPI PUSH1 0x0 SLOAD DUP3 PUSH12 0xFFFFFFFFFFFFFFFFFFFFFFFF PUSH1 0xA0 SHL DUP3 AND OR PUSH1 0x0 SSTORE AND PUSH32 0x8BE0079C531659141344CD1FD0A4F28419497F9722A3DAAFE3B4186F6B6457E0 PUSH1 0x0 DUP1 LOG3 DUP1 RETURN JUMPDEST PUSH1 0x40 MLOAD PUSH4 0x1E4FBDF7 PUSH1 0xE0 SHL DUP2 MSTORE PUSH1 0x4 DUP2 ADD DUP5 SWAP1 MSTORE PUSH1 0x24 SWAP1 REVERT JUMPDEST DUP3 CALLVALUE PUSH2 0x24E JUMPI DUP1 PUSH1 0x3 NOT CALLDATASIZE ADD SLT PUSH2 0x24E JUMPI PUSH1 0x40 MLOAD PUSH32 0x0 PUSH1 0x1 PUSH1 0x1 PUSH1 0xA0 SHL SUB AND DUP2 MSTORE PUSH1 0x20 SWAP1 RETURN JUMPDEST DUP3 CALLVALUE PUSH2 0x24E JUMPI PUSH1 0x20 CALLDATASIZE PUSH1 0x3 NOT ADD SLT PUSH2 0x24E JUMPI PUSH1 0x40 PUSH1 0x20 SWAP2 PUSH1 0x4 CALLDATALOAD DUP2 MSTORE PUSH1 0x1 DUP4 MSTORE KECCAK256 PUSH1 0x3 DUP2 ADD SLOAD ISZERO ISZERO SWAP1 DUP2 PUSH2 0x364 JUMPI JUMPDEST POP PUSH1 0x40 MLOAD SWAP1 ISZERO ISZERO DUP2 MSTORE RETURN JUMPDEST PUSH1 0xFF SWAP2 POP PUSH1 0x5 ADD SLOAD AND ISZERO DUP3 PUSH2 0x359 JUMP JUMPDEST DUP3 CALLVALUE PUSH2 0x24E JUMPI PUSH1 0x20 DUP1 PUSH1 0x3 NOT CALLDATASIZE ADD SLT PUSH2 0x251 JUMPI PUSH1 0x4 CALLDATALOAD SWAP1 CALLER DUP4 MSTORE PUSH1 0x3 DUP2 MSTORE PUSH1 0x40 DUP4 KECCAK256 DUP3 DUP5 MSTORE DUP2 MSTORE PUSH1 0xFF PUSH1 0x40 DUP5 KECCAK256 SLOAD AND ISZERO PUSH2 0x442 JUMPI DUP2 DUP4 MSTORE PUSH1 0x1 DUP2 MSTORE PUSH1 0x3 PUSH1 0x40 DUP5 KECCAK256 ADD SLOAD ISZERO PUSH2 0x3FE JUMPI PUSH1 0x1 SWAP1 DUP3 DUP5 MSTORE MSTORE PUSH1 0x5 PUSH1 0x40 DUP4 KECCAK256 ADD PUSH1 0x1 PUSH1 0xFF NOT DUP3 SLOAD AND OR SWAP1 SSTORE CALLER SWAP1 PUSH32 0xA0A82998AD63DB9F7783440D8888DEC76D623BD35951C4A82D2750053E721681 DUP4 DUP1 LOG3 DUP1 RETURN JUMPDEST PUSH1 0x64 SWAP1 PUSH1 0x40 MLOAD SWAP1 PUSH3 0x461BCD PUSH1 0xE5 SHL DUP3 MSTORE PUSH1 0x4 DUP3 ADD MSTORE PUSH1 0x1B PUSH1 0x24 DUP3 ADD MSTORE PUSH32 0x52656769737472793A20696E766F696365206E6F7420666F756E640000000000 PUSH1 0x44 DUP3 ADD MSTORE REVERT JUMPDEST PUSH1 0x64 SWAP1 PUSH1 0x40 MLOAD SWAP1 PUSH3 0x461BCD PUSH1 0xE5 SHL DUP3 MSTORE PUSH1 0x4 DUP3 ADD MSTORE PUSH1 0x13 PUSH1 0x24 DUP3 ADD MSTORE PUSH19 0x52656769737472793A206E6F20616363657373 PUSH1 0x68 SHL PUSH1 0x44 DUP3 ADD MSTORE REVERT JUMPDEST DUP3 CALLVALUE PUSH2 0x24E JUMPI PUSH1 0x40 CALLDATASIZE PUSH1 0x3 NOT ADD SLT PUSH2 0x24E JUMPI PUSH2 0x496 PUSH2 0x113E JUMP JUMPDEST PUSH1 0x1 PUSH1 0x1 PUSH1 0xA0 SHL SUB AND DUP2 MSTORE PUSH1 0x2 PUSH1 0x20 MSTORE PUSH1 0x40 DUP2 KECCAK256 DUP1 SLOAD PUSH1 0x24 CALLDATALOAD SWAP3 SWAP1 DUP4 LT ISZERO PUSH2 0x24E JUMPI PUSH1 0x20 PUSH2 0x4C4 DUP5 DUP5 PUSH2 0x1154 JUMP JUMPDEST SWAP1 SLOAD PUSH1 0x40 MLOAD SWAP2 PUSH1 0x3 SHL SHR DUP2 MSTORE RETURN JUMPDEST DUP3 CALLVALUE PUSH2 0x24E JUMPI DUP1 PUSH1 0x3 NOT CALLDATASIZE ADD SLT PUSH2 0x24E JUMPI PUSH1 0x40 MLOAD PUSH32 0x0 PUSH1 0x1 PUSH1 0x1 PUSH1 0xA0 SHL SUB AND DUP2 MSTORE PUSH1 0x20 SWAP1 RETURN JUMPDEST DUP3 CALLVALUE PUSH2 0x24E JUMPI PUSH1 0x40 CALLDATASIZE PUSH1 0x3 NOT ADD SLT PUSH2 0x24E JUMPI PUSH1 0x1 PUSH1 0x1 PUSH1 0xA0 SHL SUB PUSH1 0x24 CALLDATALOAD DUP2 DUP2 AND SWAP2 PUSH1 0x4 CALLDATALOAD SWAP2 DUP4 SWAP1 SUB PUSH2 0x5E7 JUMPI DUP2 DUP5 MSTORE PUSH1 0x1 PUSH1 0x20 MSTORE PUSH1 0x2 PUSH1 0x40 DUP6 KECCAK256 ADD SLOAD AND CALLER SUB PUSH2 0x5A2 JUMPI DUP2 DUP4 MSTORE PUSH1 0x3 PUSH1 0x20 MSTORE PUSH1 0x40 DUP4 KECCAK256 DUP2 DUP5 MSTORE PUSH1 0x20 MSTORE PUSH1 0x40 DUP4 KECCAK256 PUSH1 0x1 PUSH1 0xFF NOT DUP3 SLOAD AND OR SWAP1 SSTORE PUSH32 0x4BE917EF4556AB00631259AB945966E4403C595BD0E3891BEF925C7052DA9544 DUP4 DUP1 LOG3 DUP1 RETURN JUMPDEST PUSH1 0x40 MLOAD PUSH3 0x461BCD PUSH1 0xE5 SHL DUP2 MSTORE PUSH1 0x20 PUSH1 0x4 DUP3 ADD MSTORE PUSH1 0x1A PUSH1 0x24 DUP3 ADD MSTORE PUSH32 0x52656769737472793A206E6F7420796F757220696E766F696365000000000000 PUSH1 0x44 DUP3 ADD MSTORE PUSH1 0x64 SWAP1 REVERT JUMPDEST PUSH1 0x0 DUP1 REVERT JUMPDEST DUP3 CALLVALUE PUSH2 0x24E JUMPI DUP1 PUSH1 0x3 NOT CALLDATASIZE ADD SLT PUSH2 0x24E JUMPI SLOAD PUSH1 0x40 MLOAD PUSH1 0x1 PUSH1 0x1 PUSH1 0xA0 SHL SUB SWAP1 SWAP2 AND DUP2 MSTORE PUSH1 0x20 SWAP1 RETURN JUMPDEST DUP3 CALLVALUE PUSH2 0x24E JUMPI DUP1 PUSH1 0x3 NOT CALLDATASIZE ADD SLT PUSH2 0x24E JUMPI PUSH2 0x62C PUSH2 0x11DE JUMP JUMPDEST PUSH2 0x634 PUSH2 0x1222 JUMP JUMPDEST DUP1 SLOAD PUSH1 0xFF PUSH1 0xA0 SHL NOT AND PUSH1 0x1 PUSH1 0xA0 SHL OR DUP2 SSTORE PUSH1 0x40 MLOAD CALLER DUP2 MSTORE PUSH32 0x62E78CEA01BEE320CD4E420270B5EA74000D11B0C9F74754EBDBFC544B05A258 SWAP1 PUSH1 0x20 SWAP1 LOG1 DUP1 RETURN JUMPDEST DUP3 CALLVALUE PUSH2 0x24E JUMPI DUP1 PUSH1 0x3 NOT CALLDATASIZE ADD SLT PUSH2 0x24E JUMPI PUSH2 0x68D PUSH2 0x11DE JUMP JUMPDEST PUSH1 0x0 DUP1 SLOAD PUSH1 0x1 PUSH1 0x1 PUSH1 0xA0 SHL SUB NOT DUP2 AND DUP3 SSTORE PUSH1 0x1 PUSH1 0x1 PUSH1 0xA0 SHL SUB AND PUSH32 0x8BE0079C531659141344CD1FD0A4F28419497F9722A3DAAFE3B4186F6B6457E0 DUP3 DUP1 LOG3 DUP1 RETURN JUMPDEST DUP3 CALLVALUE PUSH2 0x24E JUMPI PUSH2 0x2A0 CALLDATASIZE PUSH1 0x3 NOT ADD SLT PUSH2 0x24E JUMPI CALLDATASIZE PUSH1 0x44 GT PUSH2 0x24E JUMPI CALLDATASIZE PUSH1 0xC4 GT PUSH2 0x24E JUMPI CALLDATASIZE PUSH2 0x104 GT PUSH2 0x24E JUMPI CALLDATASIZE PUSH2 0x144 GT PUSH2 0x24E JUMPI PUSH8 0xFFFFFFFFFFFFFFFF PUSH2 0x164 CALLDATALOAD GT PUSH2 0x24E JUMPI CALLDATASIZE PUSH1 0x23 PUSH2 0x164 CALLDATALOAD ADD SLT ISZERO PUSH2 0x24E JUMPI PUSH8 0xFFFFFFFFFFFFFFFF PUSH2 0x164 CALLDATALOAD PUSH1 0x4 ADD CALLDATALOAD GT PUSH2 0x24E JUMPI CALLDATASIZE PUSH1 0x24 PUSH2 0x164 CALLDATALOAD PUSH1 0x4 ADD CALLDATALOAD PUSH2 0x164 CALLDATALOAD ADD ADD GT PUSH2 0x24E JUMPI CALLDATASIZE PUSH2 0x1C4 GT PUSH2 0x24E JUMPI CALLDATASIZE PUSH2 0x244 GT PUSH2 0x24E JUMPI CALLDATASIZE PUSH2 0x284 GT PUSH2 0x24E JUMPI CALLDATASIZE PUSH2 0x2A4 GT PUSH2 0x24E JUMPI PUSH1 0x2 PUSH32 0x9B779B17422D0DF92223018B32B4D1FA46E071723D6817E2486D003BECC55F00 SLOAD EQ PUSH2 0xF06 JUMPI PUSH1 0x2 PUSH32 0x9B779B17422D0DF92223018B32B4D1FA46E071723D6817E2486D003BECC55F00 SSTORE PUSH2 0x7C8 PUSH2 0x1222 JUMP JUMPDEST PUSH1 0x1 PUSH2 0x124 CALLDATALOAD SUB PUSH2 0xEAD JUMPI PUSH2 0x104 CALLDATALOAD DUP2 MSTORE PUSH1 0x1 PUSH1 0x20 MSTORE PUSH1 0x3 PUSH1 0x40 DUP3 KECCAK256 ADD SLOAD PUSH2 0xE68 JUMPI PUSH2 0x164 CALLDATALOAD PUSH1 0x4 ADD CALLDATALOAD ISZERO PUSH2 0xE23 JUMPI PUSH1 0x40 DUP1 MLOAD PUSH4 0xFB1631D PUSH1 0xE3 SHL DUP2 MSTORE SWAP1 PUSH2 0x184 PUSH1 0x4 DUP4 ADD CALLDATACOPY PUSH2 0x1C4 DUP3 PUSH1 0x44 DUP4 ADD JUMPDEST PUSH1 0x2 DUP3 LT PUSH2 0xE0D JUMPI POP POP POP PUSH1 0x40 PUSH2 0x244 PUSH1 0xC4 DUP4 ADD CALLDATACOPY PUSH1 0x20 PUSH2 0x284 PUSH2 0x104 DUP4 ADD CALLDATACOPY PUSH2 0x104 CALLDATALOAD PUSH2 0x124 DUP3 ADD MSTORE PUSH1 0x20 DUP2 PUSH2 0x144 DUP2 DUP6 PUSH32 0x0 PUSH1 0x1 PUSH1 0x1 PUSH1 0xA0 SHL SUB AND GAS CALL SWAP1 DUP2 ISZERO PUSH2 0xD3A JUMPI DUP3 SWAP2 PUSH2 0xDEE JUMPI JUMPDEST POP ISZERO PUSH2 0xD8A JUMPI DUP1 PUSH32 0x0 PUSH1 0x1 PUSH1 0x1 PUSH1 0xA0 SHL SUB AND DUP1 EXTCODESIZE ISZERO PUSH2 0xD87 JUMPI DUP2 SWAP1 PUSH1 0x24 PUSH1 0x40 MLOAD DUP1 SWAP5 DUP2 SWAP4 PUSH4 0x2AE09025 PUSH1 0xE2 SHL DUP4 MSTORE CALLER PUSH1 0x4 DUP5 ADD MSTORE GAS CALL DUP1 ISZERO PUSH2 0xD3A JUMPI PUSH2 0xD5B JUMPI JUMPDEST POP PUSH1 0x40 DUP1 MLOAD PUSH4 0x7AE4EB4F PUSH1 0xE1 SHL DUP2 MSTORE SWAP1 PUSH1 0x4 DUP1 DUP4 ADD CALLDATACOPY PUSH1 0x44 PUSH1 0x0 DUP3 DUP3 ADD JUMPDEST PUSH1 0x2 DUP3 LT PUSH2 0xD45 JUMPI POP POP POP PUSH1 0x40 PUSH1 0xC4 DUP1 DUP4 ADD CALLDATACOPY PUSH1 0x40 PUSH2 0x104 DUP1 DUP4 ADD CALLDATACOPY PUSH1 0x20 DUP2 PUSH2 0x144 DUP2 PUSH32 0x0 PUSH1 0x1 PUSH1 0x1 PUSH1 0xA0 SHL SUB AND GAS STATICCALL SWAP1 DUP2 ISZERO PUSH2 0xD3A JUMPI DUP3 SWAP2 PUSH2 0xD0B JUMPI JUMPDEST POP ISZERO PUSH2 0xCC6 JUMPI PUSH1 0x40 MLOAD PUSH1 0xC0 DUP2 ADD DUP2 DUP2 LT PUSH8 0xFFFFFFFFFFFFFFFF DUP3 GT OR PUSH2 0xCB0 JUMPI PUSH1 0x40 MSTORE PUSH2 0x104 CALLDATALOAD DUP2 MSTORE PUSH2 0x144 CALLDATALOAD PUSH1 0x20 DUP3 ADD MSTORE CALLER PUSH1 0x40 DUP3 ADD MSTORE TIMESTAMP PUSH1 0x60 DUP3 ADD MSTORE PUSH1 0x40 MLOAD PUSH2 0x9BA PUSH1 0x20 PUSH1 0x1F NOT PUSH1 0x1F PUSH2 0x164 CALLDATALOAD PUSH1 0x4 ADD CALLDATALOAD ADD AND ADD DUP3 PUSH2 0x11BC JUMP JUMPDEST PUSH2 0x164 CALLDATALOAD PUSH1 0x4 DUP2 ADD CALLDATALOAD DUP1 DUP4 MSTORE SWAP1 PUSH1 0x24 ADD PUSH1 0x20 DUP4 ADD CALLDATACOPY DUP3 PUSH1 0x20 PUSH2 0x164 CALLDATALOAD PUSH1 0x4 ADD CALLDATALOAD DUP4 ADD ADD MSTORE PUSH1 0x80 DUP3 ADD SWAP1 DUP2 MSTORE DUP3 PUSH1 0xA0 DUP4 ADD MSTORE PUSH2 0x104 CALLDATALOAD DUP4 MSTORE PUSH1 0x1 PUSH1 0x20 MSTORE PUSH1 0x40 DUP4 KECCAK256 SWAP1 DUP3 MLOAD DUP3 SSTORE PUSH1 0x20 DUP4 ADD MLOAD PUSH1 0x1 DUP4 ADD SSTORE PUSH1 0x2 DUP3 ADD PUSH1 0x1 DUP1 PUSH1 0xA0 SHL SUB PUSH1 0x40 DUP6 ADD MLOAD AND PUSH12 0xFFFFFFFFFFFFFFFFFFFFFFFF PUSH1 0xA0 SHL DUP3 SLOAD AND OR SWAP1 SSTORE PUSH1 0x60 DUP4 ADD MLOAD PUSH1 0x3 DUP4 ADD SSTORE MLOAD DUP1 MLOAD SWAP1 PUSH8 0xFFFFFFFFFFFFFFFF DUP3 GT PUSH2 0xC9C JUMPI PUSH2 0xA5A PUSH1 0x4 DUP5 ADD SLOAD PUSH2 0x1182 JUMP JUMPDEST PUSH1 0x1F DUP2 GT PUSH2 0xC57 JUMPI JUMPDEST POP PUSH1 0x20 SWAP1 PUSH1 0x1F DUP4 GT PUSH1 0x1 EQ PUSH2 0xBE5 JUMPI SWAP2 DUP1 PUSH1 0xA0 SWAP5 SWAP3 PUSH1 0x5 SWAP5 DUP9 SWAP3 PUSH2 0xBDA JUMPI JUMPDEST POP POP DUP2 PUSH1 0x1 SHL SWAP2 PUSH1 0x0 NOT SWAP1 PUSH1 0x3 SHL SHR NOT AND OR PUSH1 0x4 DUP3 ADD SSTORE JUMPDEST ADD SWAP2 ADD MLOAD ISZERO ISZERO PUSH1 0xFF DUP1 NOT DUP4 SLOAD AND SWAP2 AND OR SWAP1 SSTORE CALLER DUP2 MSTORE PUSH1 0x2 PUSH1 0x20 MSTORE PUSH1 0x40 DUP2 KECCAK256 DUP1 SLOAD SWAP1 PUSH9 0x10000000000000000 DUP3 LT ISZERO PUSH2 0xBC6 JUMPI SWAP1 PUSH2 0xADC SWAP2 PUSH1 0x1 DUP3 ADD DUP2 SSTORE PUSH2 0x1154 JUMP JUMPDEST SWAP1 DUP1 SLOAD SWAP2 PUSH1 0x3 SHL PUSH1 0x0 NOT SWAP3 DUP4 PUSH2 0x104 CALLDATALOAD DUP4 SHL SWAP3 SHL NOT AND OR SWAP1 SSTORE PUSH1 0x4 SLOAD SWAP1 DUP2 EQ PUSH2 0xBB2 JUMPI PUSH1 0x1 ADD PUSH1 0x4 SSTORE PUSH1 0x40 MLOAD PUSH1 0x60 DUP2 MSTORE PUSH2 0x164 CALLDATALOAD PUSH1 0x4 ADD CALLDATALOAD PUSH1 0x60 DUP3 ADD MSTORE PUSH2 0x164 CALLDATALOAD PUSH1 0x4 ADD CALLDATALOAD PUSH1 0x24 PUSH2 0x164 CALLDATALOAD ADD PUSH1 0x80 DUP4 ADD CALLDATACOPY DUP2 PUSH1 0x80 PUSH2 0x164 CALLDATALOAD PUSH1 0x4 ADD CALLDATALOAD DUP4 ADD ADD MSTORE PUSH2 0x144 CALLDATALOAD PUSH1 0x20 DUP3 ADD MSTORE TIMESTAMP PUSH1 0x40 DUP3 ADD MSTORE CALLER SWAP1 PUSH32 0xCF4AC303971C2E55839B19CA7227F426C4E1CAF7E50FBAFB20DB83CA2D63A110 PUSH2 0x104 CALLDATALOAD SWAP2 PUSH1 0x80 DUP2 PUSH1 0x1F NOT PUSH1 0x1F PUSH2 0x164 CALLDATALOAD PUSH1 0x4 ADD CALLDATALOAD ADD AND DUP2 ADD SUB ADD SWAP1 LOG3 PUSH1 0x1 PUSH32 0x9B779B17422D0DF92223018B32B4D1FA46E071723D6817E2486D003BECC55F00 SSTORE DUP1 RETURN JUMPDEST PUSH4 0x4E487B71 PUSH1 0xE0 SHL DUP3 MSTORE PUSH1 0x11 PUSH1 0x4 MSTORE PUSH1 0x24 DUP3 REVERT JUMPDEST PUSH4 0x4E487B71 PUSH1 0xE0 SHL DUP4 MSTORE PUSH1 0x41 PUSH1 0x4 MSTORE PUSH1 0x24 DUP4 REVERT JUMPDEST ADD MLOAD SWAP1 POP DUP8 DUP1 PUSH2 0xA82 JUMP JUMPDEST SWAP1 PUSH1 0x4 DUP5 ADD DUP7 MSTORE PUSH1 0x20 DUP7 KECCAK256 SWAP2 DUP7 JUMPDEST PUSH1 0x1F NOT DUP6 AND DUP2 LT PUSH2 0xC3F JUMPI POP SWAP3 PUSH1 0xA0 SWAP5 SWAP3 PUSH1 0x1 SWAP3 PUSH1 0x5 SWAP6 DUP4 PUSH1 0x1F NOT DUP2 AND LT PUSH2 0xC26 JUMPI JUMPDEST POP POP POP DUP2 SHL ADD PUSH1 0x4 DUP3 ADD SSTORE PUSH2 0xA9A JUMP JUMPDEST ADD MLOAD PUSH1 0x0 NOT PUSH1 0xF8 DUP5 PUSH1 0x3 SHL AND SHR NOT AND SWAP1 SSTORE DUP8 DUP1 DUP1 PUSH2 0xC16 JUMP JUMPDEST SWAP2 SWAP3 PUSH1 0x20 PUSH1 0x1 DUP2 SWAP3 DUP7 DUP6 ADD MLOAD DUP2 SSTORE ADD SWAP5 ADD SWAP3 ADD PUSH2 0xBF3 JUMP JUMPDEST PUSH1 0x4 DUP5 ADD DUP7 MSTORE PUSH1 0x20 DUP7 KECCAK256 PUSH1 0x1F DUP5 ADD PUSH1 0x5 SHR DUP2 ADD PUSH1 0x20 DUP6 LT PUSH2 0xC95 JUMPI JUMPDEST PUSH1 0x1F DUP4 ADD PUSH1 0x5 SHR DUP3 ADD DUP2 LT PUSH2 0xC89 JUMPI POP POP PUSH2 0xA63 JUMP JUMPDEST PUSH1 0x0 DUP2 SSTORE PUSH1 0x1 ADD PUSH2 0xC73 JUMP JUMPDEST POP DUP1 PUSH2 0xC73 JUMP JUMPDEST PUSH4 0x4E487B71 PUSH1 0xE0 SHL DUP6 MSTORE PUSH1 0x41 PUSH1 0x4 MSTORE PUSH1 0x24 DUP6 REVERT JUMPDEST PUSH4 0x4E487B71 PUSH1 0xE0 SHL PUSH1 0x0 MSTORE PUSH1 0x41 PUSH1 0x4 MSTORE PUSH1 0x24 PUSH1 0x0 REVERT JUMPDEST PUSH1 0x40 MLOAD PUSH3 0x461BCD PUSH1 0xE5 SHL DUP2 MSTORE PUSH1 0x20 PUSH1 0x4 DUP3 ADD MSTORE PUSH1 0x1A PUSH1 0x24 DUP3 ADD MSTORE PUSH32 0x52656769737472793A20696E76616C6964205A4B2070726F6F66000000000000 PUSH1 0x44 DUP3 ADD MSTORE PUSH1 0x64 SWAP1 REVERT JUMPDEST PUSH2 0xD2D SWAP2 POP PUSH1 0x20 RETURNDATASIZE PUSH1 0x20 GT PUSH2 0xD33 JUMPI JUMPDEST PUSH2 0xD25 DUP2 DUP4 PUSH2 0x11BC JUMP JUMPDEST DUP2 ADD SWAP1 PUSH2 0x120A JUMP JUMPDEST DUP3 PUSH2 0x95E JUMP JUMPDEST POP RETURNDATASIZE PUSH2 0xD1B JUMP JUMPDEST PUSH1 0x40 MLOAD RETURNDATASIZE DUP5 DUP3 RETURNDATACOPY RETURNDATASIZE SWAP1 REVERT JUMPDEST PUSH1 0x40 DUP1 DUP3 DUP2 DUP7 PUSH1 0x1 SWAP6 CALLDATACOPY ADD SWAP4 ADD SWAP2 ADD SWAP1 SWAP2 PUSH2 0x901 JUMP JUMPDEST PUSH8 0xFFFFFFFFFFFFFFFF DUP2 GT PUSH2 0xD73 JUMPI PUSH1 0x40 MSTORE DUP2 PUSH2 0x8E3 JUMP JUMPDEST PUSH4 0x4E487B71 PUSH1 0xE0 SHL DUP3 MSTORE PUSH1 0x41 PUSH1 0x4 MSTORE PUSH1 0x24 DUP3 REVERT JUMPDEST POP REVERT JUMPDEST PUSH1 0x40 MLOAD PUSH3 0x461BCD PUSH1 0xE5 SHL DUP2 MSTORE PUSH1 0x20 PUSH1 0x4 DUP3 ADD MSTORE PUSH1 0x36 PUSH1 0x24 DUP3 ADD MSTORE PUSH32 0x52656769737472793A20696E766F69636520666C616767656420617320737573 PUSH1 0x44 DUP3 ADD MSTORE PUSH22 0x1C1A58DA5BDD5CC8189E48199C985D59081B5BD9195B PUSH1 0x52 SHL PUSH1 0x64 DUP3 ADD MSTORE PUSH1 0x84 SWAP1 REVERT JUMPDEST PUSH2 0xE07 SWAP2 POP PUSH1 0x20 RETURNDATASIZE PUSH1 0x20 GT PUSH2 0xD33 JUMPI PUSH2 0xD25 DUP2 DUP4 PUSH2 0x11BC JUMP JUMPDEST DUP3 PUSH2 0x883 JUMP JUMPDEST PUSH1 0x40 DUP1 DUP3 DUP2 DUP7 PUSH1 0x1 SWAP6 CALLDATACOPY ADD SWAP4 ADD SWAP2 ADD SWAP1 SWAP2 PUSH2 0x817 JUMP JUMPDEST PUSH1 0x40 MLOAD PUSH3 0x461BCD PUSH1 0xE5 SHL DUP2 MSTORE PUSH1 0x20 PUSH1 0x4 DUP3 ADD MSTORE PUSH1 0x1B PUSH1 0x24 DUP3 ADD MSTORE PUSH32 0x52656769737472793A2049504653204349442072657175697265640000000000 PUSH1 0x44 DUP3 ADD MSTORE PUSH1 0x64 SWAP1 REVERT JUMPDEST PUSH1 0x40 MLOAD PUSH3 0x461BCD PUSH1 0xE5 SHL DUP2 MSTORE PUSH1 0x20 PUSH1 0x4 DUP3 ADD MSTORE PUSH1 0x1B PUSH1 0x24 DUP3 ADD MSTORE PUSH32 0x52656769737472793A206475706C696361746520696E766F6963650000000000 PUSH1 0x44 DUP3 ADD MSTORE PUSH1 0x64 SWAP1 REVERT JUMPDEST PUSH1 0x40 MLOAD PUSH3 0x461BCD PUSH1 0xE5 SHL DUP2 MSTORE PUSH1 0x20 PUSH1 0x4 DUP3 ADD MSTORE PUSH1 0x2B PUSH1 0x24 DUP3 ADD MSTORE PUSH32 0x52656769737472793A20696E766F69636520636F6E73747261696E7473206E6F PUSH1 0x44 DUP3 ADD MSTORE PUSH11 0x1D081CD85D1A5CD99A5959 PUSH1 0xAA SHL PUSH1 0x64 DUP3 ADD MSTORE PUSH1 0x84 SWAP1 REVERT JUMPDEST PUSH1 0x40 MLOAD PUSH4 0x3EE5AEB5 PUSH1 0xE0 SHL DUP2 MSTORE PUSH1 0x4 SWAP1 REVERT JUMPDEST DUP3 CALLVALUE PUSH2 0x24E JUMPI DUP1 PUSH1 0x3 NOT CALLDATASIZE ADD SLT PUSH2 0x24E JUMPI PUSH1 0x20 PUSH1 0x4 SLOAD PUSH1 0x40 MLOAD SWAP1 DUP2 MSTORE RETURN JUMPDEST DUP3 CALLVALUE PUSH2 0x24E JUMPI DUP1 PUSH1 0x3 NOT CALLDATASIZE ADD SLT PUSH2 0x24E JUMPI PUSH1 0xFF PUSH1 0x20 SWAP2 SLOAD PUSH1 0xA0 SHR AND PUSH1 0x40 MLOAD SWAP1 ISZERO ISZERO DUP2 MSTORE RETURN JUMPDEST DUP3 CALLVALUE PUSH2 0x24E JUMPI DUP1 PUSH1 0x3 NOT CALLDATASIZE ADD SLT PUSH2 0x24E JUMPI PUSH2 0xF74 PUSH2 0x11DE JUMP JUMPDEST DUP1 SLOAD PUSH1 0xFF DUP2 PUSH1 0xA0 SHR AND ISZERO PUSH2 0xFBA JUMPI PUSH1 0xFF PUSH1 0xA0 SHL NOT AND DUP2 SSTORE PUSH1 0x40 MLOAD CALLER DUP2 MSTORE PUSH32 0x5DB9EE0A495BF2E6FF9C91A7834C1BA4FDD244A5E8AA4E537BD38AEAE4B073AA SWAP1 PUSH1 0x20 SWAP1 LOG1 DUP1 RETURN JUMPDEST PUSH1 0x40 MLOAD PUSH4 0x8DFC202B PUSH1 0xE0 SHL DUP2 MSTORE PUSH1 0x4 SWAP1 REVERT JUMPDEST DUP3 CALLVALUE PUSH2 0x24E JUMPI DUP1 PUSH1 0x3 NOT CALLDATASIZE ADD SLT PUSH2 0x24E JUMPI PUSH1 0x40 MLOAD PUSH32 0x0 PUSH1 0x1 PUSH1 0x1 PUSH1 0xA0 SHL SUB AND DUP2 MSTORE PUSH1 0x20 SWAP1 RETURN JUMPDEST DUP3 CALLVALUE PUSH2 0x24E JUMPI PUSH1 0x20 DUP1 PUSH1 0x3 NOT CALLDATASIZE ADD SLT PUSH2 0x251 JUMPI PUSH1 0x1 PUSH1 0x1 PUSH1 0xA0 SHL SUB PUSH2 0x1034 PUSH2 0x113E JUMP JUMPDEST AND DUP3 MSTORE PUSH1 0x2 DUP2 MSTORE PUSH1 0x40 DUP3 KECCAK256 PUSH1 0x40 MLOAD SWAP3 DUP4 DUP4 DUP4 SLOAD SWAP2 DUP3 DUP2 MSTORE ADD SWAP1 DUP2 SWAP4 DUP4 MSTORE DUP5 DUP4 KECCAK256 SWAP1 DUP4 JUMPDEST DUP2 DUP2 LT PUSH2 0x10AB JUMPI POP POP POP DUP5 PUSH2 0x106D SWAP2 SUB DUP6 PUSH2 0x11BC JUMP JUMPDEST PUSH1 0x40 MLOAD SWAP4 DUP4 DUP6 SWAP5 DUP6 ADD SWAP2 DUP2 DUP7 MSTORE MLOAD DUP1 SWAP3 MSTORE PUSH1 0x40 DUP6 ADD SWAP4 SWAP3 JUMPDEST DUP3 DUP2 LT PUSH2 0x1094 JUMPI POP POP POP POP SUB SWAP1 RETURN JUMPDEST DUP4 MLOAD DUP6 MSTORE DUP7 SWAP6 POP SWAP4 DUP2 ADD SWAP4 SWAP3 DUP2 ADD SWAP3 PUSH1 0x1 ADD PUSH2 0x1085 JUMP JUMPDEST DUP3 SLOAD DUP5 MSTORE SWAP3 DUP7 ADD SWAP3 PUSH1 0x1 SWAP3 DUP4 ADD SWAP3 ADD PUSH2 0x1057 JUMP JUMPDEST DUP3 CALLVALUE PUSH2 0x24E JUMPI PUSH1 0x20 CALLDATASIZE PUSH1 0x3 NOT ADD SLT PUSH2 0x24E JUMPI PUSH1 0x20 SWAP1 PUSH1 0x40 SWAP1 PUSH1 0x1 PUSH1 0x1 PUSH1 0xA0 SHL SUB PUSH2 0x10E7 PUSH2 0x113E JUMP JUMPDEST AND DUP2 MSTORE PUSH1 0x2 DUP4 MSTORE KECCAK256 SLOAD PUSH1 0x40 MLOAD SWAP1 DUP2 MSTORE RETURN JUMPDEST DUP4 SWAP1 CALLVALUE PUSH2 0x251 JUMPI PUSH1 0x40 CALLDATASIZE PUSH1 0x3 NOT ADD SLT PUSH2 0x251 JUMPI PUSH1 0x20 SWAP2 PUSH1 0xFF SWAP1 PUSH1 0x40 SWAP1 PUSH1 0x1 PUSH1 0x1 PUSH1 0xA0 SHL SUB PUSH2 0x1124 PUSH2 0x113E JUMP JUMPDEST AND DUP2 MSTORE PUSH1 0x3 DUP6 MSTORE DUP2 DUP2 KECCAK256 PUSH1 0x24 CALLDATALOAD DUP3 MSTORE DUP6 MSTORE KECCAK256 SLOAD AND ISZERO ISZERO DUP2 MSTORE RETURN JUMPDEST PUSH1 0x4 CALLDATALOAD SWAP1 PUSH1 0x1 PUSH1 0x1 PUSH1 0xA0 SHL SUB DUP3 AND DUP3 SUB PUSH2 0x5E7 JUMPI JUMP JUMPDEST DUP1 SLOAD DUP3 LT ISZERO PUSH2 0x116C JUMPI PUSH1 0x0 MSTORE PUSH1 0x20 PUSH1 0x0 KECCAK256 ADD SWAP1 PUSH1 0x0 SWAP1 JUMP JUMPDEST PUSH4 0x4E487B71 PUSH1 0xE0 SHL PUSH1 0x0 MSTORE PUSH1 0x32 PUSH1 0x4 MSTORE PUSH1 0x24 PUSH1 0x0 REVERT JUMPDEST SWAP1 PUSH1 0x1 DUP3 DUP2 SHR SWAP3 AND DUP1 ISZERO PUSH2 0x11B2 JUMPI JUMPDEST PUSH1 0x20 DUP4 LT EQ PUSH2 0x119C JUMPI JUMP JUMPDEST PUSH4 0x4E487B71 PUSH1 0xE0 SHL PUSH1 0x0 MSTORE PUSH1 0x22 PUSH1 0x4 MSTORE PUSH1 0x24 PUSH1 0x0 REVERT JUMPDEST SWAP2 PUSH1 0x7F AND SWAP2 PUSH2 0x1191 JUMP JUMPDEST SWAP1 PUSH1 0x1F DUP1 NOT SWAP2 ADD AND DUP2 ADD SWAP1 DUP2 LT PUSH8 0xFFFFFFFFFFFFFFFF DUP3 GT OR PUSH2 0xCB0 JUMPI PUSH1 0x40 MSTORE JUMP JUMPDEST PUSH1 0x0 SLOAD PUSH1 0x1 PUSH1 0x1 PUSH1 0xA0 SHL SUB AND CALLER SUB PUSH2 0x11F2 JUMPI JUMP JUMPDEST PUSH1 0x40 MLOAD PUSH4 0x118CDAA7 PUSH1 0xE0 SHL DUP2 MSTORE CALLER PUSH1 0x4 DUP3 ADD MSTORE PUSH1 0x24 SWAP1 REVERT JUMPDEST SWAP1 DUP2 PUSH1 0x20 SWAP2 SUB SLT PUSH2 0x5E7 JUMPI MLOAD DUP1 ISZERO ISZERO DUP2 SUB PUSH2 0x5E7 JUMPI SWAP1 JUMP JUMPDEST PUSH1 0xFF PUSH1 0x0 SLOAD PUSH1 0xA0 SHR AND PUSH2 0x1231 JUMPI JUMP JUMPDEST PUSH1 0x40 MLOAD PUSH4 0xD93C0665 PUSH1 0xE0 SHL DUP2 MSTORE PUSH1 0x4 SWAP1 REVERT INVALID LOG2 PUSH5 0x6970667358 0x22 SLT KECCAK256 RETURNDATACOPY LT PUSH30 0x97E610D3DA99B891BBD549A021D8B54CB32E7071416B10D5553D3E2A9464 PUSH20 0x6F6C634300081400330000000000000000000000 "},"methodIdentifiers":{"disputeInvoice(bytes32)":"b970629c","fraudRegistry()":"f2af43cd","getInvoiceCount(address)":"13e5969f","getProviderInvoices(address)":"24b90196","grantInsurerAccess(bytes32,address)":"8f0ce6cd","insurerAccess(address,bytes32)":"02dbe779","invoices(bytes32)":"f8a8a076","isVerified(bytes32)":"c181b273","owner()":"8da5cb5b","pause()":"8456cb59","paused()":"5c975abb","paymentController()":"a05b5961","providerInvoices(address,uint256)":"a4d51686","renounceOwnership()":"715018a6","submitInvoice(uint256[2],uint256[2][2],uint256[2],uint256[2],uint256,string,uint256[2],uint256[2][2],uint256[2],uint256[1])":"62607338","totalInvoices()":"5d7d538a","transferOwnership(address)":"f2fde38b","unpause()":"3f4ba83a","verifier()":"2b7ac3f3"}}}}}