{"contracts/crosschain/BillingBridge.sol":{"BillingBridge":{"abi":[{"inputs":[{"internalType":"address","name":"_pptToken","type":"address"},{"internalType":"address","name":"_relayer","type":"address"}],"stateMutability":"nonpayable","type":"constructor"},{"inputs":[{"internalType":"address","name":"owner","type":"address"}],"name":"OwnableInvalidOwner","type":"error"},{"inputs":[{"internalType":"address","name":"account","type":"address"}],"name":"OwnableUnauthorizedAccount","type":"error"},{"inputs":[],"name":"ReentrancyGuardReentrantCall","type":"error"},{"anonymous":false,"inputs":[{"indexed":true,"internalType":"bytes32","name":"bridgeId","type":"bytes32"}],"name":"BridgeCompleted","type":"event"},{"anonymous":false,"inputs":[{"indexed":true,"internalType":"address","name":"sender","type":"address"},{"indexed":true,"internalType":"address","name":"recipient","type":"address"},{"indexed":false,"internalType":"uint256","name":"amount","type":"uint256"},{"indexed":false,"internalType":"uint256","name":"nonce","type":"uint256"},{"indexed":false,"internalType":"bytes32","name":"bridgeId","type":"bytes32"}],"name":"BridgeInitiated","type":"event"},{"anonymous":false,"inputs":[{"indexed":true,"internalType":"address","name":"previousOwner","type":"address"},{"indexed":true,"internalType":"address","name":"newOwner","type":"address"}],"name":"OwnershipTransferred","type":"event"},{"anonymous":false,"inputs":[{"indexed":true,"internalType":"bytes32","name":"commitment","type":"bytes32"},{"indexed":true,"internalType":"address","name":"provider","type":"address"},{"indexed":false,"internalType":"string","name":"ipfsCID","type":"string"},{"indexed":false,"internalType":"uint256","name":"timestamp","type":"uint256"}],"name":"ProofBridged","type":"event"},{"inputs":[{"internalType":"bytes32","name":"commitment","type":"bytes32"},{"internalType":"string","name":"ipfsCID","type":"string"}],"name":"bridgeProof","outputs":[],"stateMutability":"nonpayable","type":"function"},{"inputs":[{"internalType":"uint256","name":"amount","type":"uint256"},{"internalType":"address","name":"recipient","type":"address"}],"name":"bridgeTokens","outputs":[{"internalType":"bytes32","name":"bridgeId","type":"bytes32"}],"stateMutability":"nonpayable","type":"function"},{"inputs":[{"internalType":"bytes32","name":"","type":"bytes32"}],"name":"bridgedCommitments","outputs":[{"internalType":"bool","name":"","type":"bool"}],"stateMutability":"view","type":"function"},{"inputs":[{"internalType":"bytes32","name":"bridgeId","type":"bytes32"}],"name":"confirmBridge","outputs":[],"stateMutability":"nonpayable","type":"function"},{"inputs":[{"internalType":"address","name":"to","type":"address"},{"internalType":"uint256","name":"amount","type":"uint256"}],"name":"emergencyUnlock","outputs":[],"stateMutability":"nonpayable","type":"function"},{"inputs":[],"name":"lockedBalance","outputs":[{"internalType":"uint256","name":"","type":"uint256"}],"stateMutability":"view","type":"function"},{"inputs":[{"internalType":"address","name":"","type":"address"}],"name":"nonces","outputs":[{"internalType":"uint256","name":"","type":"uint256"}],"stateMutability":"view","type":"function"},{"inputs":[],"name":"owner","outputs":[{"internalType":"address","name":"","type":"address"}],"stateMutability":"view","type":"function"},{"inputs":[],"name":"pptToken","outputs":[{"internalType":"contract IERC20","name":"","type":"address"}],"stateMutability":"view","type":"function"},{"inputs":[],"name":"relayer","outputs":[{"internalType":"address","name":"","type":"address"}],"stateMutability":"view","type":"function"},{"inputs":[],"name":"renounceOwnership","outputs":[],"stateMutability":"nonpayable","type":"function"},{"inputs":[{"internalType":"address","name":"_relayer","type":"address"}],"name":"setRelayer","outputs":[],"stateMutability":"nonpayable","type":"function"},{"inputs":[{"internalType":"address","name":"newOwner","type":"address"}],"name":"transferOwnership","outputs":[],"stateMutability":"nonpayable","type":"function"}],"evm":{"bytecode":{"linkReferences":{},"object":"60a03461011e57601f610b0238819003918201601f19168301916001600160401b0383118484101761012357808492604094855283398101031261011e57610052602061004b83610139565b9201610139565b33156101055760008054336001600160a01b0319808316821784556040519590946001600160a01b03949093859391908416907f8be0079c531659141344cd1fd0a4f28419497f9722a3daafe3b4186f6b6457e09080a360017f9b779b17422d0df92223018b32b4d1fa46e071723d6817e2486d003becc55f005516608052169060035416176003556109b4908161014e8239608051818181610264015281816106060152818161069e01526107c60152f35b604051631e4fbdf760e01b815260006004820152602490fd5b600080fd5b634e487b7160e01b600052604160045260246000fd5b51906001600160a01b038216820361011e5756fe608060408181526004908136101561001657600080fd5b600092833560e01c9081632e92df2c14610820575083816345bf8f9f1461076f575080636548e9bc1461072a578063715018a6146106cd5780637b5b50e7146106895780637b80889b146105d95780637ecebe00146105a15780638406c079146105785780638da5cb5b1461054c578063f19cd9811461051f578063f2fde38b14610498578063f6363e75146101f85763f9c4ba4c146100b557600080fd5b346101f457806003193601126101f45781359060243567ffffffffffffffff938482116101f057366023830112156101f057818101359485116101f05736602486840101116101f05761010661093c565b838652600260205260ff83872054166101ad5750908360247fd4f1086ad1aa7e8ebe3c1628ade604030416c620bb7662c4ceebeff04d8065f6938588526002602052838820600160ff198254161790558284519480865285015201606083013784606085830101524260208201526060813395601f80199101168101030190a360017f9b779b17422d0df92223018b32b4d1fa46e071723d6817e2486d003becc55f005580f35b606490602084519162461bcd60e51b8352820152601760248201527f4272696467653a20616c726561647920627269646765640000000000000000006044820152fd5b8580fd5b8280fd5b50346101f457806003193601126101f45760249182356001600160a01b0381811692918235918482036104945761022d61093c565b8215610452578415610410579087918651906323b872dd60e01b8252338683015230898301528460448301528160648160209c8d947f0000000000000000000000000000000000000000000000000000000000000000165af19081156104065783916103d9575b5015610397573382526001885285822080549790600019891461038557600189019055865192898401923360601b84526bffffffffffffffffffffffff199060601b1660348501528460488501528860688501524660888501526088845260c084019584871067ffffffffffffffff88111761037557505050906101009184875281519020968793855260e082015201527f4ad419816488893c81abac7d755388622161820e56d67b3dc641179cd5a0557060603392a360017f9b779b17422d0df92223018b32b4d1fa46e071723d6817e2486d003becc55f005551908152f35b634e487b7160e01b825260419052fd5b50634e487b7160e01b83526011855282fd5b855162461bcd60e51b81528085018990526017818901527f4272696467653a207472616e73666572206661696c65640000000000000000006044820152606490fd5b6103f99150893d8b116103ff575b6103f181836108ec565b810190610924565b38610294565b503d6103e7565b87513d85823e3d90fd5b855162461bcd60e51b81526020818601526019818901527f4272696467653a20696e76616c696420726563697069656e74000000000000006044820152606490fd5b855162461bcd60e51b8152602081860152601a818901527f4272696467653a20616d6f756e74206d757374206265203e20300000000000006044820152606490fd5b8780fd5b5090346101f45760203660031901126101f4576104b36108a5565b906104bc6108c0565b6001600160a01b0391821692831561050957505082546001600160a01b0319811683178455167f8be0079c531659141344cd1fd0a4f28419497f9722a3daafe3b4186f6b6457e08380a380f35b51631e4fbdf760e01b8152908101849052602490fd5b5090346101f45760203660031901126101f4578160209360ff923581526002855220541690519015158152f35b838234610574578160031936011261057457905490516001600160a01b039091168152602090f35b5080fd5b83823461057457816003193601126105745760035490516001600160a01b039091168152602090f35b8382346105745760203660031901126105745760209181906001600160a01b036105c96108a5565b1681526001845220549051908152f35b50346101f457826003193601126101f45780516370a0823160e01b815230928101929092526020826024817f00000000000000000000000000000000000000000000000000000000000000006001600160a01b03165afa91821561067f578392610648575b6020838351908152f35b9091506020813d8211610677575b81610663602093836108ec565b810103126101f4576020925051903861063e565b3d9150610656565b81513d85823e3d90fd5b838234610574578160031936011261057457517f00000000000000000000000000000000000000000000000000000000000000006001600160a01b03168152602090f35b83346107275780600319360112610727576106e66108c0565b80546001600160a01b03198116825581906001600160a01b03167f8be0079c531659141344cd1fd0a4f28419497f9722a3daafe3b4186f6b6457e08280a380f35b80fd5b8334610727576020366003190112610727576107446108a5565b61074c6108c0565b60018060a01b03166bffffffffffffffffffffffff60a01b600354161760035580f35b9290503461081c578160031936011261081c57602090604461078f6108a5565b916107986108c0565b845163a9059cbb60e01b81526001600160a01b039384169181019190915260248035908201529485928391907f0000000000000000000000000000000000000000000000000000000000000000165af190811561081357506107f8575080f35b61080f9060203d81116103ff576103f181836108ec565b5080f35b513d84823e3d90fd5b5050fd5b915050346101f45760203660031901126101f4576003546001600160a01b0316330361086f5750357ff858475f6ceaf814cde2c67e14c95826e45be5bfd12b07fdb49acbf06ca75a678280a280f35b602060649262461bcd60e51b83528201526013602482015272213934b233b29d103737ba103932b630bcb2b960691b6044820152fd5b600435906001600160a01b03821682036108bb57565b600080fd5b6000546001600160a01b031633036108d457565b60405163118cdaa760e01b8152336004820152602490fd5b90601f8019910116810190811067ffffffffffffffff82111761090e57604052565b634e487b7160e01b600052604160045260246000fd5b908160209103126108bb575180151581036108bb5790565b7f9b779b17422d0df92223018b32b4d1fa46e071723d6817e2486d003becc55f00600281541461096c5760029055565b604051633ee5aeb560e01b8152600490fdfea2646970667358221220274d8331cd0c1e6c1220f69c0d547595e189d70a4696024613fc25fcdb17f3bc64736f6c63430008140033","opcodes":"PUSH1 0xA0 CALLVALUE PUSH2 0x11E JUMPI PUSH1 0x1F PUSH2 0xB02 CODESIZE DUP2 SWAP1 SUB SWAP2 DUP3 ADD PUSH1 0x1F NOT AND DUP4 ADD SWAP2 PUSH1 0x1 PUSH1 0x1 PUSH1 0x40 SHL SUB DUP4 GT DUP5 DUP5 LT OR PUSH2 0x123 JUMPI DUP1 DUP5 SWAP3 PUSH1 0x40 SWAP5 DUP6 MSTORE DUP4 CODECOPY DUP2 ADD SUB SLT PUSH2 0x11E JUMPI PUSH2 0x52 PUSH1 0x20 PUSH2 0x4B DUP4 PUSH2 0x139 JUMP JUMPDEST SWAP3 ADD PUSH2 0x139 JUMP JUMPDEST CALLER ISZERO PUSH2 0x105 JUMPI PUSH1 0x0 DUP1 SLOAD CALLER PUSH1 0x1 PUSH1 0x1 PUSH1 0xA0 SHL SUB NOT DUP1 DUP4 AND DUP3 OR DUP5 SSTORE PUSH1 0x40 MLOAD SWAP6 SWAP1 SWAP5 PUSH1 0x1 PUSH1 0x1 PUSH1 0xA0 SHL SUB SWAP5 SWAP1 SWAP4 DUP6 SWAP4 SWAP2 SWAP1 DUP5 AND SWAP1 PUSH32 0x8BE0079C531659141344CD1FD0A4F28419497F9722A3DAAFE3B4186F6B6457E0 SWAP1 DUP1 LOG3 PUSH1 0x1 PUSH32 0x9B779B17422D0DF92223018B32B4D1FA46E071723D6817E2486D003BECC55F00 SSTORE AND PUSH1 0x80 MSTORE AND SWAP1 PUSH1 0x3 SLOAD AND OR PUSH1 0x3 SSTORE PUSH2 0x9B4 SWAP1 DUP2 PUSH2 0x14E DUP3 CODECOPY PUSH1 0x80 MLOAD DUP2 DUP2 DUP2 PUSH2 0x264 ADD MSTORE DUP2 DUP2 PUSH2 0x606 ADD MSTORE DUP2 DUP2 PUSH2 0x69E ADD MSTORE PUSH2 0x7C6 ADD MSTORE RETURN JUMPDEST PUSH1 0x40 MLOAD PUSH4 0x1E4FBDF7 PUSH1 0xE0 SHL DUP2 MSTORE PUSH1 0x0 PUSH1 0x4 DUP3 ADD MSTORE PUSH1 0x24 SWAP1 REVERT JUMPDEST PUSH1 0x0 DUP1 REVERT JUMPDEST PUSH4 0x4E487B71 PUSH1 0xE0 SHL PUSH1 0x0 MSTORE PUSH1 0x41 PUSH1 0x4 MSTORE PUSH1 0x24 PUSH1 0x0 REVERT JUMPDEST MLOAD SWAP1 PUSH1 0x1 PUSH1 0x1 PUSH1 0xA0 SHL SUB DUP3 AND DUP3 SUB PUSH2 0x11E JUMPI JUMP INVALID PUSH1 0x80 PUSH1 0x40 DUP2 DUP2 MSTORE PUSH1 0x4 SWAP1 DUP2 CALLDATASIZE LT ISZERO PUSH2 0x16 JUMPI PUSH1 0x0 DUP1 REVERT JUMPDEST PUSH1 0x0 SWAP3 DUP4 CALLDATALOAD PUSH1 0xE0 SHR SWAP1 DUP2 PUSH4 0x2E92DF2C EQ PUSH2 0x820 JUMPI POP DUP4 DUP2 PUSH4 0x45BF8F9F EQ PUSH2 0x76F JUMPI POP DUP1 PUSH4 0x6548E9BC EQ PUSH2 0x72A JUMPI DUP1 PUSH4 0x715018A6 EQ PUSH2 0x6CD JUMPI DUP1 PUSH4 0x7B5B50E7 EQ PUSH2 0x689 JUMPI DUP1 PUSH4 0x7B80889B EQ PUSH2 0x5D9 JUMPI DUP1 PUSH4 0x7ECEBE00 EQ PUSH2 0x5A1 JUMPI DUP1 PUSH4 0x8406C079 EQ PUSH2 0x578 JUMPI DUP1 PUSH4 0x8DA5CB5B EQ PUSH2 0x54C JUMPI DUP1 PUSH4 0xF19CD981 EQ PUSH2 0x51F JUMPI DUP1 PUSH4 0xF2FDE38B EQ PUSH2 0x498 JUMPI DUP1 PUSH4 0xF6363E75 EQ PUSH2 0x1F8 JUMPI PUSH4 0xF9C4BA4C EQ PUSH2 0xB5 JUMPI PUSH1 0x0 DUP1 REVERT JUMPDEST CALLVALUE PUSH2 0x1F4 JUMPI DUP1 PUSH1 0x3 NOT CALLDATASIZE ADD SLT PUSH2 0x1F4 JUMPI DUP2 CALLDATALOAD SWAP1 PUSH1 0x24 CALLDATALOAD PUSH8 0xFFFFFFFFFFFFFFFF SWAP4 DUP5 DUP3 GT PUSH2 0x1F0 JUMPI CALLDATASIZE PUSH1 0x23 DUP4 ADD SLT ISZERO PUSH2 0x1F0 JUMPI DUP2 DUP2 ADD CALLDATALOAD SWAP5 DUP6 GT PUSH2 0x1F0 JUMPI CALLDATASIZE PUSH1 0x24 DUP7 DUP5 ADD ADD GT PUSH2 0x1F0 JUMPI PUSH2 0x106 PUSH2 0x93C JUMP JUMPDEST DUP4 DUP7 MSTORE PUSH1 0x2 PUSH1 0x20 MSTORE PUSH1 0xFF DUP4 DUP8 KECCAK256 SLOAD AND PUSH2 0x1AD JUMPI POP SWAP1 DUP4 PUSH1 0x24 PUSH32 0xD4F1086AD1AA7E8EBE3C1628ADE604030416C620BB7662C4CEEBEFF04D8065F6 SWAP4 DUP6 DUP9 MSTORE PUSH1 0x2 PUSH1 0x20 MSTORE DUP4 DUP9 KECCAK256 PUSH1 0x1 PUSH1 0xFF NOT DUP3 SLOAD AND OR SWAP1 SSTORE DUP3 DUP5 MLOAD SWAP5 DUP1 DUP7 MSTORE DUP6 ADD MSTORE ADD PUSH1 0x60 DUP4 ADD CALLDATACOPY DUP5 PUSH1 0x60 DUP6 DUP4 ADD ADD MSTORE TIMESTAMP PUSH1 0x20 DUP3 ADD MSTORE PUSH1 0x60 DUP2 CALLER SWAP6 PUSH1 0x1F DUP1 NOT SWAP2 ADD AND DUP2 ADD SUB ADD SWAP1 LOG3 PUSH1 0x1 PUSH32 0x9B779B17422D0DF92223018B32B4D1FA46E071723D6817E2486D003BECC55F00 SSTORE DUP1 RETURN JUMPDEST PUSH1 0x64 SWAP1 PUSH1 0x20 DUP5 MLOAD SWAP2 PUSH3 0x461BCD PUSH1 0xE5 SHL DUP4 MSTORE DUP3 ADD MSTORE PUSH1 0x17 PUSH1 0x24 DUP3 ADD MSTORE PUSH32 0x4272696467653A20616C72656164792062726964676564000000000000000000 PUSH1 0x44 DUP3 ADD MSTORE REVERT JUMPDEST DUP6 DUP1 REVERT JUMPDEST DUP3 DUP1 REVERT JUMPDEST POP CALLVALUE PUSH2 0x1F4 JUMPI DUP1 PUSH1 0x3 NOT CALLDATASIZE ADD SLT PUSH2 0x1F4 JUMPI PUSH1 0x24 SWAP2 DUP3 CALLDATALOAD PUSH1 0x1 PUSH1 0x1 PUSH1 0xA0 SHL SUB DUP2 DUP2 AND SWAP3 SWAP2 DUP3 CALLDATALOAD SWAP2 DUP5 DUP3 SUB PUSH2 0x494 JUMPI PUSH2 0x22D PUSH2 0x93C JUMP JUMPDEST DUP3 ISZERO PUSH2 0x452 JUMPI DUP5 ISZERO PUSH2 0x410 JUMPI SWAP1 DUP8 SWAP2 DUP7 MLOAD SWAP1 PUSH4 0x23B872DD PUSH1 0xE0 SHL DUP3 MSTORE CALLER DUP7 DUP4 ADD MSTORE ADDRESS DUP10 DUP4 ADD MSTORE DUP5 PUSH1 0x44 DUP4 ADD MSTORE DUP2 PUSH1 0x64 DUP2 PUSH1 0x20 SWAP13 DUP14 SWAP5 PUSH32 0x0 AND GAS CALL SWAP1 DUP2 ISZERO PUSH2 0x406 JUMPI DUP4 SWAP2 PUSH2 0x3D9 JUMPI JUMPDEST POP ISZERO PUSH2 0x397 JUMPI CALLER DUP3 MSTORE PUSH1 0x1 DUP9 MSTORE DUP6 DUP3 KECCAK256 DUP1 SLOAD SWAP8 SWAP1 PUSH1 0x0 NOT DUP10 EQ PUSH2 0x385 JUMPI PUSH1 0x1 DUP10 ADD SWAP1 SSTORE DUP7 MLOAD SWAP3 DUP10 DUP5 ADD SWAP3 CALLER PUSH1 0x60 SHL DUP5 MSTORE PUSH12 0xFFFFFFFFFFFFFFFFFFFFFFFF NOT SWAP1 PUSH1 0x60 SHL AND PUSH1 0x34 DUP6 ADD MSTORE DUP5 PUSH1 0x48 DUP6 ADD MSTORE DUP9 PUSH1 0x68 DUP6 ADD MSTORE CHAINID PUSH1 0x88 DUP6 ADD MSTORE PUSH1 0x88 DUP5 MSTORE PUSH1 0xC0 DUP5 ADD SWAP6 DUP5 DUP8 LT PUSH8 0xFFFFFFFFFFFFFFFF DUP9 GT OR PUSH2 0x375 JUMPI POP POP POP SWAP1 PUSH2 0x100 SWAP2 DUP5 DUP8 MSTORE DUP2 MLOAD SWAP1 KECCAK256 SWAP7 DUP8 SWAP4 DUP6 MSTORE PUSH1 0xE0 DUP3 ADD MSTORE ADD MSTORE PUSH32 0x4AD419816488893C81ABAC7D755388622161820E56D67B3DC641179CD5A05570 PUSH1 0x60 CALLER SWAP3 LOG3 PUSH1 0x1 PUSH32 0x9B779B17422D0DF92223018B32B4D1FA46E071723D6817E2486D003BECC55F00 SSTORE MLOAD SWAP1 DUP2 MSTORE RETURN JUMPDEST PUSH4 0x4E487B71 PUSH1 0xE0 SHL DUP3 MSTORE PUSH1 0x41 SWAP1 MSTORE REVERT JUMPDEST POP PUSH4 0x4E487B71 PUSH1 0xE0 SHL DUP4 MSTORE PUSH1 0x11 DUP6 MSTORE DUP3 REVERT JUMPDEST DUP6 MLOAD PUSH3 0x461BCD PUSH1 0xE5 SHL DUP2 MSTORE DUP1 DUP6 ADD DUP10 SWAP1 MSTORE PUSH1 0x17 DUP2 DUP10 ADD MSTORE PUSH32 0x4272696467653A207472616E73666572206661696C6564000000000000000000 PUSH1 0x44 DUP3 ADD MSTORE PUSH1 0x64 SWAP1 REVERT JUMPDEST PUSH2 0x3F9 SWAP2 POP DUP10 RETURNDATASIZE DUP12 GT PUSH2 0x3FF JUMPI JUMPDEST PUSH2 0x3F1 DUP2 DUP4 PUSH2 0x8EC JUMP JUMPDEST DUP2 ADD SWAP1 PUSH2 0x924 JUMP JUMPDEST CODESIZE PUSH2 0x294 JUMP JUMPDEST POP RETURNDATASIZE PUSH2 0x3E7 JUMP JUMPDEST DUP8 MLOAD RETURNDATASIZE DUP6 DUP3 RETURNDATACOPY RETURNDATASIZE SWAP1 REVERT JUMPDEST DUP6 MLOAD PUSH3 0x461BCD PUSH1 0xE5 SHL DUP2 MSTORE PUSH1 0x20 DUP2 DUP7 ADD MSTORE PUSH1 0x19 DUP2 DUP10 ADD MSTORE PUSH32 0x4272696467653A20696E76616C696420726563697069656E7400000000000000 PUSH1 0x44 DUP3 ADD MSTORE PUSH1 0x64 SWAP1 REVERT JUMPDEST DUP6 MLOAD PUSH3 0x461BCD PUSH1 0xE5 SHL DUP2 MSTORE PUSH1 0x20 DUP2 DUP7 ADD MSTORE PUSH1 0x1A DUP2 DUP10 ADD MSTORE PUSH32 0x4272696467653A20616D6F756E74206D757374206265203E2030000000000000 PUSH1 0x44 DUP3 ADD MSTORE PUSH1 0x64 SWAP1 REVERT JUMPDEST DUP8 DUP1 REVERT JUMPDEST POP SWAP1 CALLVALUE PUSH2 0x1F4 JUMPI PUSH1 0x20 CALLDATASIZE PUSH1 0x3 NOT ADD SLT PUSH2 0x1F4 JUMPI PUSH2 0x4B3 PUSH2 0x8A5 JUMP JUMPDEST SWAP1 PUSH2 0x4BC PUSH2 0x8C0 JUMP JUMPDEST PUSH1 0x1 PUSH1 0x1 PUSH1 0xA0 SHL SUB SWAP2 DUP3 AND SWAP3 DUP4 ISZERO PUSH2 0x509 JUMPI POP POP DUP3 SLOAD PUSH1 0x1 PUSH1 0x1 PUSH1 0xA0 SHL SUB NOT DUP2 AND DUP4 OR DUP5 SSTORE AND PUSH32 0x8BE0079C531659141344CD1FD0A4F28419497F9722A3DAAFE3B4186F6B6457E0 DUP4 DUP1 LOG3 DUP1 RETURN JUMPDEST MLOAD PUSH4 0x1E4FBDF7 PUSH1 0xE0 SHL DUP2 MSTORE SWAP1 DUP2 ADD DUP5 SWAP1 MSTORE PUSH1 0x24 SWAP1 REVERT JUMPDEST POP SWAP1 CALLVALUE PUSH2 0x1F4 JUMPI PUSH1 0x20 CALLDATASIZE PUSH1 0x3 NOT ADD SLT PUSH2 0x1F4 JUMPI DUP2 PUSH1 0x20 SWAP4 PUSH1 0xFF SWAP3 CALLDATALOAD DUP2 MSTORE PUSH1 0x2 DUP6 MSTORE KECCAK256 SLOAD AND SWAP1 MLOAD SWAP1 ISZERO ISZERO DUP2 MSTORE RETURN JUMPDEST DUP4 DUP3 CALLVALUE PUSH2 0x574 JUMPI DUP2 PUSH1 0x3 NOT CALLDATASIZE ADD SLT PUSH2 0x574 JUMPI SWAP1 SLOAD SWAP1 MLOAD PUSH1 0x1 PUSH1 0x1 PUSH1 0xA0 SHL SUB SWAP1 SWAP2 AND DUP2 MSTORE PUSH1 0x20 SWAP1 RETURN JUMPDEST POP DUP1 REVERT JUMPDEST DUP4 DUP3 CALLVALUE PUSH2 0x574 JUMPI DUP2 PUSH1 0x3 NOT CALLDATASIZE ADD SLT PUSH2 0x574 JUMPI PUSH1 0x3 SLOAD SWAP1 MLOAD PUSH1 0x1 PUSH1 0x1 PUSH1 0xA0 SHL SUB SWAP1 SWAP2 AND DUP2 MSTORE PUSH1 0x20 SWAP1 RETURN JUMPDEST DUP4 DUP3 CALLVALUE PUSH2 0x574 JUMPI PUSH1 0x20 CALLDATASIZE PUSH1 0x3 NOT ADD SLT PUSH2 0x574 JUMPI PUSH1 0x20 SWAP2 DUP2 SWAP1 PUSH1 0x1 PUSH1 0x1 PUSH1 0xA0 SHL SUB PUSH2 0x5C9 PUSH2 0x8A5 JUMP JUMPDEST AND DUP2 MSTORE PUSH1 0x1 DUP5 MSTORE KECCAK256 SLOAD SWAP1 MLOAD SWAP1 DUP2 MSTORE RETURN JUMPDEST POP CALLVALUE PUSH2 0x1F4 JUMPI DUP3 PUSH1 0x3 NOT CALLDATASIZE ADD SLT PUSH2 0x1F4 JUMPI DUP1 MLOAD PUSH4 0x70A08231 PUSH1 0xE0 SHL DUP2 MSTORE ADDRESS SWAP3 DUP2 ADD SWAP3 SWAP1 SWAP3 MSTORE PUSH1 0x20 DUP3 PUSH1 0x24 DUP2 PUSH32 0x0 PUSH1 0x1 PUSH1 0x1 PUSH1 0xA0 SHL SUB AND GAS STATICCALL SWAP2 DUP3 ISZERO PUSH2 0x67F JUMPI DUP4 SWAP3 PUSH2 0x648 JUMPI JUMPDEST PUSH1 0x20 DUP4 DUP4 MLOAD SWAP1 DUP2 MSTORE RETURN JUMPDEST SWAP1 SWAP2 POP PUSH1 0x20 DUP2 RETURNDATASIZE DUP3 GT PUSH2 0x677 JUMPI JUMPDEST DUP2 PUSH2 0x663 PUSH1 0x20 SWAP4 DUP4 PUSH2 0x8EC JUMP JUMPDEST DUP2 ADD SUB SLT PUSH2 0x1F4 JUMPI PUSH1 0x20 SWAP3 POP MLOAD SWAP1 CODESIZE PUSH2 0x63E JUMP JUMPDEST RETURNDATASIZE SWAP2 POP PUSH2 0x656 JUMP JUMPDEST DUP2 MLOAD RETURNDATASIZE DUP6 DUP3 RETURNDATACOPY RETURNDATASIZE SWAP1 REVERT JUMPDEST DUP4 DUP3 CALLVALUE PUSH2 0x574 JUMPI DUP2 PUSH1 0x3 NOT CALLDATASIZE ADD SLT PUSH2 0x574 JUMPI MLOAD PUSH32 0x0 PUSH1 0x1 PUSH1 0x1 PUSH1 0xA0 SHL SUB AND DUP2 MSTORE PUSH1 0x20 SWAP1 RETURN JUMPDEST DUP4 CALLVALUE PUSH2 0x727 JUMPI DUP1 PUSH1 0x3 NOT CALLDATASIZE ADD SLT PUSH2 0x727 JUMPI PUSH2 0x6E6 PUSH2 0x8C0 JUMP JUMPDEST DUP1 SLOAD PUSH1 0x1 PUSH1 0x1 PUSH1 0xA0 SHL SUB NOT DUP2 AND DUP3 SSTORE DUP2 SWAP1 PUSH1 0x1 PUSH1 0x1 PUSH1 0xA0 SHL SUB AND PUSH32 0x8BE0079C531659141344CD1FD0A4F28419497F9722A3DAAFE3B4186F6B6457E0 DUP3 DUP1 LOG3 DUP1 RETURN JUMPDEST DUP1 REVERT JUMPDEST DUP4 CALLVALUE PUSH2 0x727 JUMPI PUSH1 0x20 CALLDATASIZE PUSH1 0x3 NOT ADD SLT PUSH2 0x727 JUMPI PUSH2 0x744 PUSH2 0x8A5 JUMP JUMPDEST PUSH2 0x74C PUSH2 0x8C0 JUMP JUMPDEST PUSH1 0x1 DUP1 PUSH1 0xA0 SHL SUB AND PUSH12 0xFFFFFFFFFFFFFFFFFFFFFFFF PUSH1 0xA0 SHL PUSH1 0x3 SLOAD AND OR PUSH1 0x3 SSTORE DUP1 RETURN JUMPDEST SWAP3 SWAP1 POP CALLVALUE PUSH2 0x81C JUMPI DUP2 PUSH1 0x3 NOT CALLDATASIZE ADD SLT PUSH2 0x81C JUMPI PUSH1 0x20 SWAP1 PUSH1 0x44 PUSH2 0x78F PUSH2 0x8A5 JUMP JUMPDEST SWAP2 PUSH2 0x798 PUSH2 0x8C0 JUMP JUMPDEST DUP5 MLOAD PUSH4 0xA9059CBB PUSH1 0xE0 SHL DUP2 MSTORE PUSH1 0x1 PUSH1 0x1 PUSH1 0xA0 SHL SUB SWAP4 DUP5 AND SWAP2 DUP2 ADD SWAP2 SWAP1 SWAP2 MSTORE PUSH1 0x24 DUP1 CALLDATALOAD SWAP1 DUP3 ADD MSTORE SWAP5 DUP6 SWAP3 DUP4 SWAP2 SWAP1 PUSH32 0x0 AND GAS CALL SWAP1 DUP2 ISZERO PUSH2 0x813 JUMPI POP PUSH2 0x7F8 JUMPI POP DUP1 RETURN JUMPDEST PUSH2 0x80F SWAP1 PUSH1 0x20 RETURNDATASIZE DUP2 GT PUSH2 0x3FF JUMPI PUSH2 0x3F1 DUP2 DUP4 PUSH2 0x8EC JUMP JUMPDEST POP DUP1 RETURN JUMPDEST MLOAD RETURNDATASIZE DUP5 DUP3 RETURNDATACOPY RETURNDATASIZE SWAP1 REVERT JUMPDEST POP POP REVERT JUMPDEST SWAP2 POP POP CALLVALUE PUSH2 0x1F4 JUMPI PUSH1 0x20 CALLDATASIZE PUSH1 0x3 NOT ADD SLT PUSH2 0x1F4 JUMPI PUSH1 0x3 SLOAD PUSH1 0x1 PUSH1 0x1 PUSH1 0xA0 SHL SUB AND CALLER SUB PUSH2 0x86F JUMPI POP CALLDATALOAD PUSH32 0xF858475F6CEAF814CDE2C67E14C95826E45BE5BFD12B07FDB49ACBF06CA75A67 DUP3 DUP1 LOG2 DUP1 RETURN JUMPDEST PUSH1 0x20 PUSH1 0x64 SWAP3 PUSH3 0x461BCD PUSH1 0xE5 SHL DUP4 MSTORE DUP3 ADD MSTORE PUSH1 0x13 PUSH1 0x24 DUP3 ADD MSTORE PUSH19 0x213934B233B29D103737BA103932B630BCB2B9 PUSH1 0x69 SHL PUSH1 0x44 DUP3 ADD MSTORE REVERT JUMPDEST PUSH1 0x4 CALLDATALOAD SWAP1 PUSH1 0x1 PUSH1 0x1 PUSH1 0xA0 SHL SUB DUP3 AND DUP3 SUB PUSH2 0x8BB JUMPI JUMP JUMPDEST PUSH1 0x0 DUP1 REVERT JUMPDEST PUSH1 0x0 SLOAD PUSH1 0x1 PUSH1 0x1 PUSH1 0xA0 SHL SUB AND CALLER SUB PUSH2 0x8D4 JUMPI JUMP JUMPDEST PUSH1 0x40 MLOAD PUSH4 0x118CDAA7 PUSH1 0xE0 SHL DUP2 MSTORE CALLER PUSH1 0x4 DUP3 ADD MSTORE PUSH1 0x24 SWAP1 REVERT JUMPDEST SWAP1 PUSH1 0x1F DUP1 NOT SWAP2 ADD AND DUP2 ADD SWAP1 DUP2 LT PUSH8 0xFFFFFFFFFFFFFFFF DUP3 GT OR PUSH2 0x90E JUMPI PUSH1 0x40 MSTORE JUMP JUMPDEST PUSH4 0x4E487B71 PUSH1 0xE0 SHL PUSH1 0x0 MSTORE PUSH1 0x41 PUSH1 0x4 MSTORE PUSH1 0x24 PUSH1 0x0 REVERT JUMPDEST SWAP1 DUP2 PUSH1 0x20 SWAP2 SUB SLT PUSH2 0x8BB JUMPI MLOAD DUP1 ISZERO ISZERO DUP2 SUB PUSH2 0x8BB JUMPI SWAP1 JUMP JUMPDEST PUSH32 0x9B779B17422D0DF92223018B32B4D1FA46E071723D6817E2486D003BECC55F00 PUSH1 0x2 DUP2 SLOAD EQ PUSH2 0x96C JUMPI PUSH1 0x2 SWAP1 SSTORE JUMP JUMPDEST PUSH1 0x40 MLOAD PUSH4 0x3EE5AEB5 PUSH1 0xE0 SHL DUP2 MSTORE PUSH1 0x4 SWAP1 REVERT INVALID LOG2 PUSH5 0x6970667358 0x22 SLT KECCAK256 0x27 0x4D DUP4 BALANCE 0xCD 0xC 0x1E PUSH13 0x1220F69C0D547595E189D70A46 SWAP7 MUL CHAINID SGT 0xFC 0x25 0xFC 0xDB OR RETURN 0xBC PUSH5 0x736F6C6343 STOP ADDMOD EQ STOP CALLER "},"methodIdentifiers":{"bridgeProof(bytes32,string)":"f9c4ba4c","bridgeTokens(uint256,address)":"f6363e75","bridgedCommitments(bytes32)":"f19cd981","confirmBridge(bytes32)":"2e92df2c","emergencyUnlock(address,uint256)":"45bf8f9f","lockedBalance()":"7b80889b","nonces(address)":"7ecebe00","owner()":"8da5cb5b","pptToken()":"7b5b50e7","relayer()":"8406c079","renounceOwnership()":"715018a6","setRelayer(address)":"6548e9bc","transferOwnership(address)":"f2fde38b"}}}}}