{
  "_format": "hh-sol-artifact-1",
  "contractName": "PPTMirrorToken",
  "sourceName": "contracts/crosschain/PPTMirrorToken.sol",
  "abi": [
    {
      "inputs": [
        {
          "internalType": "address",
          "name": "_bridge",
          "type": "address"
        }
      ],
      "stateMutability": "nonpayable",
      "type": "constructor"
    },
    {
      "inputs": [
        {
          "internalType": "address",
          "name": "spender",
          "type": "address"
        },
        {
          "internalType": "uint256",
          "name": "allowance",
          "type": "uint256"
        },
        {
          "internalType": "uint256",
          "name": "needed",
          "type": "uint256"
        }
      ],
      "name": "ERC20InsufficientAllowance",
      "type": "error"
    },
    {
      "inputs": [
        {
          "internalType": "address",
          "name": "sender",
          "type": "address"
        },
        {
          "internalType": "uint256",
          "name": "balance",
          "type": "uint256"
        },
        {
          "internalType": "uint256",
          "name": "needed",
          "type": "uint256"
        }
      ],
      "name": "ERC20InsufficientBalance",
      "type": "error"
    },
    {
      "inputs": [
        {
          "internalType": "address",
          "name": "approver",
          "type": "address"
        }
      ],
      "name": "ERC20InvalidApprover",
      "type": "error"
    },
    {
      "inputs": [
        {
          "internalType": "address",
          "name": "receiver",
          "type": "address"
        }
      ],
      "name": "ERC20InvalidReceiver",
      "type": "error"
    },
    {
      "inputs": [
        {
          "internalType": "address",
          "name": "sender",
          "type": "address"
        }
      ],
      "name": "ERC20InvalidSender",
      "type": "error"
    },
    {
      "inputs": [
        {
          "internalType": "address",
          "name": "spender",
          "type": "address"
        }
      ],
      "name": "ERC20InvalidSpender",
      "type": "error"
    },
    {
      "inputs": [
        {
          "internalType": "address",
          "name": "owner",
          "type": "address"
        }
      ],
      "name": "OwnableInvalidOwner",
      "type": "error"
    },
    {
      "inputs": [
        {
          "internalType": "address",
          "name": "account",
          "type": "address"
        }
      ],
      "name": "OwnableUnauthorizedAccount",
      "type": "error"
    },
    {
      "anonymous": false,
      "inputs": [
        {
          "indexed": true,
          "internalType": "address",
          "name": "owner",
          "type": "address"
        },
        {
          "indexed": true,
          "internalType": "address",
          "name": "spender",
          "type": "address"
        },
        {
          "indexed": false,
          "internalType": "uint256",
          "name": "value",
          "type": "uint256"
        }
      ],
      "name": "Approval",
      "type": "event"
    },
    {
      "anonymous": false,
      "inputs": [
        {
          "indexed": true,
          "internalType": "address",
          "name": "from",
          "type": "address"
        },
        {
          "indexed": false,
          "internalType": "uint256",
          "name": "amount",
          "type": "uint256"
        }
      ],
      "name": "BridgeBurn",
      "type": "event"
    },
    {
      "anonymous": false,
      "inputs": [
        {
          "indexed": true,
          "internalType": "address",
          "name": "to",
          "type": "address"
        },
        {
          "indexed": false,
          "internalType": "uint256",
          "name": "amount",
          "type": "uint256"
        },
        {
          "indexed": false,
          "internalType": "bytes32",
          "name": "bridgeId",
          "type": "bytes32"
        }
      ],
      "name": "BridgeMint",
      "type": "event"
    },
    {
      "anonymous": false,
      "inputs": [
        {
          "indexed": true,
          "internalType": "address",
          "name": "previousOwner",
          "type": "address"
        },
        {
          "indexed": true,
          "internalType": "address",
          "name": "newOwner",
          "type": "address"
        }
      ],
      "name": "OwnershipTransferred",
      "type": "event"
    },
    {
      "anonymous": false,
      "inputs": [
        {
          "indexed": true,
          "internalType": "address",
          "name": "from",
          "type": "address"
        },
        {
          "indexed": true,
          "internalType": "address",
          "name": "to",
          "type": "address"
        },
        {
          "indexed": false,
          "internalType": "uint256",
          "name": "value",
          "type": "uint256"
        }
      ],
      "name": "Transfer",
      "type": "event"
    },
    {
      "inputs": [
        {
          "internalType": "address",
          "name": "owner",
          "type": "address"
        },
        {
          "internalType": "address",
          "name": "spender",
          "type": "address"
        }
      ],
      "name": "allowance",
      "outputs": [
        {
          "internalType": "uint256",
          "name": "",
          "type": "uint256"
        }
      ],
      "stateMutability": "view",
      "type": "function"
    },
    {
      "inputs": [
        {
          "internalType": "address",
          "name": "spender",
          "type": "address"
        },
        {
          "internalType": "uint256",
          "name": "value",
          "type": "uint256"
        }
      ],
      "name": "approve",
      "outputs": [
        {
          "internalType": "bool",
          "name": "",
          "type": "bool"
        }
      ],
      "stateMutability": "nonpayable",
      "type": "function"
    },
    {
      "inputs": [
        {
          "internalType": "address",
          "name": "account",
          "type": "address"
        }
      ],
      "name": "balanceOf",
      "outputs": [
        {
          "internalType": "uint256",
          "name": "",
          "type": "uint256"
        }
      ],
      "stateMutability": "view",
      "type": "function"
    },
    {
      "inputs": [],
      "name": "bridge",
      "outputs": [
        {
          "internalType": "address",
          "name": "",
          "type": "address"
        }
      ],
      "stateMutability": "view",
      "type": "function"
    },
    {
      "inputs": [
        {
          "internalType": "address",
          "name": "from",
          "type": "address"
        },
        {
          "internalType": "uint256",
          "name": "amount",
          "type": "uint256"
        }
      ],
      "name": "bridgeBurn",
      "outputs": [],
      "stateMutability": "nonpayable",
      "type": "function"
    },
    {
      "inputs": [
        {
          "internalType": "address",
          "name": "to",
          "type": "address"
        },
        {
          "internalType": "uint256",
          "name": "amount",
          "type": "uint256"
        },
        {
          "internalType": "bytes32",
          "name": "bridgeId",
          "type": "bytes32"
        }
      ],
      "name": "bridgeMint",
      "outputs": [],
      "stateMutability": "nonpayable",
      "type": "function"
    },
    {
      "inputs": [],
      "name": "decimals",
      "outputs": [
        {
          "internalType": "uint8",
          "name": "",
          "type": "uint8"
        }
      ],
      "stateMutability": "view",
      "type": "function"
    },
    {
      "inputs": [],
      "name": "name",
      "outputs": [
        {
          "internalType": "string",
          "name": "",
          "type": "string"
        }
      ],
      "stateMutability": "view",
      "type": "function"
    },
    {
      "inputs": [],
      "name": "owner",
      "outputs": [
        {
          "internalType": "address",
          "name": "",
          "type": "address"
        }
      ],
      "stateMutability": "view",
      "type": "function"
    },
    {
      "inputs": [],
      "name": "renounceOwnership",
      "outputs": [],
      "stateMutability": "nonpayable",
      "type": "function"
    },
    {
      "inputs": [
        {
          "internalType": "address",
          "name": "_bridge",
          "type": "address"
        }
      ],
      "name": "setBridge",
      "outputs": [],
      "stateMutability": "nonpayable",
      "type": "function"
    },
    {
      "inputs": [],
      "name": "symbol",
      "outputs": [
        {
          "internalType": "string",
          "name": "",
          "type": "string"
        }
      ],
      "stateMutability": "view",
      "type": "function"
    },
    {
      "inputs": [],
      "name": "totalSupply",
      "outputs": [
        {
          "internalType": "uint256",
          "name": "",
          "type": "uint256"
        }
      ],
      "stateMutability": "view",
      "type": "function"
    },
    {
      "inputs": [
        {
          "internalType": "address",
          "name": "to",
          "type": "address"
        },
        {
          "internalType": "uint256",
          "name": "value",
          "type": "uint256"
        }
      ],
      "name": "transfer",
      "outputs": [
        {
          "internalType": "bool",
          "name": "",
          "type": "bool"
        }
      ],
      "stateMutability": "nonpayable",
      "type": "function"
    },
    {
      "inputs": [
        {
          "internalType": "address",
          "name": "from",
          "type": "address"
        },
        {
          "internalType": "address",
          "name": "to",
          "type": "address"
        },
        {
          "internalType": "uint256",
          "name": "value",
          "type": "uint256"
        }
      ],
      "name": "transferFrom",
      "outputs": [
        {
          "internalType": "bool",
          "name": "",
          "type": "bool"
        }
      ],
      "stateMutability": "nonpayable",
      "type": "function"
    },
    {
      "inputs": [
        {
          "internalType": "address",
          "name": "newOwner",
          "type": "address"
        }
      ],
      "name": "transferOwnership",
      "outputs": [],
      "stateMutability": "nonpayable",
      "type": "function"
    }
  ],
  "bytecode": "0x608034620003ae576001600160401b03601f601f1962000eb4388190038381018316860185811187821017620003b357869282916040528339602095869181010312620003ae57516001600160a01b03948582169491859003620003ae5762000067620003c9565b601081526f28282a1026b4b93937b9102a37b5b2b760811b828201526200008d620003c9565b94600495868152631b54141560e21b84820152825193858511620002b4576003948554946001958681811c91168015620003a3575b848210146200038e5790818684931162000338575b508390868311600114620002d557600092620002c9575b505060001982881b1c191690851b1785555b8151958611620002b45787548481811c91168015620002a9575b82821014620002945783811162000249575b5080928611600114620001dd575084955090849291600095620001d1575b50501b92600019911b1c19161781555b3315620001b9575060058054336001600160a01b03198083168217909355604051949091167f8be0079c531659141344cd1fd0a4f28419497f9722a3daafe3b4186f6b6457e0600080a36006541617600655610aca9081620003ea8239f35b602490600060405191631e4fbdf760e01b8352820152fd5b0151935038806200014a565b939295859081168860005285600020956000905b898383106200022e575050501062000213575b50505050811b0181556200015a565b01519060f884600019921b161c191690553880808062000204565b858701518955909701969485019488935090810190620001f1565b88600052816000208480890160051c820192848a106200028a575b0160051c019085905b8281106200027d5750506200012c565b600081550185906200026d565b9250819262000264565b602289634e487b7160e01b6000525260246000fd5b90607f16906200011a565b604188634e487b7160e01b6000525260246000fd5b015190503880620000ee565b908a8894169189600052856000209260005b8782821062000321575050841162000308575b505050811b01855562000100565b0151600019838a1b60f8161c19169055388080620002fa565b8385015186558b97909501949384019301620002e7565b90915087600052836000208680850160051c82019286861062000384575b918991869594930160051c01915b82811062000374575050620000d7565b6000815585945089910162000364565b9250819262000356565b60228b634e487b7160e01b6000525260246000fd5b90607f1690620000c2565b600080fd5b634e487b7160e01b600052604160045260246000fd5b60408051919082016001600160401b03811183821017620003b35760405256fe60806040908082526004918236101561001757600080fd5b600091823560e01c90816306fdde03146107f757508063095ea7b31461074d57806318160ddd1461072f57806323b872dd1461063b578063313ce5671461062057806370a08231146105ea578063715018a61461058d57806374f4f547146104845780638da5cb5b1461045c5780638dd148021461041457806395d89b41146102f6578063a9059cbb146102c6578063dd62ed3e1461027e578063e78cea9214610256578063f2fde38b146101c25763f661e631146100d557600080fd5b346101be5760603660031901126101be576100ee610918565b60065460243592916001600160a01b039161010c9083163314610a53565b169182156101a75760025481810180911161019457907f096d591342eea46377f5d86fed8a91ab1e9be20a7c3f5d698cecc1d4f698680a92916002558385528460205281852081815401905583857fddf252ad1be2c89b69c2b068fc378daa952ba7f163c4a11628f55a4df523b3ef60208551858152a381519081526044356020820152a280f35b634e487b7160e01b855260118652602485fd5b815163ec442f0560e01b8152808601859052602490fd5b5080fd5b508234610252576020366003190112610252576101dd610918565b906101e6610949565b6001600160a01b0391821692831561023c575050600554826bffffffffffffffffffffffff60a01b821617600555167f8be0079c531659141344cd1fd0a4f28419497f9722a3daafe3b4186f6b6457e08380a380f35b51631e4fbdf760e01b8152908101849052602490fd5b8280fd5b50346101be57816003193601126101be5760065490516001600160a01b039091168152602090f35b50346101be57806003193601126101be578060209261029b610918565b6102a3610933565b6001600160a01b0391821683526001865283832091168252845220549051908152f35b50346101be57806003193601126101be576020906102ef6102e5610918565b6024359033610975565b5160018152f35b50346101be57816003193601126101be57805190828454600181811c9080831692831561040a575b60209384841081146103f7578388529081156103db5750600114610386575b505050829003601f01601f191682019267ffffffffffffffff841183851017610373575082918261036f9252826108cf565b0390f35b634e487b7160e01b815260418552602490fd5b8787529192508591837f8a35acfbc15ff81a39ae7d344fd709f28e8600b4aa8c65c6b64bfe7fe36bd19b5b8385106103c7575050505083010138808061033d565b8054888601830152930192849082016103b1565b60ff1916878501525050151560051b840101905038808061033d565b634e487b7160e01b895260228a52602489fd5b91607f169161031e565b82346104595760203660031901126104595761042e610918565b610436610949565b60018060a01b03166bffffffffffffffffffffffff60a01b600654161760065580f35b80fd5b50346101be57816003193601126101be5760055490516001600160a01b039091168152602090f35b50823461025257816003193601126102525761049e610918565b916024359160018060a01b036104b981600654163314610a53565b84169384156105775784865285602052828620549184831061054357505091602091817f9b5b9a05e4726d8bb959f1440e05c6b8109443f2083bc4e386237d7654526553948688528785520381872055816002540360025585857fddf252ad1be2c89b69c2b068fc378daa952ba7f163c4a11628f55a4df523b3ef858451868152a351908152a280f35b835163391434e360e21b81526001600160a01b03909216908201908152602081018390526040810185905281906060010390fd5b50846024925191634b637e8f60e11b8352820152fd5b82346104595780600319360112610459576105a6610949565b600580546001600160a01b0319811690915581906001600160a01b03167f8be0079c531659141344cd1fd0a4f28419497f9722a3daafe3b4186f6b6457e08280a380f35b50346101be5760203660031901126101be5760209181906001600160a01b03610611610918565b16815280845220549051908152f35b50346101be57816003193601126101be576020905160128152f35b5091903461045957606036600319011261045957610657610918565b61065f610933565b916044359360018060a01b03831680835260016020528683203384526020528683205491600019831061069b575b6020886102ef898989610975565b8683106107035781156106ec5733156106d5575082526001602090815286832033845281529186902090859003905582906102ef3861068d565b8751634a1406b160e11b8152908101849052602490fd5b875163e602df0560e01b8152908101849052602490fd5b8751637dc7a0d960e11b8152339181019182526020820193909352604081018790528291506060010390fd5b50346101be57816003193601126101be576020906002549051908152f35b508234610252578160031936011261025257610767610918565b6024359033156107e0576001600160a01b03169182156107c957508083602095338152600187528181208582528752205582519081527f8c5be1e5ebec7d5bd14f71427d1e84f3dd0314c0f7b2291e5b200ac8c7c3b925843392a35160018152f35b8351634a1406b160e11b8152908101859052602490fd5b835163e602df0560e01b8152808401869052602490fd5b9190503461025257826003193601126102525782600354600181811c908083169283156108c5575b60209384841081146103f7578388529081156103db575060011461086f57505050829003601f01601f191682019267ffffffffffffffff841183851017610373575082918261036f9252826108cf565b600387529192508591837fc2575a0e9e593c00f959f8c92f12db2869c3395a3b0502d05e2516446f71f85b5b8385106108b1575050505083010138808061033d565b80548886018301529301928490820161089b565b91607f169161081f565b6020808252825181830181905290939260005b82811061090457505060409293506000838284010152601f8019910116010190565b8181018601518482016040015285016108e2565b600435906001600160a01b038216820361092e57565b600080fd5b602435906001600160a01b038216820361092e57565b6005546001600160a01b0316330361095d57565b60405163118cdaa760e01b8152336004820152602490fd5b916001600160a01b03808416928315610a3a5716928315610a2157600090838252816020526040822054908382106109ef575091604082827fddf252ad1be2c89b69c2b068fc378daa952ba7f163c4a11628f55a4df523b3ef958760209652828652038282205586815220818154019055604051908152a3565b60405163391434e360e21b81526001600160a01b03919091166004820152602481019190915260448101839052606490fd5b60405163ec442f0560e01b815260006004820152602490fd5b604051634b637e8f60e11b815260006004820152602490fd5b15610a5a57565b60405162461bcd60e51b81526020600482015260126024820152714d6972726f723a206e6f742062726964676560701b6044820152606490fdfea264697066735822122084f3db4e115d648c6b1d084f4c3d1b410b6bb8714ad6421f014f4bc123825fda64736f6c63430008140033",
  "linkReferences": {},
  "deployedLinkReferences": {}
}