{
  "_format": "hh-sol-artifact-1",
  "contractName": "PPTPaymentController",
  "sourceName": "contracts/PPTPaymentController.sol",
  "abi": [
    {
      "inputs": [
        {
          "internalType": "address",
          "name": "_pptToken",
          "type": "address"
        },
        {
          "internalType": "address",
          "name": "_treasury",
          "type": "address"
        }
      ],
      "stateMutability": "nonpayable",
      "type": "constructor"
    },
    {
      "inputs": [
        {
          "internalType": "address",
          "name": "owner",
          "type": "address"
        }
      ],
      "name": "OwnableInvalidOwner",
      "type": "error"
    },
    {
      "inputs": [
        {
          "internalType": "address",
          "name": "account",
          "type": "address"
        }
      ],
      "name": "OwnableUnauthorizedAccount",
      "type": "error"
    },
    {
      "inputs": [],
      "name": "ReentrancyGuardReentrantCall",
      "type": "error"
    },
    {
      "anonymous": false,
      "inputs": [
        {
          "indexed": true,
          "internalType": "address",
          "name": "provider",
          "type": "address"
        },
        {
          "indexed": false,
          "internalType": "uint256",
          "name": "amount",
          "type": "uint256"
        },
        {
          "indexed": false,
          "internalType": "string",
          "name": "reason",
          "type": "string"
        }
      ],
      "name": "FeePaid",
      "type": "event"
    },
    {
      "anonymous": false,
      "inputs": [
        {
          "indexed": false,
          "internalType": "string",
          "name": "feeType",
          "type": "string"
        },
        {
          "indexed": false,
          "internalType": "uint256",
          "name": "newAmount",
          "type": "uint256"
        }
      ],
      "name": "FeeUpdated",
      "type": "event"
    },
    {
      "anonymous": false,
      "inputs": [
        {
          "indexed": true,
          "internalType": "address",
          "name": "previousOwner",
          "type": "address"
        },
        {
          "indexed": true,
          "internalType": "address",
          "name": "newOwner",
          "type": "address"
        }
      ],
      "name": "OwnershipTransferred",
      "type": "event"
    },
    {
      "anonymous": false,
      "inputs": [
        {
          "indexed": true,
          "internalType": "address",
          "name": "provider",
          "type": "address"
        },
        {
          "indexed": false,
          "internalType": "enum PPTPaymentController.Plan",
          "name": "plan",
          "type": "uint8"
        },
        {
          "indexed": false,
          "internalType": "uint256",
          "name": "expiresAt",
          "type": "uint256"
        }
      ],
      "name": "SubscriptionPurchased",
      "type": "event"
    },
    {
      "inputs": [
        {
          "internalType": "address",
          "name": "",
          "type": "address"
        }
      ],
      "name": "authorisedCallers",
      "outputs": [
        {
          "internalType": "bool",
          "name": "",
          "type": "bool"
        }
      ],
      "stateMutability": "view",
      "type": "function"
    },
    {
      "inputs": [],
      "name": "basicPlanFee",
      "outputs": [
        {
          "internalType": "uint256",
          "name": "",
          "type": "uint256"
        }
      ],
      "stateMutability": "view",
      "type": "function"
    },
    {
      "inputs": [
        {
          "internalType": "address",
          "name": "provider",
          "type": "address"
        }
      ],
      "name": "collectInvoiceFee",
      "outputs": [],
      "stateMutability": "nonpayable",
      "type": "function"
    },
    {
      "inputs": [],
      "name": "enterprisePlanFee",
      "outputs": [
        {
          "internalType": "uint256",
          "name": "",
          "type": "uint256"
        }
      ],
      "stateMutability": "view",
      "type": "function"
    },
    {
      "inputs": [
        {
          "internalType": "address",
          "name": "provider",
          "type": "address"
        }
      ],
      "name": "getSubscription",
      "outputs": [
        {
          "internalType": "enum PPTPaymentController.Plan",
          "name": "plan",
          "type": "uint8"
        },
        {
          "internalType": "uint256",
          "name": "expiresAt",
          "type": "uint256"
        },
        {
          "internalType": "uint256",
          "name": "invoicesUsed",
          "type": "uint256"
        },
        {
          "internalType": "uint256",
          "name": "invoiceLimit",
          "type": "uint256"
        }
      ],
      "stateMutability": "view",
      "type": "function"
    },
    {
      "inputs": [
        {
          "internalType": "address",
          "name": "provider",
          "type": "address"
        }
      ],
      "name": "hasActiveAccess",
      "outputs": [
        {
          "internalType": "bool",
          "name": "",
          "type": "bool"
        }
      ],
      "stateMutability": "view",
      "type": "function"
    },
    {
      "inputs": [],
      "name": "invoiceSubmissionFee",
      "outputs": [
        {
          "internalType": "uint256",
          "name": "",
          "type": "uint256"
        }
      ],
      "stateMutability": "view",
      "type": "function"
    },
    {
      "inputs": [],
      "name": "owner",
      "outputs": [
        {
          "internalType": "address",
          "name": "",
          "type": "address"
        }
      ],
      "stateMutability": "view",
      "type": "function"
    },
    {
      "inputs": [],
      "name": "pptToken",
      "outputs": [
        {
          "internalType": "contract IERC20",
          "name": "",
          "type": "address"
        }
      ],
      "stateMutability": "view",
      "type": "function"
    },
    {
      "inputs": [],
      "name": "proPlanFee",
      "outputs": [
        {
          "internalType": "uint256",
          "name": "",
          "type": "uint256"
        }
      ],
      "stateMutability": "view",
      "type": "function"
    },
    {
      "inputs": [
        {
          "internalType": "enum PPTPaymentController.Plan",
          "name": "plan",
          "type": "uint8"
        }
      ],
      "name": "purchaseSubscription",
      "outputs": [],
      "stateMutability": "nonpayable",
      "type": "function"
    },
    {
      "inputs": [],
      "name": "renounceOwnership",
      "outputs": [],
      "stateMutability": "nonpayable",
      "type": "function"
    },
    {
      "inputs": [
        {
          "internalType": "address",
          "name": "caller",
          "type": "address"
        },
        {
          "internalType": "bool",
          "name": "allowed",
          "type": "bool"
        }
      ],
      "name": "setAuthorisedCaller",
      "outputs": [],
      "stateMutability": "nonpayable",
      "type": "function"
    },
    {
      "inputs": [
        {
          "internalType": "uint256",
          "name": "newFee",
          "type": "uint256"
        }
      ],
      "name": "setInvoiceFee",
      "outputs": [],
      "stateMutability": "nonpayable",
      "type": "function"
    },
    {
      "inputs": [
        {
          "internalType": "address",
          "name": "newTreasury",
          "type": "address"
        }
      ],
      "name": "setTreasury",
      "outputs": [],
      "stateMutability": "nonpayable",
      "type": "function"
    },
    {
      "inputs": [
        {
          "internalType": "address",
          "name": "",
          "type": "address"
        }
      ],
      "name": "subscriptions",
      "outputs": [
        {
          "internalType": "enum PPTPaymentController.Plan",
          "name": "plan",
          "type": "uint8"
        },
        {
          "internalType": "uint256",
          "name": "expiresAt",
          "type": "uint256"
        },
        {
          "internalType": "uint256",
          "name": "invoicesUsed",
          "type": "uint256"
        },
        {
          "internalType": "uint256",
          "name": "invoiceLimit",
          "type": "uint256"
        }
      ],
      "stateMutability": "view",
      "type": "function"
    },
    {
      "inputs": [
        {
          "internalType": "address",
          "name": "newOwner",
          "type": "address"
        }
      ],
      "name": "transferOwnership",
      "outputs": [],
      "stateMutability": "nonpayable",
      "type": "function"
    },
    {
      "inputs": [],
      "name": "treasury",
      "outputs": [
        {
          "internalType": "address",
          "name": "",
          "type": "address"
        }
      ],
      "stateMutability": "view",
      "type": "function"
    }
  ],
  "bytecode": "0x60a03461015157601f610ea538819003918201601f19168301916001600160401b0383118484101761015657808492604094855283398101031261015157610052602061004b8361016c565b920161016c565b33156101385760008054336001600160a01b0319808316821784556040519590946001600160a01b03949093859391908416907f8be0079c531659141344cd1fd0a4f28419497f9722a3daafe3b4186f6b6457e09080a360017f9b779b17422d0df92223018b32b4d1fa46e071723d6817e2486d003becc55f0055678ac7230489e8000060015568056bc75e2d63100000600255681b1ae4d6e2ef500000600355686c6b935b8bbd4000006004551660805216906005541617600555610d24908161018182396080518181816102be0152818161065b015281816109ec0152610c4a0152f35b604051631e4fbdf760e01b815260006004820152602490fd5b600080fd5b634e487b7160e01b600052604160045260246000fd5b51906001600160a01b03821682036101515756fe608060408181526004918236101561001657600080fd5b600092833560e01c9182630cbebc241461083d575081632e89bd89146107eb5781633cd60fb41461076957816361d027b314610740578163652d5adc146107225781636595802814610703578163715018a6146106a957816373c8121e1461068a5781637b5b50e7146106465781638da5cb5b1461061e578163944fd180146105e0578163ab82409414610524578163c5948043146104f5578163cbc5c59214610237578163f046395a146101df578163f0f4426014610197578163f2fde38b1461010c575063fca95eea146100eb57600080fd5b346101085781600319360112610108576020906001549051908152f35b5080fd5b9050346101935760203660031901126101935761012761088e565b906101306108ef565b6001600160a01b0391821692831561017d57505082546001600160a01b0319811683178455167f8be0079c531659141344cd1fd0a4f28419497f9722a3daafe3b4186f6b6457e08380a380f35b51631e4fbdf760e01b8152908101849052602490fd5b8280fd5b83346101dc5760203660031901126101dc576101b161088e565b6101b96108ef565b60018060a01b03166bffffffffffffffffffffffff60a01b600554161760055580f35b80fd5b505034610108576020366003190112610108579081906001600160a01b0361020561088e565b1681526006602052209061023360ff83541691600184015493600360028201549101549151948594856108cc565b0390f35b838334610108576020908160031936011261019357833591848310156104f15761025f610bb2565b82156104bb5783906001840361049157600254916102ba826032945b60055487516323b872dd60e01b815233818d019081526001600160a01b039283166020820152604081019390935293849283918c918391606090910190565b03927f0000000000000000000000000000000000000000000000000000000000000000165af190811561048757879161045a575b50156104195762278d00420192834211610406578451916080830183811067ffffffffffffffff8211176103f35786526103e05785825282820184815285830190888252606084019283523389526006855286892093518a8110156103cd577fcb1d9e2f1ade80c30cd5a94cc785e4e0fe02c9733ab244988d4a57bd30e7123198999a5090600393929160ff80198754169116178555516001850155516002840155519101556103a0835180966108a9565b8401523392a260017f9b779b17422d0df92223018b32b4d1fa46e071723d6817e2486d003becc55f005580f35b634e487b7160e01b8a5260218b5260248afd5b634e487b7160e01b875260218852602487fd5b634e487b7160e01b895260418a52602489fd5b634e487b7160e01b875260118852602487fd5b606487838087519262461bcd60e51b845283015260248201527f5050543a20737562736372697074696f6e207061796d656e74206661696c65646044820152fd5b61047a9150833d8511610480575b610472818361091b565b810190610953565b886102ee565b503d610468565b85513d89823e3d90fd5b849150600284036104ad57600354916102ba8261012c9461027b565b8554916102ba82879461027b565b8490606492519162461bcd60e51b8352820152601160248201527028282a1d1034b73b30b634b210383630b760791b6044820152fd5b8380fd5b5050346101085760203660031901126101085760209061051b61051661088e565b610bf4565b90519015158152f35b9050346101935760203660031901126101935761053f61088e565b91338452600760205260ff818520541680156105cd575b15610594578361056d84610568610bb2565b61096b565b60017f9b779b17422d0df92223018b32b4d1fa46e071723d6817e2486d003becc55f005580f35b906020606492519162461bcd60e51b835282015260136024820152721414150e881b9bdd08185d5d1a1bdc9a5cd959606a1b6044820152fd5b5083546001600160a01b03163314610556565b5050346101085760203660031901126101085760209160ff9082906001600160a01b0361060b61088e565b1681526007855220541690519015158152f35b505034610108578160031936011261010857905490516001600160a01b039091168152602090f35b505034610108578160031936011261010857517f00000000000000000000000000000000000000000000000000000000000000006001600160a01b03168152602090f35b5050346101085781600319360112610108576020906002549051908152f35b83346101dc57806003193601126101dc576106c26108ef565b80546001600160a01b03198116825581906001600160a01b03167f8be0079c531659141344cd1fd0a4f28419497f9722a3daafe3b4186f6b6457e08280a380f35b5050346101085781600319360112610108576020906003549051908152f35b90503461019357826003193601126101935760209250549051908152f35b50503461010857816003193601126101085760055490516001600160a01b039091168152602090f35b905034610193576020366003190112610193577fc5dbbc1a39078c6d41f75645288952af1adce3154214371d76e7735665642453916107df91356107ab6108ef565b8060015581519282849384528301604090601281527134b73b37b4b1b2afb9bab136b4b9b9b4b7b760711b60208201520190565b9060208301520390a180f35b50503461010857806003193601126101085761080561088e565b90602435918215158093036104f15761081c6108ef565b60018060a01b03168352600760205282209060ff8019835416911617905580f35b849084346101935760203660031901126101935790918291610233916001600160a01b0361086961088e565b16815260066020522060ff8154169060018101546003600283015492015492856108cc565b600435906001600160a01b03821682036108a457565b600080fd5b9060048210156108b65752565b634e487b7160e01b600052602160045260246000fd5b909493926060926108e18360808101986108a9565b602083015260408201520152565b6000546001600160a01b0316330361090357565b60405163118cdaa760e01b8152336004820152602490fd5b90601f8019910116810190811067ffffffffffffffff82111761093d57604052565b634e487b7160e01b600052604160045260246000fd5b908160209103126108a4575180151581036108a45790565b60018060a01b0380821691600091838352602092600684526040928382209260ff8454169360049485811015610b9f57151580610b92575b610aed575060055460015486516323b872dd60e01b81526001600160a01b03948516878201908152928416909416602083015260408201528691839182908690829060600103927f0000000000000000000000000000000000000000000000000000000000000000165af1918215610ae25791610ac5575b5015610a845750907f3e3d11fed2579ab23676d30f4893a503a2a74a2d3610026a21a83c39e2a85e2e91610a7f6001549180805194859485528401528201604090601281527134b73b37b4b1b2afb9bab136b4b9b9b4b7b760711b60208201520190565b0390a2565b82606492519162461bcd60e51b8352820152601860248201527f5050543a20666565207472616e73666572206661696c656400000000000000006044820152fd5b610adc9150843d861161048057610472818361091b565b38610a1b565b8451903d90823e3d90fd5b9592949650505060038401549384610b08575b505050505050565b60020194855494851015610b465750506000198314610b335750506001019055388080808080610b00565b634e487b7160e01b825260119052602490fd5b5162461bcd60e51b815291820152602260248201527f5050543a206d6f6e74686c7920696e766f696365206c696d6974207265616368604482015261195960f21b606482015260849150fd5b50600181015442106109a3565b634e487b7160e01b855260218652602485fd5b7f9b779b17422d0df92223018b32b4d1fa46e071723d6817e2486d003becc55f006002815414610be25760029055565b604051633ee5aeb560e01b8152600490fd5b6001600160a01b03908116600081815260066020526040812080549193929160ff166004811015610cda5715159081610ccc575b50610cc4576020906024604051809481936370a0823160e01b835260048301527f0000000000000000000000000000000000000000000000000000000000000000165afa918215610cb8578092610c84575b5050600154111590565b9091506020823d8211610cb0575b81610c9f6020938361091b565b810103126101dc5750513880610c7a565b3d9150610c92565b604051903d90823e3d90fd5b505050600190565b600191500154421038610c28565b634e487b7160e01b85526021600452602485fdfea2646970667358221220cabf12e6dd8d72619caf2e1fb6e44c82d689940d066130bee6890132076601f464736f6c63430008140033",
  "linkReferences": {},
  "deployedLinkReferences": {}
}