{
  "_format": "hh-sol-artifact-1",
  "contractName": "FraudRegistry",
  "sourceName": "contracts/FraudRegistry.sol",
  "abi": [
    {
      "inputs": [
        {
          "internalType": "address",
          "name": "_verifier",
          "type": "address"
        }
      ],
      "stateMutability": "nonpayable",
      "type": "constructor"
    },
    {
      "inputs": [
        {
          "internalType": "address",
          "name": "owner",
          "type": "address"
        }
      ],
      "name": "OwnableInvalidOwner",
      "type": "error"
    },
    {
      "inputs": [
        {
          "internalType": "address",
          "name": "account",
          "type": "address"
        }
      ],
      "name": "OwnableUnauthorizedAccount",
      "type": "error"
    },
    {
      "anonymous": false,
      "inputs": [
        {
          "indexed": true,
          "internalType": "bytes32",
          "name": "commitment",
          "type": "bytes32"
        },
        {
          "indexed": false,
          "internalType": "uint256",
          "name": "score",
          "type": "uint256"
        }
      ],
      "name": "FraudCheckFailed",
      "type": "event"
    },
    {
      "anonymous": false,
      "inputs": [
        {
          "indexed": true,
          "internalType": "bytes32",
          "name": "commitment",
          "type": "bytes32"
        },
        {
          "indexed": false,
          "internalType": "uint256",
          "name": "score",
          "type": "uint256"
        }
      ],
      "name": "FraudCheckPassed",
      "type": "event"
    },
    {
      "anonymous": false,
      "inputs": [
        {
          "indexed": true,
          "internalType": "address",
          "name": "previousOwner",
          "type": "address"
        },
        {
          "indexed": true,
          "internalType": "address",
          "name": "newOwner",
          "type": "address"
        }
      ],
      "name": "OwnershipTransferred",
      "type": "event"
    },
    {
      "inputs": [
        {
          "internalType": "uint256[2]",
          "name": "pA",
          "type": "uint256[2]"
        },
        {
          "internalType": "uint256[2][2]",
          "name": "pB",
          "type": "uint256[2][2]"
        },
        {
          "internalType": "uint256[2]",
          "name": "pC",
          "type": "uint256[2]"
        },
        {
          "internalType": "uint256[1]",
          "name": "pubSignals",
          "type": "uint256[1]"
        },
        {
          "internalType": "bytes32",
          "name": "commitment",
          "type": "bytes32"
        }
      ],
      "name": "checkFraudProof",
      "outputs": [
        {
          "internalType": "bool",
          "name": "isSafe",
          "type": "bool"
        }
      ],
      "stateMutability": "nonpayable",
      "type": "function"
    },
    {
      "inputs": [
        {
          "internalType": "bytes32",
          "name": "",
          "type": "bytes32"
        }
      ],
      "name": "checks",
      "outputs": [
        {
          "internalType": "uint256",
          "name": "fraudScore",
          "type": "uint256"
        },
        {
          "internalType": "bool",
          "name": "isSafe",
          "type": "bool"
        },
        {
          "internalType": "uint256",
          "name": "checkedAt",
          "type": "uint256"
        }
      ],
      "stateMutability": "view",
      "type": "function"
    },
    {
      "inputs": [
        {
          "internalType": "bytes32",
          "name": "",
          "type": "bytes32"
        }
      ],
      "name": "flagged",
      "outputs": [
        {
          "internalType": "bool",
          "name": "",
          "type": "bool"
        }
      ],
      "stateMutability": "view",
      "type": "function"
    },
    {
      "inputs": [],
      "name": "fraudThreshold",
      "outputs": [
        {
          "internalType": "uint256",
          "name": "",
          "type": "uint256"
        }
      ],
      "stateMutability": "view",
      "type": "function"
    },
    {
      "inputs": [
        {
          "internalType": "bytes32",
          "name": "commitment",
          "type": "bytes32"
        }
      ],
      "name": "getCheck",
      "outputs": [
        {
          "components": [
            {
              "internalType": "uint256",
              "name": "fraudScore",
              "type": "uint256"
            },
            {
              "internalType": "bool",
              "name": "isSafe",
              "type": "bool"
            },
            {
              "internalType": "uint256",
              "name": "checkedAt",
              "type": "uint256"
            }
          ],
          "internalType": "struct FraudRegistry.FraudCheck",
          "name": "",
          "type": "tuple"
        }
      ],
      "stateMutability": "view",
      "type": "function"
    },
    {
      "inputs": [
        {
          "internalType": "bytes32",
          "name": "commitment",
          "type": "bytes32"
        }
      ],
      "name": "isFlagged",
      "outputs": [
        {
          "internalType": "bool",
          "name": "",
          "type": "bool"
        }
      ],
      "stateMutability": "view",
      "type": "function"
    },
    {
      "inputs": [],
      "name": "owner",
      "outputs": [
        {
          "internalType": "address",
          "name": "",
          "type": "address"
        }
      ],
      "stateMutability": "view",
      "type": "function"
    },
    {
      "inputs": [],
      "name": "renounceOwnership",
      "outputs": [],
      "stateMutability": "nonpayable",
      "type": "function"
    },
    {
      "inputs": [
        {
          "internalType": "uint256",
          "name": "threshold",
          "type": "uint256"
        }
      ],
      "name": "setThreshold",
      "outputs": [],
      "stateMutability": "nonpayable",
      "type": "function"
    },
    {
      "inputs": [
        {
          "internalType": "address",
          "name": "newOwner",
          "type": "address"
        }
      ],
      "name": "transferOwnership",
      "outputs": [],
      "stateMutability": "nonpayable",
      "type": "function"
    },
    {
      "inputs": [],
      "name": "verifier",
      "outputs": [
        {
          "internalType": "contract FraudVerifier",
          "name": "",
          "type": "address"
        }
      ],
      "stateMutability": "view",
      "type": "function"
    }
  ],
  "bytecode": "0x60a0346100d457601f61075738819003918201601f19168301916001600160401b038311848410176100d9578084926020946040528339810103126100d457516001600160a01b0390818116908190036100d45733156100bb576000543360018060a01b0319821617600055604051923391167f8be0079c531659141344cd1fd0a4f28419497f9722a3daafe3b4186f6b6457e0600080a3604b60015560805261066790816100f0823960805181818161028001526105280152f35b604051631e4fbdf760e01b815260006004820152602490fd5b600080fd5b634e487b7160e01b600052604160045260246000fdfe608060408181526004908136101561001657600080fd5b600092833560e01c90816318943e2014610557575080632b7ac3f314610513578063304156d41461012d578063401a2491146104d05780635f5b7990146104b1578063715018a6146104545780637d8b18e8146102065780638da5cb5b146101da578063960bfe041461015a578063bf2dde381461012d5763f2fde38b1461009d57600080fd5b34610129576020366003190112610129576001600160a01b03823581811693919290849003610125576100ce6105d3565b831561010f57505082546001600160a01b0319811683178455167f8be0079c531659141344cd1fd0a4f28419497f9722a3daafe3b4186f6b6457e08380a380f35b51631e4fbdf760e01b8152908101849052602490fd5b8480fd5b8280fd5b509034610129576020366003190112610129578160209360ff923581526003855220541690519015158152f35b509034610129576020366003190112610129578035916101786105d3565b6064831161018857505060015580f35b906020608492519162461bcd60e51b8352820152602660248201527f467261756452656769737472793a207468726573686f6c64206d757374206265604482015265020302d3130360d41b6064820152fd5b838234610202578160031936011261020257905490516001600160a01b039091168152602090f35b5080fd5b50829034610202576101403660031901126102025736604411610202573660c4116102025761010492368411610129576101249336851161045057843591835180966343753b4d60e01b8252858380840137604487878483015b60028310610435575091505060c4808401376020978891828680840137817f00000000000000000000000000000000000000000000000000000000000000006001600160a01b03165afa90811561042b5786916103c7575b50156103845750848391356001548110958351906102d5826105ff565b8282528382019188835260028682014281528884528187528784209251835560018301945115159460ff199560ff87835416911617905551910155876000146103485750507f75604f8f288ed87b3a2acebdf23eeffe8f8ecf7f33823ac4886ece884bb1f4c49251908152a25b51908152f35b7f0d11caa9a101083357ddaa925c9387cd2ae37693eea5762d1839d68825b38213946001916003865220918254161790558451908152a2610342565b835162461bcd60e51b8152908101869052601c60248201527f467261756452656769737472793a20696e76616c69642070726f6f66000000006044820152606490fd5b9050863d8811610424575b601f8101601f1916820167ffffffffffffffff811183821017610411578891839188528101031261040d5751801515810361040d57876102b8565b8580fd5b634e487b7160e01b885260418452602488fd5b503d6103d2565b85513d88823e3d90fd5b839495508082600194958193370193019101878a9493610260565b8380fd5b83346104ae57806003193601126104ae5761046d6105d3565b80546001600160a01b03198116825581906001600160a01b03167f8be0079c531659141344cd1fd0a4f28419497f9722a3daafe3b4186f6b6457e08280a380f35b80fd5b8382346102025781600319360112610202576020906001549051908152f35b509034610129576020366003190112610129576060928291358152600260205220805491600260ff60018401541692015491815193845215156020840152820152f35b838234610202578160031936011261020257517f00000000000000000000000000000000000000000000000000000000000000006001600160a01b03168152602090f35b84939150346104505760203660031901126104505792829181838661057d6060986105ff565b828152826020820152015235815260026020522090805161059d816105ff565b82549283825282600260ff6001840154169260208501931515845201549201918252825193845251151560208401525190820152f35b6000546001600160a01b031633036105e757565b60405163118cdaa760e01b8152336004820152602490fd5b6060810190811067ffffffffffffffff82111761061b57604052565b634e487b7160e01b600052604160045260246000fdfea2646970667358221220a01b6e5782eb98aca1e4cbab4ca35c420575f2d900b06487e4a0979b8ad24f1564736f6c63430008140033",
  "linkReferences": {},
  "deployedLinkReferences": {}
}