{
  "_format": "hh-sol-artifact-1",
  "contractName": "BillingBridge",
  "sourceName": "contracts/crosschain/BillingBridge.sol",
  "abi": [
    {
      "inputs": [
        {
          "internalType": "address",
          "name": "_pptToken",
          "type": "address"
        },
        {
          "internalType": "address",
          "name": "_relayer",
          "type": "address"
        }
      ],
      "stateMutability": "nonpayable",
      "type": "constructor"
    },
    {
      "inputs": [
        {
          "internalType": "address",
          "name": "owner",
          "type": "address"
        }
      ],
      "name": "OwnableInvalidOwner",
      "type": "error"
    },
    {
      "inputs": [
        {
          "internalType": "address",
          "name": "account",
          "type": "address"
        }
      ],
      "name": "OwnableUnauthorizedAccount",
      "type": "error"
    },
    {
      "inputs": [],
      "name": "ReentrancyGuardReentrantCall",
      "type": "error"
    },
    {
      "anonymous": false,
      "inputs": [
        {
          "indexed": true,
          "internalType": "bytes32",
          "name": "bridgeId",
          "type": "bytes32"
        }
      ],
      "name": "BridgeCompleted",
      "type": "event"
    },
    {
      "anonymous": false,
      "inputs": [
        {
          "indexed": true,
          "internalType": "address",
          "name": "sender",
          "type": "address"
        },
        {
          "indexed": true,
          "internalType": "address",
          "name": "recipient",
          "type": "address"
        },
        {
          "indexed": false,
          "internalType": "uint256",
          "name": "amount",
          "type": "uint256"
        },
        {
          "indexed": false,
          "internalType": "uint256",
          "name": "nonce",
          "type": "uint256"
        },
        {
          "indexed": false,
          "internalType": "bytes32",
          "name": "bridgeId",
          "type": "bytes32"
        }
      ],
      "name": "BridgeInitiated",
      "type": "event"
    },
    {
      "anonymous": false,
      "inputs": [
        {
          "indexed": true,
          "internalType": "address",
          "name": "previousOwner",
          "type": "address"
        },
        {
          "indexed": true,
          "internalType": "address",
          "name": "newOwner",
          "type": "address"
        }
      ],
      "name": "OwnershipTransferred",
      "type": "event"
    },
    {
      "anonymous": false,
      "inputs": [
        {
          "indexed": true,
          "internalType": "bytes32",
          "name": "commitment",
          "type": "bytes32"
        },
        {
          "indexed": true,
          "internalType": "address",
          "name": "provider",
          "type": "address"
        },
        {
          "indexed": false,
          "internalType": "string",
          "name": "ipfsCID",
          "type": "string"
        },
        {
          "indexed": false,
          "internalType": "uint256",
          "name": "timestamp",
          "type": "uint256"
        }
      ],
      "name": "ProofBridged",
      "type": "event"
    },
    {
      "inputs": [
        {
          "internalType": "bytes32",
          "name": "commitment",
          "type": "bytes32"
        },
        {
          "internalType": "string",
          "name": "ipfsCID",
          "type": "string"
        }
      ],
      "name": "bridgeProof",
      "outputs": [],
      "stateMutability": "nonpayable",
      "type": "function"
    },
    {
      "inputs": [
        {
          "internalType": "uint256",
          "name": "amount",
          "type": "uint256"
        },
        {
          "internalType": "address",
          "name": "recipient",
          "type": "address"
        }
      ],
      "name": "bridgeTokens",
      "outputs": [
        {
          "internalType": "bytes32",
          "name": "bridgeId",
          "type": "bytes32"
        }
      ],
      "stateMutability": "nonpayable",
      "type": "function"
    },
    {
      "inputs": [
        {
          "internalType": "bytes32",
          "name": "",
          "type": "bytes32"
        }
      ],
      "name": "bridgedCommitments",
      "outputs": [
        {
          "internalType": "bool",
          "name": "",
          "type": "bool"
        }
      ],
      "stateMutability": "view",
      "type": "function"
    },
    {
      "inputs": [
        {
          "internalType": "bytes32",
          "name": "bridgeId",
          "type": "bytes32"
        }
      ],
      "name": "confirmBridge",
      "outputs": [],
      "stateMutability": "nonpayable",
      "type": "function"
    },
    {
      "inputs": [
        {
          "internalType": "address",
          "name": "to",
          "type": "address"
        },
        {
          "internalType": "uint256",
          "name": "amount",
          "type": "uint256"
        }
      ],
      "name": "emergencyUnlock",
      "outputs": [],
      "stateMutability": "nonpayable",
      "type": "function"
    },
    {
      "inputs": [],
      "name": "lockedBalance",
      "outputs": [
        {
          "internalType": "uint256",
          "name": "",
          "type": "uint256"
        }
      ],
      "stateMutability": "view",
      "type": "function"
    },
    {
      "inputs": [
        {
          "internalType": "address",
          "name": "",
          "type": "address"
        }
      ],
      "name": "nonces",
      "outputs": [
        {
          "internalType": "uint256",
          "name": "",
          "type": "uint256"
        }
      ],
      "stateMutability": "view",
      "type": "function"
    },
    {
      "inputs": [],
      "name": "owner",
      "outputs": [
        {
          "internalType": "address",
          "name": "",
          "type": "address"
        }
      ],
      "stateMutability": "view",
      "type": "function"
    },
    {
      "inputs": [],
      "name": "pptToken",
      "outputs": [
        {
          "internalType": "contract IERC20",
          "name": "",
          "type": "address"
        }
      ],
      "stateMutability": "view",
      "type": "function"
    },
    {
      "inputs": [],
      "name": "relayer",
      "outputs": [
        {
          "internalType": "address",
          "name": "",
          "type": "address"
        }
      ],
      "stateMutability": "view",
      "type": "function"
    },
    {
      "inputs": [],
      "name": "renounceOwnership",
      "outputs": [],
      "stateMutability": "nonpayable",
      "type": "function"
    },
    {
      "inputs": [
        {
          "internalType": "address",
          "name": "_relayer",
          "type": "address"
        }
      ],
      "name": "setRelayer",
      "outputs": [],
      "stateMutability": "nonpayable",
      "type": "function"
    },
    {
      "inputs": [
        {
          "internalType": "address",
          "name": "newOwner",
          "type": "address"
        }
      ],
      "name": "transferOwnership",
      "outputs": [],
      "stateMutability": "nonpayable",
      "type": "function"
    }
  ],
  "bytecode": "0x60a03461011e57601f610b0238819003918201601f19168301916001600160401b0383118484101761012357808492604094855283398101031261011e57610052602061004b83610139565b9201610139565b33156101055760008054336001600160a01b0319808316821784556040519590946001600160a01b03949093859391908416907f8be0079c531659141344cd1fd0a4f28419497f9722a3daafe3b4186f6b6457e09080a360017f9b779b17422d0df92223018b32b4d1fa46e071723d6817e2486d003becc55f005516608052169060035416176003556109b4908161014e8239608051818181610264015281816106060152818161069e01526107c60152f35b604051631e4fbdf760e01b815260006004820152602490fd5b600080fd5b634e487b7160e01b600052604160045260246000fd5b51906001600160a01b038216820361011e5756fe608060408181526004908136101561001657600080fd5b600092833560e01c9081632e92df2c14610820575083816345bf8f9f1461076f575080636548e9bc1461072a578063715018a6146106cd5780637b5b50e7146106895780637b80889b146105d95780637ecebe00146105a15780638406c079146105785780638da5cb5b1461054c578063f19cd9811461051f578063f2fde38b14610498578063f6363e75146101f85763f9c4ba4c146100b557600080fd5b346101f457806003193601126101f45781359060243567ffffffffffffffff938482116101f057366023830112156101f057818101359485116101f05736602486840101116101f05761010661093c565b838652600260205260ff83872054166101ad5750908360247fd4f1086ad1aa7e8ebe3c1628ade604030416c620bb7662c4ceebeff04d8065f6938588526002602052838820600160ff198254161790558284519480865285015201606083013784606085830101524260208201526060813395601f80199101168101030190a360017f9b779b17422d0df92223018b32b4d1fa46e071723d6817e2486d003becc55f005580f35b606490602084519162461bcd60e51b8352820152601760248201527f4272696467653a20616c726561647920627269646765640000000000000000006044820152fd5b8580fd5b8280fd5b50346101f457806003193601126101f45760249182356001600160a01b0381811692918235918482036104945761022d61093c565b8215610452578415610410579087918651906323b872dd60e01b8252338683015230898301528460448301528160648160209c8d947f0000000000000000000000000000000000000000000000000000000000000000165af19081156104065783916103d9575b5015610397573382526001885285822080549790600019891461038557600189019055865192898401923360601b84526bffffffffffffffffffffffff199060601b1660348501528460488501528860688501524660888501526088845260c084019584871067ffffffffffffffff88111761037557505050906101009184875281519020968793855260e082015201527f4ad419816488893c81abac7d755388622161820e56d67b3dc641179cd5a0557060603392a360017f9b779b17422d0df92223018b32b4d1fa46e071723d6817e2486d003becc55f005551908152f35b634e487b7160e01b825260419052fd5b50634e487b7160e01b83526011855282fd5b855162461bcd60e51b81528085018990526017818901527f4272696467653a207472616e73666572206661696c65640000000000000000006044820152606490fd5b6103f99150893d8b116103ff575b6103f181836108ec565b810190610924565b38610294565b503d6103e7565b87513d85823e3d90fd5b855162461bcd60e51b81526020818601526019818901527f4272696467653a20696e76616c696420726563697069656e74000000000000006044820152606490fd5b855162461bcd60e51b8152602081860152601a818901527f4272696467653a20616d6f756e74206d757374206265203e20300000000000006044820152606490fd5b8780fd5b5090346101f45760203660031901126101f4576104b36108a5565b906104bc6108c0565b6001600160a01b0391821692831561050957505082546001600160a01b0319811683178455167f8be0079c531659141344cd1fd0a4f28419497f9722a3daafe3b4186f6b6457e08380a380f35b51631e4fbdf760e01b8152908101849052602490fd5b5090346101f45760203660031901126101f4578160209360ff923581526002855220541690519015158152f35b838234610574578160031936011261057457905490516001600160a01b039091168152602090f35b5080fd5b83823461057457816003193601126105745760035490516001600160a01b039091168152602090f35b8382346105745760203660031901126105745760209181906001600160a01b036105c96108a5565b1681526001845220549051908152f35b50346101f457826003193601126101f45780516370a0823160e01b815230928101929092526020826024817f00000000000000000000000000000000000000000000000000000000000000006001600160a01b03165afa91821561067f578392610648575b6020838351908152f35b9091506020813d8211610677575b81610663602093836108ec565b810103126101f4576020925051903861063e565b3d9150610656565b81513d85823e3d90fd5b838234610574578160031936011261057457517f00000000000000000000000000000000000000000000000000000000000000006001600160a01b03168152602090f35b83346107275780600319360112610727576106e66108c0565b80546001600160a01b03198116825581906001600160a01b03167f8be0079c531659141344cd1fd0a4f28419497f9722a3daafe3b4186f6b6457e08280a380f35b80fd5b8334610727576020366003190112610727576107446108a5565b61074c6108c0565b60018060a01b03166bffffffffffffffffffffffff60a01b600354161760035580f35b9290503461081c578160031936011261081c57602090604461078f6108a5565b916107986108c0565b845163a9059cbb60e01b81526001600160a01b039384169181019190915260248035908201529485928391907f0000000000000000000000000000000000000000000000000000000000000000165af190811561081357506107f8575080f35b61080f9060203d81116103ff576103f181836108ec565b5080f35b513d84823e3d90fd5b5050fd5b915050346101f45760203660031901126101f4576003546001600160a01b0316330361086f5750357ff858475f6ceaf814cde2c67e14c95826e45be5bfd12b07fdb49acbf06ca75a678280a280f35b602060649262461bcd60e51b83528201526013602482015272213934b233b29d103737ba103932b630bcb2b960691b6044820152fd5b600435906001600160a01b03821682036108bb57565b600080fd5b6000546001600160a01b031633036108d457565b60405163118cdaa760e01b8152336004820152602490fd5b90601f8019910116810190811067ffffffffffffffff82111761090e57604052565b634e487b7160e01b600052604160045260246000fd5b908160209103126108bb575180151581036108bb5790565b7f9b779b17422d0df92223018b32b4d1fa46e071723d6817e2486d003becc55f00600281541461096c5760029055565b604051633ee5aeb560e01b8152600490fdfea2646970667358221220274d8331cd0c1e6c1220f69c0d547595e189d70a4696024613fc25fcdb17f3bc64736f6c63430008140033",
  "linkReferences": {},
  "deployedLinkReferences": {}
}